{
  "contractName": "Bank",
  "abi": [
    {
      "constant": true,
      "inputs": [],
      "name": "ChickPool",
      "outputs": [
        {
          "name": "",
          "type": "address"
        }
      ],
      "payable": false,
      "stateMutability": "view",
      "type": "function"
    },
    {
      "constant": true,
      "inputs": [],
      "name": "Chick",
      "outputs": [
        {
          "name": "",
          "type": "address"
        }
      ],
      "payable": false,
      "stateMutability": "view",
      "type": "function"
    },
    {
      "inputs": [
        {
          "name": "_ChickPool",
          "type": "address"
        },
        {
          "name": "_Chick",
          "type": "address"
        }
      ],
      "payable": false,
      "stateMutability": "nonpayable",
      "type": "constructor"
    },
    {
      "constant": false,
      "inputs": [
        {
          "name": "amount_chick_desired",
          "type": "uint256"
        },
        {
          "name": "amount_chick_min",
          "type": "uint256"
        },
        {
          "name": "amount_chick_max",
          "type": "uint256"
        },
        {
          "name": "to",
          "type": "address"
        }
      ],
      "name": "addLiquidity",
      "outputs": [
        {
          "name": "amount_klay",
          "type": "uint256"
        },
        {
          "name": "amount_chick",
          "type": "uint256"
        },
        {
          "name": "liquidity",
          "type": "uint256"
        }
      ],
      "payable": true,
      "stateMutability": "payable",
      "type": "function"
    },
    {
      "constant": false,
      "inputs": [
        {
          "name": "liquidity",
          "type": "uint256"
        },
        {
          "name": "amount_klay_min",
          "type": "uint256"
        },
        {
          "name": "amount_chick_min",
          "type": "uint256"
        },
        {
          "name": "to",
          "type": "address"
        }
      ],
      "name": "removeLiquidity",
      "outputs": [
        {
          "name": "amount_klay",
          "type": "uint256"
        },
        {
          "name": "amount_chick",
          "type": "uint256"
        }
      ],
      "payable": false,
      "stateMutability": "nonpayable",
      "type": "function"
    },
    {
      "constant": true,
      "inputs": [
        {
          "name": "amount_in",
          "type": "uint256"
        },
        {
          "name": "amount_in_kind",
          "type": "uint8"
        }
      ],
      "name": "getAmountOutFromPool",
      "outputs": [
        {
          "name": "amount_out",
          "type": "uint256"
        }
      ],
      "payable": false,
      "stateMutability": "view",
      "type": "function"
    },
    {
      "constant": true,
      "inputs": [
        {
          "name": "amount_out",
          "type": "uint256"
        },
        {
          "name": "amount_out_kind",
          "type": "uint8"
        }
      ],
      "name": "getAmountInFromPool",
      "outputs": [
        {
          "name": "amount_in",
          "type": "uint256"
        }
      ],
      "payable": false,
      "stateMutability": "view",
      "type": "function"
    },
    {
      "constant": false,
      "inputs": [
        {
          "name": "amount_out_min",
          "type": "uint256"
        },
        {
          "name": "to",
          "type": "address"
        }
      ],
      "name": "swapExactKlayForChick",
      "outputs": [],
      "payable": true,
      "stateMutability": "payable",
      "type": "function"
    },
    {
      "constant": false,
      "inputs": [
        {
          "name": "amount_out",
          "type": "uint256"
        },
        {
          "name": "to",
          "type": "address"
        }
      ],
      "name": "swapKlayForExactChick",
      "outputs": [],
      "payable": true,
      "stateMutability": "payable",
      "type": "function"
    },
    {
      "constant": false,
      "inputs": [
        {
          "name": "amount_in",
          "type": "uint256"
        },
        {
          "name": "amount_out_min",
          "type": "uint256"
        },
        {
          "name": "to",
          "type": "address"
        }
      ],
      "name": "swapExactChickForKlay",
      "outputs": [],
      "payable": false,
      "stateMutability": "nonpayable",
      "type": "function"
    },
    {
      "constant": false,
      "inputs": [
        {
          "name": "amount_in_max",
          "type": "uint256"
        },
        {
          "name": "amount_out",
          "type": "uint256"
        },
        {
          "name": "to",
          "type": "address"
        }
      ],
      "name": "swapChickForExactKlay",
      "outputs": [],
      "payable": false,
      "stateMutability": "nonpayable",
      "type": "function"
    },
    {
      "constant": true,
      "inputs": [],
      "name": "getReservesFromPool",
      "outputs": [
        {
          "name": "reserve_klay",
          "type": "uint256"
        },
        {
          "name": "reserve_chick",
          "type": "uint256"
        }
      ],
      "payable": false,
      "stateMutability": "view",
      "type": "function"
    }
  ],
  "bytecode": "0x608060405234801561001057600080fd5b506040516040806115fa8339810180604052604081101561003057600080fd5b508051602090910151600080546001600160a01b039384166001600160a01b03199182161790915560018054939092169216919091179055611583806100776000396000f3fe60806040526004361061009c5760003560e01c8063b576468e11610064578063b576468e14610188578063bf01296c146101de578063c41b8dd414610211578063c948831314610250578063e39b0eb51461028f578063e6b774e6146102d45761009c565b80634ad2d94e146100a1578063535453c6146100cf5780635363bc10146100fd57806359e2e1d414610142578063923767bd14610173575b600080fd5b6100cd600480360360408110156100b757600080fd5b50803590602001356001600160a01b0316610300565b005b3480156100db57600080fd5b506100e461047c565b6040805192835260208301919091528051918290030190f35b34801561010957600080fd5b506101306004803603604081101561012057600080fd5b508035906020013560ff16610507565b60408051918252519081900360200190f35b34801561014e57600080fd5b506101576105d2565b604080516001600160a01b039092168252519081900360200190f35b34801561017f57600080fd5b506101576105e1565b6101c06004803603608081101561019e57600080fd5b50803590602081013590604081013590606001356001600160a01b03166105f0565b60408051938452602084019290925282820152519081900360600190f35b3480156101ea57600080fd5b506101306004803603604081101561020157600080fd5b508035906020013560ff166108d8565b34801561021d57600080fd5b506100cd6004803603606081101561023457600080fd5b50803590602081013590604001356001600160a01b0316610991565b34801561025c57600080fd5b506100cd6004803603606081101561027357600080fd5b50803590602081013590604001356001600160a01b0316610b04565b34801561029b57600080fd5b506100e4600480360360808110156102b257600080fd5b50803590602081013590604081013590606001356001600160a01b0316610c59565b6100cd600480360360408110156102ea57600080fd5b50803590602001356001600160a01b0316610e24565b34600061030e826001610507565b9050838110156103685760408051600160e51b62461bcd02815260206004820181905260248201527f42616e6b3a20494e53554646494349454e545f4f55545055545f414d4f554e54604482015290519081900360640190fd5b600080546040516001600160a01b039091169084908381818185875af1925050503d80600081146103b5576040519150601f19603f3d011682016040523d82523d6000602084013e6103ba565b606091505b50509050806104015760408051600160e51b62461bcd02815260206004820152601a6024820152600080516020611538833981519152604482015290519081900360640190fd5b6000805460408051600160e11b6336cd320502815260048101849052602481018690526001600160a01b03888116604483015291519190921692636d9a640a926064808201939182900301818387803b15801561045d57600080fd5b505af1158015610471573d6000803e3d6000fd5b505050505050505050565b6000805460408051600160e21b630240bc6b028152815184936001600160a01b031692630902f1ac9260048082019391829003018186803b1580156104c057600080fd5b505afa1580156104d4573d6000803e3d6000fd5b505050506040513d60408110156104ea57600080fd5b5080516020909101516001600160701b0391821693501690509091565b6000805460408051600160e21b630240bc6b0281528151849384936001600160a01b0390911692630902f1ac9260048083019392829003018186803b15801561054f57600080fd5b505afa158015610563573d6000803e3d6000fd5b505050506040513d604081101561057957600080fd5b5080516020909101516001600160701b03918216935016905060ff8416600114156105b0576105a9858383611054565b92506105ca565b60ff8416600214156105ca576105c7858284611054565b92505b505092915050565b6000546001600160a01b031681565b6001546001600160a01b031681565b6000805460408051600160e21b630240bc6b0281528151849384933493859384936001600160a01b031692630902f1ac9260048082019391829003018186803b15801561063c57600080fd5b505afa158015610650573d6000803e3d6000fd5b505050506040513d604081101561066657600080fd5b5080516020909101516001600160701b0391821693501690508115801561068b575080155b1561069d579194508893508491610719565b60006106aa84848461114a565b9050808a111580156106bc5750888111155b6107105760408051600160e51b62461bcd02815260206004820152601e60248201527f42616e6b3a20434849434b5f414d4f554e54204e4f54204d4154434845440000604482015290519081900360640190fd5b92955091935084915b600080546040516001600160a01b039091169088908381818185875af1925050503d8060008114610766576040519150601f19603f3d011682016040523d82523d6000602084013e61076b565b606091505b50509050806107b25760408051600160e51b62461bcd02815260206004820152601a6024820152600080516020611538833981519152604482015290519081900360640190fd5b6001546000805460408051600160e01b6323b872dd0281523360048201526001600160a01b039283166024820152604481018b9052905191909316926323b872dd9260648083019360209390929083900390910190829087803b15801561081857600080fd5b505af115801561082c573d6000803e3d6000fd5b505050506040513d602081101561084257600080fd5b50506000805460408051600160e11b6335313c210281526001600160a01b038c8116600483015291519190921692636a62784292602480820193602093909283900390910190829087803b15801561089957600080fd5b505af11580156108ad573d6000803e3d6000fd5b505050506040513d60208110156108c357600080fd5b5051969b959a50959850939650505050505050565b6000805460408051600160e21b630240bc6b0281528151849384936001600160a01b0390911692630902f1ac9260048083019392829003018186803b15801561092057600080fd5b505afa158015610934573d6000803e3d6000fd5b505050506040513d604081101561094a57600080fd5b5080516020909101516001600160701b03918216935016905060ff84166001141561097a576105a9858284611212565b60ff8416600214156105ca576105c7858383611212565b600061099e846002610507565b9050828110156109f85760408051600160e51b62461bcd02815260206004820181905260248201527f42616e6b3a20494e53554646494349454e545f4f55545055545f414d4f554e54604482015290519081900360640190fd5b6001546000805460408051600160e01b6323b872dd0281523360048201526001600160a01b03928316602482015260448101899052905191909316926323b872dd9260648083019360209390929083900390910190829087803b158015610a5e57600080fd5b505af1158015610a72573d6000803e3d6000fd5b505050506040513d6020811015610a8857600080fd5b50506000805460408051600160e11b6336cd320502815260048101859052602481018490526001600160a01b03868116604483015291519190921692636d9a640a926064808201939182900301818387803b158015610ae657600080fd5b505af1158015610afa573d6000803e3d6000fd5b5050505050505050565b6000610b118360016108d8565b905083811115610b6b5760408051600160e51b62461bcd02815260206004820152601b60248201527f42616e6b3a20544f4f5f484947485f494e5055545f414d4f554e540000000000604482015290519081900360640190fd5b6001546000805460408051600160e01b6323b872dd0281523360048201526001600160a01b03928316602482015260448101869052905191909316926323b872dd9260648083019360209390929083900390910190829087803b158015610bd157600080fd5b505af1158015610be5573d6000803e3d6000fd5b505050506040513d6020811015610bfb57600080fd5b50506000805460408051600160e11b6336cd320502815260048101879052602481018490526001600160a01b03868116604483015291519190921692636d9a640a926064808201939182900301818387803b158015610ae657600080fd5b6000805460408051600160e01b6323b872dd0281523360048201526001600160a01b039092166024830181905260448301889052905183926323b872dd91606480830192602092919082900301818787803b158015610cb757600080fd5b505af1158015610ccb573d6000803e3d6000fd5b505050506040513d6020811015610ce157600080fd5b50506000805460408051600160e21b63226bf2d10281526001600160a01b03878116600483015282519316936389afcb4493602480840194939192918390030190829087803b158015610d3357600080fd5b505af1158015610d47573d6000803e3d6000fd5b505050506040513d6040811015610d5d57600080fd5b508051602090910151909250905084821015610dc35760408051600160e51b62461bcd02815260206004820152601e60248201527f42616e6b3a20494e53554646494349454e545f4b4c41595f414d4f554e540000604482015290519081900360640190fd5b83811015610e1b5760408051600160e51b62461bcd02815260206004820152601f60248201527f42616e6b3a20494e53554646494349454e545f434849434b5f414d4f554e5400604482015290519081900360640190fd5b94509492505050565b346000610e328460026108d8565b905081811115610e8c5760408051600160e51b62461bcd02815260206004820152601b60248201527f42616e6b3a20544f4f5f484947485f494e5055545f414d4f554e540000000000604482015290519081900360640190fd5b600080546040516001600160a01b039091169083908381818185875af1925050503d8060008114610ed9576040519150601f19603f3d011682016040523d82523d6000602084013e610ede565b606091505b5050905080610f255760408051600160e51b62461bcd02815260206004820152601a6024820152600080516020611538833981519152604482015290519081900360640190fd5b6000610f37848463ffffffff61130816565b90508015610fd8576040516000906001600160a01b0387169083908381818185875af1925050503d8060008114610f8a576040519150601f19603f3d011682016040523d82523d6000602084013e610f8f565b606091505b5050905080610fd65760408051600160e51b62461bcd02815260206004820152601a6024820152600080516020611538833981519152604482015290519081900360640190fd5b505b6000805460408051600160e11b6336cd320502815260048101849052602481018a90526001600160a01b03898116604483015291519190921692636d9a640a926064808201939182900301818387803b15801561103457600080fd5b505af1158015611048573d6000803e3d6000fd5b50505050505050505050565b600080841161109757604051600160e51b62461bcd0281526004018080602001828103825260268152602001806114ef6026913960400191505060405180910390fd5b6000831180156110a75750600082115b6110e557604051600160e51b62461bcd0281526004018080602001828103825260238152602001806115156023913960400191505060405180910390fd5b60006110f9856103e563ffffffff61135316565b9050600061110d828563ffffffff61135316565b9050600061113383611127886103e863ffffffff61135316565b9063ffffffff6113af16565b905080828161113e57fe5b04979650505050505050565b60008084116111a35760408051600160e51b62461bcd02815260206004820181905260248201527f42616e6b4c6962726172793a20494e53554646494349454e545f414d4f554e54604482015290519081900360640190fd5b6000831180156111b35750600082115b6111f157604051600160e51b62461bcd0281526004018080602001828103825260238152602001806115156023913960400191505060405180910390fd5b82611202858463ffffffff61135316565b8161120957fe5b04949350505050565b600080841161125557604051600160e51b62461bcd0281526004018080602001828103825260278152602001806114a76027913960400191505060405180910390fd5b6000831180156112655750600082115b6112a357604051600160e51b62461bcd0281526004018080602001828103825260238152602001806115156023913960400191505060405180910390fd5b60006112c76103e86112bb868863ffffffff61135316565b9063ffffffff61135316565b905060006112e16103e56112bb868963ffffffff61130816565b90506112fe60018284816112f157fe5b049063ffffffff6113af16565b9695505050505050565b600061134a83836040518060400160405280601e81526020017f536166654d6174683a207375627472616374696f6e206f766572666c6f77000081525061140c565b90505b92915050565b6000826113625750600061134d565b8282028284828161136f57fe5b041461134a57604051600160e51b62461bcd0281526004018080602001828103825260218152602001806114ce6021913960400191505060405180910390fd5b60008282018381101561134a5760408051600160e51b62461bcd02815260206004820152601b60248201527f536166654d6174683a206164646974696f6e206f766572666c6f770000000000604482015290519081900360640190fd5b6000818484111561149e57604051600160e51b62461bcd0281526004018080602001828103825283818151815260200191508051906020019080838360005b8381101561146357818101518382015260200161144b565b50505050905090810190601f1680156114905780820380516001836020036101000a031916815260200191505b509250505060405180910390fd5b50505090039056fe42616e6b4c6962726172793a20494e53554646494349454e545f4f55545055545f414d4f554e54536166654d6174683a206d756c7469706c69636174696f6e206f766572666c6f7742616e6b4c6962726172793a20494e53554646494349454e545f494e5055545f414d4f554e5442616e6b4c6962726172793a20494e53554646494349454e545f4c495155494449545942616e6b3a204b6c6179205472616e73666572204661696c6564000000000000a165627a7a723058208087c2ef8ebbe9e4268356dbafd9db411ff18a21e0b56c2f3529665a10b4ec5d0029",
  "source": "// SPDX-License-Identifier: MIT\r\npragma solidity ^0.5.6;\r\n\r\nimport \"./Pool.sol\";\r\nimport \"./klaytn-contracts/token/KIP7/IKIP7.sol\";\r\nimport \"./libraries/BankLibrary.sol\";\r\nimport \"./klaytn-contracts/math/SafeMath.sol\";\r\n\r\ncontract Bank {\r\n    using SafeMath for uint256;\r\n\r\n    Pool public ChickPool;\r\n    IKIP7 public Chick;\r\n\r\n    constructor(Pool _ChickPool, IKIP7 _Chick) public {\r\n        ChickPool = _ChickPool;\r\n        Chick = _Chick;\r\n    }\r\n\r\n    /* USE AS KIND */\r\n    uint8 private constant _KIND_KLAY = 1;\r\n    uint8 private constant _KIND_CHICK = 2;\r\n\r\n    function addLiquidity(\r\n        uint256 amount_chick_desired,\r\n        uint256 amount_chick_min,\r\n        uint256 amount_chick_max,\r\n        address to\r\n    )\r\n        external\r\n        payable\r\n        returns (\r\n            uint256 amount_klay,\r\n            uint256 amount_chick,\r\n            uint256 liquidity\r\n        )\r\n    {\r\n        uint256 amount_klay_transfered = msg.value;\r\n\r\n        (uint256 reserve_klay, uint256 reserve_chick) = ChickPool.getReserves();\r\n\r\n        if (reserve_klay == 0 && reserve_chick == 0) {\r\n            (amount_klay, amount_chick) = (\r\n                amount_klay_transfered,\r\n                amount_chick_desired\r\n            );\r\n        } else {\r\n            uint256 amount_chick_optimal = BankLibrary.quote(\r\n                amount_klay_transfered,\r\n                reserve_klay,\r\n                reserve_chick\r\n            );\r\n            require(\r\n                amount_chick_min <= amount_chick_optimal &&\r\n                    amount_chick_optimal <= amount_chick_max,\r\n                \"Bank: CHICK_AMOUNT NOT MATCHED\"\r\n            );\r\n\r\n            (amount_klay, amount_chick) = (\r\n                amount_klay_transfered,\r\n                amount_chick_optimal\r\n            );\r\n        }\r\n\r\n        (bool success, ) = address(ChickPool).call.value(amount_klay)(\"\"); //same as to.transfer(amount_klay);\r\n        require(success, \"Bank: Klay Transfer Failed\"); // because of gas issue\r\n        Chick.transferFrom(msg.sender, address(ChickPool), amount_chick);\r\n\r\n        liquidity = ChickPool.mint(to);\r\n    }\r\n\r\n    function removeLiquidity(\r\n        uint256 liquidity,\r\n        uint256 amount_klay_min,\r\n        uint256 amount_chick_min,\r\n        address payable to\r\n    ) public returns (uint256 amount_klay, uint256 amount_chick) {\r\n        ChickPool.transferFrom(msg.sender, address(ChickPool), liquidity); // send liquidity to pool\r\n        (amount_klay, amount_chick) = ChickPool.burn(to);\r\n        require(\r\n            amount_klay >= amount_klay_min,\r\n            \"Bank: INSUFFICIENT_KLAY_AMOUNT\"\r\n        );\r\n        require(\r\n            amount_chick >= amount_chick_min,\r\n            \"Bank: INSUFFICIENT_CHICK_AMOUNT\"\r\n        );\r\n    }\r\n\r\n    // view_predict\r\n    function getAmountOutFromPool(uint256 amount_in, uint8 amount_in_kind)\r\n        public\r\n        view\r\n        returns (uint256 amount_out)\r\n    {\r\n        (uint256 reserve_klay, uint256 reserve_chick) = ChickPool.getReserves();\r\n        if (amount_in_kind == _KIND_KLAY) {\r\n            amount_out = BankLibrary.getAmountOut(\r\n                amount_in,\r\n                reserve_klay,\r\n                reserve_chick\r\n            );\r\n        } else if (amount_in_kind == _KIND_CHICK) {\r\n            amount_out = BankLibrary.getAmountOut(\r\n                amount_in,\r\n                reserve_chick,\r\n                reserve_klay\r\n            );\r\n        }\r\n    }\r\n\r\n    function getAmountInFromPool(uint256 amount_out, uint8 amount_out_kind)\r\n        public\r\n        view\r\n        returns (uint256 amount_in)\r\n    {\r\n        (uint256 reserve_klay, uint256 reserve_chick) = ChickPool.getReserves();\r\n        if (amount_out_kind == _KIND_KLAY) {\r\n            amount_in = BankLibrary.getAmountIn(\r\n                amount_out,\r\n                reserve_chick,\r\n                reserve_klay\r\n            );\r\n        } else if (amount_out_kind == _KIND_CHICK) {\r\n            amount_in = BankLibrary.getAmountIn(\r\n                amount_out,\r\n                reserve_klay,\r\n                reserve_chick\r\n            );\r\n        }\r\n    }\r\n\r\n    function swapExactKlayForChick(uint256 amount_out_min, address payable to)\r\n        external\r\n        payable\r\n    {\r\n        uint256 amount_in = msg.value;\r\n\r\n        uint256 amount_out = getAmountOutFromPool(amount_in, _KIND_KLAY);\r\n        require(\r\n            amount_out >= amount_out_min,\r\n            \"Bank: INSUFFICIENT_OUTPUT_AMOUNT\"\r\n        );\r\n\r\n        // transfer to POOL\r\n        (bool success, ) = address(ChickPool).call.value(amount_in)(\"\"); //same as to.transfer(amount_klay);\r\n        require(success, \"Bank: Klay Transfer Failed\"); // because of gas issue\r\n\r\n        ChickPool.swap(uint256(0), amount_out, to);\r\n    }\r\n\r\n    function swapKlayForExactChick(uint256 amount_out, address payable to)\r\n        external\r\n        payable\r\n    {\r\n        uint256 amount_in_max = msg.value;\r\n\r\n        uint256 amount_in = getAmountInFromPool(amount_out, _KIND_CHICK);\r\n        require(amount_in <= amount_in_max, \"Bank: TOO_HIGH_INPUT_AMOUNT\");\r\n\r\n        // transfer to POOL\r\n        (bool success1, ) = address(ChickPool).call.value(amount_in)(\"\"); //same as to.transfer(amount_klay);\r\n        require(success1, \"Bank: Klay Transfer Failed\"); // because of gas issue\r\n\r\n        // refund\r\n        uint256 amount_refund = amount_in_max.sub(amount_in);\r\n        if (amount_refund > 0) {\r\n            (bool success2, ) = to.call.value(amount_refund)(\"\"); //same as to.transfer(amount_klay);\r\n            require(success2, \"Bank: Klay Transfer Failed\"); // because of gas issue\r\n        }\r\n\r\n        ChickPool.swap(uint256(0), amount_out, to);\r\n    }\r\n\r\n    function swapExactChickForKlay(\r\n        uint256 amount_in,\r\n        uint256 amount_out_min,\r\n        address payable to\r\n    ) external {\r\n        uint256 amount_out = getAmountOutFromPool(amount_in, _KIND_CHICK);\r\n        require(\r\n            amount_out >= amount_out_min,\r\n            \"Bank: INSUFFICIENT_OUTPUT_AMOUNT\"\r\n        );\r\n\r\n        // transfer to POOL\r\n        Chick.transferFrom(msg.sender, address(ChickPool), amount_in);\r\n\r\n        ChickPool.swap(amount_out, uint256(0), to);\r\n    }\r\n\r\n    function swapChickForExactKlay(\r\n        uint256 amount_in_max,\r\n        uint256 amount_out,\r\n        address payable to\r\n    ) external {\r\n        uint256 amount_in = getAmountInFromPool(amount_out, _KIND_KLAY);\r\n        require(amount_in <= amount_in_max, \"Bank: TOO_HIGH_INPUT_AMOUNT\");\r\n\r\n        // transfer to POOL\r\n        Chick.transferFrom(msg.sender, address(ChickPool), amount_in);\r\n\r\n        ChickPool.swap(amount_out, uint256(0), to);\r\n    }\r\n\r\n    // view\r\n    function getReservesFromPool()\r\n        public\r\n        view\r\n        returns (uint256 reserve_klay, uint256 reserve_chick)\r\n    {\r\n        return ChickPool.getReserves();\r\n    }\r\n}\r\n",
  "sourcePath": "C:/Users/kwonj/contract_klaytn/chick_test/contracts/Bank.sol",
  "compiler": {
    "name": "solc",
    "version": "0.5.6+commit.b259423e.Emscripten.clang"
  },
  "schemaVersion": "3.3.3",
  "updatedAt": "2022-09-04T10:01:27.279Z",
  "devdoc": {
    "methods": {}
  },
  "userdoc": {
    "methods": {}
  }
}