{
  "contractName": "Chickiz",
  "abi": [
    {
      "constant": true,
      "inputs": [
        {
          "name": "interfaceId",
          "type": "bytes4"
        }
      ],
      "name": "supportsInterface",
      "outputs": [
        {
          "name": "",
          "type": "bool"
        }
      ],
      "payable": false,
      "stateMutability": "view",
      "type": "function"
    },
    {
      "constant": true,
      "inputs": [],
      "name": "name",
      "outputs": [
        {
          "name": "",
          "type": "string"
        }
      ],
      "payable": false,
      "stateMutability": "view",
      "type": "function"
    },
    {
      "constant": true,
      "inputs": [
        {
          "name": "tokenId",
          "type": "uint256"
        }
      ],
      "name": "getApproved",
      "outputs": [
        {
          "name": "",
          "type": "address"
        }
      ],
      "payable": false,
      "stateMutability": "view",
      "type": "function"
    },
    {
      "constant": false,
      "inputs": [
        {
          "name": "to",
          "type": "address"
        },
        {
          "name": "tokenId",
          "type": "uint256"
        }
      ],
      "name": "approve",
      "outputs": [],
      "payable": false,
      "stateMutability": "nonpayable",
      "type": "function"
    },
    {
      "constant": true,
      "inputs": [],
      "name": "totalSupply",
      "outputs": [
        {
          "name": "",
          "type": "uint256"
        }
      ],
      "payable": false,
      "stateMutability": "view",
      "type": "function"
    },
    {
      "constant": false,
      "inputs": [
        {
          "name": "from",
          "type": "address"
        },
        {
          "name": "to",
          "type": "address"
        },
        {
          "name": "tokenId",
          "type": "uint256"
        }
      ],
      "name": "transferFrom",
      "outputs": [],
      "payable": false,
      "stateMutability": "nonpayable",
      "type": "function"
    },
    {
      "constant": true,
      "inputs": [
        {
          "name": "owner",
          "type": "address"
        },
        {
          "name": "index",
          "type": "uint256"
        }
      ],
      "name": "tokenOfOwnerByIndex",
      "outputs": [
        {
          "name": "",
          "type": "uint256"
        }
      ],
      "payable": false,
      "stateMutability": "view",
      "type": "function"
    },
    {
      "constant": true,
      "inputs": [],
      "name": "baseURIBack",
      "outputs": [
        {
          "name": "",
          "type": "string"
        }
      ],
      "payable": false,
      "stateMutability": "view",
      "type": "function"
    },
    {
      "constant": false,
      "inputs": [],
      "name": "unpause",
      "outputs": [],
      "payable": false,
      "stateMutability": "nonpayable",
      "type": "function"
    },
    {
      "constant": false,
      "inputs": [
        {
          "name": "to",
          "type": "address"
        },
        {
          "name": "tokenId",
          "type": "uint256"
        }
      ],
      "name": "mint",
      "outputs": [
        {
          "name": "",
          "type": "bool"
        }
      ],
      "payable": false,
      "stateMutability": "nonpayable",
      "type": "function"
    },
    {
      "constant": false,
      "inputs": [
        {
          "name": "from",
          "type": "address"
        },
        {
          "name": "to",
          "type": "address"
        },
        {
          "name": "tokenId",
          "type": "uint256"
        }
      ],
      "name": "safeTransferFrom",
      "outputs": [],
      "payable": false,
      "stateMutability": "nonpayable",
      "type": "function"
    },
    {
      "constant": true,
      "inputs": [
        {
          "name": "account",
          "type": "address"
        }
      ],
      "name": "isPauser",
      "outputs": [
        {
          "name": "",
          "type": "bool"
        }
      ],
      "payable": false,
      "stateMutability": "view",
      "type": "function"
    },
    {
      "constant": true,
      "inputs": [
        {
          "name": "index",
          "type": "uint256"
        }
      ],
      "name": "tokenByIndex",
      "outputs": [
        {
          "name": "",
          "type": "uint256"
        }
      ],
      "payable": false,
      "stateMutability": "view",
      "type": "function"
    },
    {
      "constant": true,
      "inputs": [],
      "name": "paused",
      "outputs": [
        {
          "name": "",
          "type": "bool"
        }
      ],
      "payable": false,
      "stateMutability": "view",
      "type": "function"
    },
    {
      "constant": true,
      "inputs": [
        {
          "name": "tokenId",
          "type": "uint256"
        }
      ],
      "name": "ownerOf",
      "outputs": [
        {
          "name": "",
          "type": "address"
        }
      ],
      "payable": false,
      "stateMutability": "view",
      "type": "function"
    },
    {
      "constant": true,
      "inputs": [],
      "name": "baseURI",
      "outputs": [
        {
          "name": "",
          "type": "string"
        }
      ],
      "payable": false,
      "stateMutability": "view",
      "type": "function"
    },
    {
      "constant": false,
      "inputs": [],
      "name": "renouncePauser",
      "outputs": [],
      "payable": false,
      "stateMutability": "nonpayable",
      "type": "function"
    },
    {
      "constant": true,
      "inputs": [
        {
          "name": "owner",
          "type": "address"
        }
      ],
      "name": "balanceOf",
      "outputs": [
        {
          "name": "",
          "type": "uint256"
        }
      ],
      "payable": false,
      "stateMutability": "view",
      "type": "function"
    },
    {
      "constant": false,
      "inputs": [],
      "name": "renounceOwnership",
      "outputs": [],
      "payable": false,
      "stateMutability": "nonpayable",
      "type": "function"
    },
    {
      "constant": false,
      "inputs": [
        {
          "name": "account",
          "type": "address"
        }
      ],
      "name": "addPauser",
      "outputs": [],
      "payable": false,
      "stateMutability": "nonpayable",
      "type": "function"
    },
    {
      "constant": false,
      "inputs": [],
      "name": "pause",
      "outputs": [],
      "payable": false,
      "stateMutability": "nonpayable",
      "type": "function"
    },
    {
      "constant": true,
      "inputs": [],
      "name": "owner",
      "outputs": [
        {
          "name": "",
          "type": "address"
        }
      ],
      "payable": false,
      "stateMutability": "view",
      "type": "function"
    },
    {
      "constant": true,
      "inputs": [],
      "name": "isOwner",
      "outputs": [
        {
          "name": "",
          "type": "bool"
        }
      ],
      "payable": false,
      "stateMutability": "view",
      "type": "function"
    },
    {
      "constant": true,
      "inputs": [],
      "name": "symbol",
      "outputs": [
        {
          "name": "",
          "type": "string"
        }
      ],
      "payable": false,
      "stateMutability": "view",
      "type": "function"
    },
    {
      "constant": false,
      "inputs": [
        {
          "name": "account",
          "type": "address"
        }
      ],
      "name": "addMinter",
      "outputs": [],
      "payable": false,
      "stateMutability": "nonpayable",
      "type": "function"
    },
    {
      "constant": false,
      "inputs": [],
      "name": "renounceMinter",
      "outputs": [],
      "payable": false,
      "stateMutability": "nonpayable",
      "type": "function"
    },
    {
      "constant": false,
      "inputs": [
        {
          "name": "to",
          "type": "address"
        },
        {
          "name": "approved",
          "type": "bool"
        }
      ],
      "name": "setApprovalForAll",
      "outputs": [],
      "payable": false,
      "stateMutability": "nonpayable",
      "type": "function"
    },
    {
      "constant": true,
      "inputs": [
        {
          "name": "account",
          "type": "address"
        }
      ],
      "name": "isMinter",
      "outputs": [
        {
          "name": "",
          "type": "bool"
        }
      ],
      "payable": false,
      "stateMutability": "view",
      "type": "function"
    },
    {
      "constant": false,
      "inputs": [
        {
          "name": "from",
          "type": "address"
        },
        {
          "name": "to",
          "type": "address"
        },
        {
          "name": "tokenId",
          "type": "uint256"
        },
        {
          "name": "_data",
          "type": "bytes"
        }
      ],
      "name": "safeTransferFrom",
      "outputs": [],
      "payable": false,
      "stateMutability": "nonpayable",
      "type": "function"
    },
    {
      "constant": true,
      "inputs": [
        {
          "name": "owner",
          "type": "address"
        },
        {
          "name": "operator",
          "type": "address"
        }
      ],
      "name": "isApprovedForAll",
      "outputs": [
        {
          "name": "",
          "type": "bool"
        }
      ],
      "payable": false,
      "stateMutability": "view",
      "type": "function"
    },
    {
      "constant": false,
      "inputs": [
        {
          "name": "newOwner",
          "type": "address"
        }
      ],
      "name": "transferOwnership",
      "outputs": [],
      "payable": false,
      "stateMutability": "nonpayable",
      "type": "function"
    },
    {
      "anonymous": false,
      "inputs": [
        {
          "indexed": false,
          "name": "account",
          "type": "address"
        }
      ],
      "name": "Paused",
      "type": "event"
    },
    {
      "anonymous": false,
      "inputs": [
        {
          "indexed": false,
          "name": "account",
          "type": "address"
        }
      ],
      "name": "Unpaused",
      "type": "event"
    },
    {
      "anonymous": false,
      "inputs": [
        {
          "indexed": true,
          "name": "account",
          "type": "address"
        }
      ],
      "name": "PauserAdded",
      "type": "event"
    },
    {
      "anonymous": false,
      "inputs": [
        {
          "indexed": true,
          "name": "account",
          "type": "address"
        }
      ],
      "name": "PauserRemoved",
      "type": "event"
    },
    {
      "anonymous": false,
      "inputs": [
        {
          "indexed": true,
          "name": "account",
          "type": "address"
        }
      ],
      "name": "MinterAdded",
      "type": "event"
    },
    {
      "anonymous": false,
      "inputs": [
        {
          "indexed": true,
          "name": "account",
          "type": "address"
        }
      ],
      "name": "MinterRemoved",
      "type": "event"
    },
    {
      "anonymous": false,
      "inputs": [
        {
          "indexed": true,
          "name": "from",
          "type": "address"
        },
        {
          "indexed": true,
          "name": "to",
          "type": "address"
        },
        {
          "indexed": true,
          "name": "tokenId",
          "type": "uint256"
        }
      ],
      "name": "Transfer",
      "type": "event"
    },
    {
      "anonymous": false,
      "inputs": [
        {
          "indexed": true,
          "name": "owner",
          "type": "address"
        },
        {
          "indexed": true,
          "name": "approved",
          "type": "address"
        },
        {
          "indexed": true,
          "name": "tokenId",
          "type": "uint256"
        }
      ],
      "name": "Approval",
      "type": "event"
    },
    {
      "anonymous": false,
      "inputs": [
        {
          "indexed": true,
          "name": "owner",
          "type": "address"
        },
        {
          "indexed": true,
          "name": "operator",
          "type": "address"
        },
        {
          "indexed": false,
          "name": "approved",
          "type": "bool"
        }
      ],
      "name": "ApprovalForAll",
      "type": "event"
    },
    {
      "anonymous": false,
      "inputs": [
        {
          "indexed": true,
          "name": "previousOwner",
          "type": "address"
        },
        {
          "indexed": true,
          "name": "newOwner",
          "type": "address"
        }
      ],
      "name": "OwnershipTransferred",
      "type": "event"
    },
    {
      "constant": true,
      "inputs": [
        {
          "name": "tokenId",
          "type": "uint256"
        }
      ],
      "name": "tokenURI",
      "outputs": [
        {
          "name": "",
          "type": "string"
        }
      ],
      "payable": false,
      "stateMutability": "view",
      "type": "function"
    },
    {
      "constant": false,
      "inputs": [
        {
          "name": "_baseURI",
          "type": "string"
        }
      ],
      "name": "setBaseURI",
      "outputs": [],
      "payable": false,
      "stateMutability": "nonpayable",
      "type": "function"
    },
    {
      "constant": false,
      "inputs": [
        {
          "name": "_baseURIBack",
          "type": "string"
        }
      ],
      "name": "setBaseURIBack",
      "outputs": [],
      "payable": false,
      "stateMutability": "nonpayable",
      "type": "function"
    }
  ],
  "bytecode": "0x60e0604052602460808181529062002f1360a03980516200002991601091602090910190620004d3565b506040805180820190915260058082527f2e6a736f6e00000000000000000000000000000000000000000000000000000060209092019182526200007091601191620004d3565b50604080518082018252600781527f436869636b697a0000000000000000000000000000000000000000000000000060208083019190915282518084018452600681527f434849434b49000000000000000000000000000000000000000000000000000091810191909152600080546001600160a01b0319163317808255935192939192849284926001600160a01b0391909116917f8be0079c531659141344cd1fd0a4f28419497f9722a3daafe3b4186f6b6457e0908290a3620001426301ffc9a760e01b6200023660201b60201c565b6200015a6380ac58cd60e01b6200023660201b60201c565b6200017263780e9d6360e01b6200023660201b60201c565b81516200018790600a906020850190620004d3565b5080516200019d90600b906020840190620004d3565b50620001b6635b5e139f60e01b6200023660201b60201c565b50505050620001cb336200030860201b60201c565b620001e363eab83e2060e01b6200023660201b60201c565b620001f4336200035a60201b60201c565b600f805460ff19169055620002307f4d5507ff0000000000000000000000000000000000000000000000000000000062000236602090811b901c565b62000578565b7fffffffff000000000000000000000000000000000000000000000000000000008082161415620002c857604080517f08c379a000000000000000000000000000000000000000000000000000000000815260206004820152601b60248201527f4b495031333a20696e76616c696420696e746572666163652069640000000000604482015290519081900360640190fd5b7fffffffff00000000000000000000000000000000000000000000000000000000166000908152600160208190526040909120805460ff19169091179055565b6200032381600d620003ac60201b620021ab1790919060201c565b6040516001600160a01b038216907f6ae172837ea30b801fbfcdd4108aa1d5bf8ff775444fd70256b44e6bf3dfc3f690600090a250565b6200037581600e620003ac60201b620021ab1790919060201c565b6040516001600160a01b038216907f6719d08c1888103bea251a4ed56406bd0c3e69723c8a1686e017e7bbe159b6f890600090a250565b620003be82826200045060201b60201c565b156200042b57604080517f08c379a000000000000000000000000000000000000000000000000000000000815260206004820152601f60248201527f526f6c65733a206163636f756e7420616c72656164792068617320726f6c6500604482015290519081900360640190fd5b6001600160a01b0316600090815260209190915260409020805460ff19166001179055565b60006001600160a01b038216620004b3576040517f08c379a000000000000000000000000000000000000000000000000000000000815260040180806020018281038252602281526020018062002f376022913960400191505060405180910390fd5b506001600160a01b03166000908152602091909152604090205460ff1690565b828054600181600116156101000203166002900490600052602060002090601f016020900481019282601f106200051657805160ff191683800117855562000546565b8280016001018555821562000546579182015b828111156200054657825182559160200191906001019062000529565b506200055492915062000558565b5090565b6200057591905b808211156200055457600081556001016200055f565b90565b61298b80620005886000396000f3fe608060405234801561001057600080fd5b50600436106102065760003560e01c80636c0360eb1161011a57806395d89b41116100ad578063aa271e1a1161007c578063aa271e1a146106ac578063b88d4fde146106d2578063c87b56dd14610798578063e985e9c5146107b5578063f2fde38b146107e357610206565b806395d89b4114610648578063983b2d56146106505780639865027514610676578063a22cb4651461067e57610206565b806382dc1ec4116100e957806382dc1ec41461060a5780638456cb59146106305780638da5cb5b146106385780638f32d59b1461064057610206565b80636c0360eb146105cc5780636ef8d66d146105d457806370a08231146105dc578063715018a61461060257610206565b80633f4ba83a1161019d5780634d1a505e1161016c5780634d1a505e1461043e5780634f6ccce7146104e457806355f804b3146105015780635c975abb146105a75780636352211e146105af57610206565b80633f4ba83a146103ae57806340c10f19146103b657806342842e0e146103e257806346fbf68e1461041857610206565b806318160ddd116101d957806318160ddd1461032a57806323b872dd146103445780632f745c591461037a578063346c810c146103a657610206565b806301ffc9a71461020b57806306fdde0314610246578063081812fc146102c3578063095ea7b3146102fc575b600080fd5b6102326004803603602081101561022157600080fd5b50356001600160e01b031916610809565b604080519115158252519081900360200190f35b61024e61082c565b6040805160208082528351818301528351919283929083019185019080838360005b83811015610288578181015183820152602001610270565b50505050905090810190601f1680156102b55780820380516001836020036101000a031916815260200191505b509250505060405180910390f35b6102e0600480360360208110156102d957600080fd5b50356108c3565b604080516001600160a01b039092168252519081900360200190f35b6103286004803603604081101561031257600080fd5b506001600160a01b038135169060200135610928565b005b610332610987565b60408051918252519081900360200190f35b6103286004803603606081101561035a57600080fd5b506001600160a01b0381358116916020810135909116906040013561098d565b6103326004803603604081101561039057600080fd5b506001600160a01b0381351690602001356109ee565b61024e610a70565b610328610afe565b610232600480360360408110156103cc57600080fd5b506001600160a01b038135169060200135610bde565b610328600480360360608110156103f857600080fd5b506001600160a01b03813581169160208101359091169060400135610c3a565b6102326004803603602081101561042e57600080fd5b50356001600160a01b0316610c55565b6103286004803603602081101561045457600080fd5b81019060208101813564010000000081111561046f57600080fd5b82018360208201111561048157600080fd5b803590602001918460018302840111640100000000831117156104a357600080fd5b91908080601f016020809104026020016040519081016040528093929190818152602001838380828437600092019190915250929550610c6e945050505050565b610332600480360360208110156104fa57600080fd5b5035610ccb565b6103286004803603602081101561051757600080fd5b81019060208101813564010000000081111561053257600080fd5b82018360208201111561054457600080fd5b8035906020019184600183028401116401000000008311171561056657600080fd5b91908080601f016020809104026020016040519081016040528093929190818152602001838380828437600092019190915250929550610d34945050505050565b610232610d91565b6102e0600480360360208110156105c557600080fd5b5035610d9a565b61024e610df1565b610328610e4c565b610332600480360360208110156105f257600080fd5b50356001600160a01b0316610e57565b610328610ec2565b6103286004803603602081101561062057600080fd5b50356001600160a01b0316610f56565b610328610fa9565b6102e0611083565b610232611092565b61024e6110a3565b6103286004803603602081101561066657600080fd5b50356001600160a01b0316611104565b610328611154565b6103286004803603604081101561069457600080fd5b506001600160a01b038135169060200135151561115d565b610232600480360360208110156106c257600080fd5b50356001600160a01b03166111b8565b610328600480360360808110156106e857600080fd5b6001600160a01b0382358116926020810135909116916040820135919081019060808101606082013564010000000081111561072357600080fd5b82018360208201111561073557600080fd5b8035906020019184600183028401116401000000008311171561075757600080fd5b91908080601f0160208091040260200160405190810160405280939291908181526020018383808284376000920191909152509295506111cb945050505050565b61024e600480360360208110156107ae57600080fd5b5035611226565b610232600480360360408110156107cb57600080fd5b506001600160a01b03813581169160200135166114dc565b610328600480360360208110156107f957600080fd5b50356001600160a01b031661150a565b6001600160e01b0319811660009081526001602052604090205460ff165b919050565b600a8054604080516020601f60026000196101006001881615020190951694909404938401819004810282018101909252828152606093909290918301828280156108b85780601f1061088d576101008083540402835291602001916108b8565b820191906000526020600020905b81548152906001019060200180831161089b57829003601f168201915b505050505090505b90565b60006108ce8261155d565b61090c57604051600160e51b62461bcd02815260040180806020018281038252602b8152602001806128d3602b913960400191505060405180910390fd5b506000908152600360205260409020546001600160a01b031690565b600f5460ff16156109795760408051600160e51b62461bcd0281526020600482015260106024820152600160821b6f14185d5cd8589b194e881c185d5cd95902604482015290519081900360640190fd5b610983828261157a565b5050565b60085490565b600f5460ff16156109de5760408051600160e51b62461bcd0281526020600482015260106024820152600160821b6f14185d5cd8589b194e881c185d5cd95902604482015290519081900360640190fd5b6109e98383836116a7565b505050565b60006109f983610e57565b8210610a3957604051600160e51b62461bcd02815260040180806020018281038252602a815260200180612712602a913960400191505060405180910390fd5b6001600160a01b0383166000908152600660205260409020805483908110610a5d57fe5b9060005260206000200154905092915050565b6011805460408051602060026001851615610100026000190190941693909304601f81018490048402820184019092528181529291830182828015610af65780601f10610acb57610100808354040283529160200191610af6565b820191906000526020600020905b815481529060010190602001808311610ad957829003601f168201915b505050505081565b610b0733610c55565b610b4557604051600160e51b62461bcd0281526004018080602001828103825260308152602001806126996030913960400191505060405180910390fd5b600f5460ff16610b9f5760408051600160e51b62461bcd02815260206004820152601460248201527f5061757361626c653a206e6f7420706175736564000000000000000000000000604482015290519081900360640190fd5b600f805460ff191690556040805133815290517f5db9ee0a495bf2e6ff9c91a7834c1ba4fdd244a5e8aa4e537bd38aeae4b073aa9181900360200190a1565b6000610be9336111b8565b610c2757604051600160e51b62461bcd02815260040180806020018281038252603081526020018061273c6030913960400191505060405180910390fd5b610c3183836116fa565b50600192915050565b6109e9838383604051806020016040528060008152506111cb565b6000610c68600e8363ffffffff61171716565b92915050565b610c76611092565b610cb85760408051600160e51b62461bcd02815260206004820181905260248201526000805160206127e5833981519152604482015290519081900360640190fd5b80516109839060119060208401906125b2565b6000610cd5610987565b8210610d1557604051600160e51b62461bcd02815260040180806020018281038252602b8152602001806128a8602b913960400191505060405180910390fd5b60088281548110610d2257fe5b90600052602060002001549050919050565b610d3c611092565b610d7e5760408051600160e51b62461bcd02815260206004820181905260248201526000805160206127e5833981519152604482015290519081900360640190fd5b80516109839060109060208401906125b2565b600f5460ff1690565b6000818152600260205260408120546001600160a01b031680610c6857604051600160e51b62461bcd02815260040180806020018281038252602881526020018061278d6028913960400191505060405180910390fd5b6010805460408051602060026001851615610100026000190190941693909304601f81018490048402820184019092528181529291830182828015610af65780601f10610acb57610100808354040283529160200191610af6565b610e5533611781565b565b60006001600160a01b038216610ea157604051600160e51b62461bcd0281526004018080602001828103825260298152602001806128576029913960400191505060405180910390fd5b6001600160a01b0382166000908152600460205260409020610c68906117c9565b610eca611092565b610f0c5760408051600160e51b62461bcd02815260206004820181905260248201526000805160206127e5833981519152604482015290519081900360640190fd5b600080546040516001600160a01b03909116907f8be0079c531659141344cd1fd0a4f28419497f9722a3daafe3b4186f6b6457e0908390a3600080546001600160a01b0319169055565b610f5f33610c55565b610f9d57604051600160e51b62461bcd0281526004018080602001828103825260308152602001806126996030913960400191505060405180910390fd5b610fa6816117cd565b50565b610fb233610c55565b610ff057604051600160e51b62461bcd0281526004018080602001828103825260308152602001806126996030913960400191505060405180910390fd5b600f5460ff16156110415760408051600160e51b62461bcd0281526020600482015260106024820152600160821b6f14185d5cd8589b194e881c185d5cd95902604482015290519081900360640190fd5b600f805460ff191660011790556040805133815290517f62e78cea01bee320cd4e420270b5ea74000d11b0c9f74754ebdbfc544b05a2589181900360200190a1565b6000546001600160a01b031690565b6000546001600160a01b0316331490565b600b8054604080516020601f60026000196101006001881615020190951694909404938401819004810282018101909252828152606093909290918301828280156108b85780601f1061088d576101008083540402835291602001916108b8565b61110d336111b8565b61114b57604051600160e51b62461bcd02815260040180806020018281038252603081526020018061273c6030913960400191505060405180910390fd5b610fa681611815565b610e553361185d565b600f5460ff16156111ae5760408051600160e51b62461bcd0281526020600482015260106024820152600160821b6f14185d5cd8589b194e881c185d5cd95902604482015290519081900360640190fd5b61098382826118a5565b6000610c68600d8363ffffffff61171716565b6111d684848461098d565b6111e284848484611974565b61122057604051600160e51b62461bcd0281526004018080602001828103825260308152602001806128276030913960400191505060405180910390fd5b50505050565b60606112318261155d565b61126f57604051600160e51b62461bcd02815260040180806020018281038252602e81526020018061266b602e913960400191505060405180910390fd5b60108054604080516020601f60026000196101006001881615020190951694909404938401819004810282018101909252828152606093909290918301828280156112fb5780601f106112d0576101008083540402835291602001916112fb565b820191906000526020600020905b8154815290600101906020018083116112de57829003601f168201915b50506011805460408051602060026001851615610100026000190190941693909304601f8101849004840282018401909252818152969750606096879650945091925083018282801561138f5780601f106113645761010080835404028352916020019161138f565b820191906000526020600020905b81548152906001019060200180831161137257829003601f168201915b5050505050905060008590506113a481611d59565b601054909350600260001961010060018416150201909116046113d657604051806020016040528060008152506114d2565b8383836040516020018084805190602001908083835b6020831061140b5780518252601f1990920191602091820191016113ec565b51815160209384036101000a600019018019909216911617905286519190930192860191508083835b602083106114535780518252601f199092019160209182019101611434565b51815160209384036101000a600019018019909216911617905285519190930192850191508083835b6020831061149b5780518252601f19909201916020918201910161147c565b6001836020036101000a03801982511681845116808217855250505050505090500193505050506040516020818303038152906040525b9695505050505050565b6001600160a01b03918216600090815260056020908152604080832093909416825291909152205460ff1690565b611512611092565b6115545760408051600160e51b62461bcd02815260206004820181905260248201526000805160206127e5833981519152604482015290519081900360640190fd5b610fa681611e27565b6000908152600260205260409020546001600160a01b0316151590565b600061158582610d9a565b9050806001600160a01b0316836001600160a01b031614156115f15760408051600160e51b62461bcd02815260206004820181905260248201527f4b495031373a20617070726f76616c20746f2063757272656e74206f776e6572604482015290519081900360640190fd5b336001600160a01b038216148061160d575061160d81336114dc565b61164b57604051600160e51b62461bcd0281526004018080602001828103825260378152602001806128fe6037913960400191505060405180910390fd5b60008281526003602052604080822080546001600160a01b0319166001600160a01b0387811691821790925591518593918516917f8c5be1e5ebec7d5bd14f71427d1e84f3dd0314c0f7b2291e5b200ac8c7c3b92591a4505050565b6116b13382611eca565b6116ef57604051600160e51b62461bcd0281526004018080602001828103825260308152602001806127b56030913960400191505060405180910390fd5b6109e9838383611f69565b6117048282611f88565b61170e82826120bf565b610983816120fd565b60006001600160a01b03821661176157604051600160e51b62461bcd0281526004018080602001828103825260228152602001806128056022913960400191505060405180910390fd5b506001600160a01b03166000908152602091909152604090205460ff1690565b611792600e8263ffffffff61214116565b6040516001600160a01b038216907fcd265ebaf09df2871cc7bd4133404a235ba12eff2041bb89d9c714a2621c7c7e90600090a250565b5490565b6117de600e8263ffffffff6121ab16565b6040516001600160a01b038216907f6719d08c1888103bea251a4ed56406bd0c3e69723c8a1686e017e7bbe159b6f890600090a250565b611826600d8263ffffffff6121ab16565b6040516001600160a01b038216907f6ae172837ea30b801fbfcdd4108aa1d5bf8ff775444fd70256b44e6bf3dfc3f690600090a250565b61186e600d8263ffffffff61214116565b6040516001600160a01b038216907fe94479a9f7e1952cc78f2d6baab678adc1b772d936c6583def489e524cb6669290600090a250565b6001600160a01b0382163314156119065760408051600160e51b62461bcd02815260206004820152601860248201527f4b495031373a20617070726f766520746f2063616c6c65720000000000000000604482015290519081900360640190fd5b3360008181526005602090815260408083206001600160a01b03871680855290835292819020805460ff1916861515908117909155815190815290519293927f17307eab39ab6107e8899845ad3d59bd9653f200f220920489ca2b5937696c31929181900390910190a35050565b600080606061198b866001600160a01b031661222f565b61199a57600192505050611d51565b856001600160a01b031663150b7a0260e01b3389888860405160240180856001600160a01b03166001600160a01b03168152602001846001600160a01b03166001600160a01b0316815260200183815260200180602001828103825283818151815260200191508051906020019080838360005b83811015611a26578181015183820152602001611a0e565b50505050905090810190601f168015611a535780820380516001836020036101000a031916815260200191505b5060408051601f198184030181529181526020820180516001600160e01b03166001600160e01b0319909a16999099178952518151919890975087965094509250829150849050835b60208310611abb5780518252601f199092019160209182019101611a9c565b6001836020036101000a0380198251168184511680821785525050505050509050019150506000604051808303816000865af19150503d8060008114611b1d576040519150601f19603f3d011682016040523d82523d6000602084013e611b22565b606091505b508051919350915015801590611b6257508051600160e11b630a85bd01029060208084019190811015611b5457600080fd5b50516001600160e01b031916145b15611b7257600192505050611d51565b856001600160a01b0316636745782b60e01b3389888860405160240180856001600160a01b03166001600160a01b03168152602001846001600160a01b03166001600160a01b0316815260200183815260200180602001828103825283818151815260200191508051906020019080838360005b83811015611bfe578181015183820152602001611be6565b50505050905090810190601f168015611c2b5780820380516001836020036101000a031916815260200191505b5060408051601f198184030181529181526020820180516001600160e01b03166001600160e01b0319909a16999099178952518151919890975087965094509250829150849050835b60208310611c935780518252601f199092019160209182019101611c74565b6001836020036101000a0380198251168184511680821785525050505050509050019150506000604051808303816000865af19150503d8060008114611cf5576040519150601f19603f3d011682016040523d82523d6000602084013e611cfa565b606091505b508051919350915015801590611d3a57508051600160e01b636745782b029060208084019190811015611d2c57600080fd5b50516001600160e01b031916145b15611d4a57600192505050611d51565b6000925050505b949350505050565b606081611d8157506040805180820190915260018152600160fc1b6003026020820152610827565b8160005b8115611d9957600101600a82049150611d85565b6060816040519080825280601f01601f191660200182016040528015611dc6576020820181803883390190505b509050815b8515611e1e57600019016000600a8704600a028703603001905060008160f81b905080848481518110611dfa57fe5b60200101906001600160f81b031916908160001a905350600a880497505050611dcb565b50949350505050565b6001600160a01b038116611e6f57604051600160e51b62461bcd0281526004018080602001828103825260268152602001806126c96026913960400191505060405180910390fd5b600080546040516001600160a01b03808516939216917f8be0079c531659141344cd1fd0a4f28419497f9722a3daafe3b4186f6b6457e091a3600080546001600160a01b0319166001600160a01b0392909216919091179055565b6000611ed58261155d565b611f1357604051600160e51b62461bcd02815260040180806020018281038252602b815260200180612935602b913960400191505060405180910390fd5b6000611f1e83610d9a565b9050806001600160a01b0316846001600160a01b03161480611f595750836001600160a01b0316611f4e846108c3565b6001600160a01b0316145b80611d515750611d5181856114dc565b611f74838383612235565b611f7e838261237f565b6109e982826120bf565b6001600160a01b038216611fe65760408051600160e51b62461bcd02815260206004820152601f60248201527f4b495031373a206d696e7420746f20746865207a65726f206164647265737300604482015290519081900360640190fd5b611fef8161155d565b156120445760408051600160e51b62461bcd02815260206004820152601b60248201527f4b495031373a20746f6b656e20616c7265616479206d696e7465640000000000604482015290519081900360640190fd5b600081815260026020908152604080832080546001600160a01b0319166001600160a01b03871690811790915583526004909152902061208390612474565b60405181906001600160a01b038416906000907fddf252ad1be2c89b69c2b068fc378daa952ba7f163c4a11628f55a4df523b3ef908290a45050565b6001600160a01b0390911660009081526006602081815260408084208054868652600784529185208290559282526001810183559183529091200155565b600880546000838152600960205260408120829055600182018355919091527ff3f7a9fe364faab93b216da50a3214154f22a0a2b415b23a84c8169e8b636ee30155565b61214b8282611717565b61218957604051600160e51b62461bcd02815260040180806020018281038252602181526020018061276c6021913960400191505060405180910390fd5b6001600160a01b0316600090815260209190915260409020805460ff19169055565b6121b58282611717565b1561220a5760408051600160e51b62461bcd02815260206004820152601f60248201527f526f6c65733a206163636f756e7420616c72656164792068617320726f6c6500604482015290519081900360640190fd5b6001600160a01b0316600090815260209190915260409020805460ff19166001179055565b3b151590565b826001600160a01b031661224882610d9a565b6001600160a01b03161461229057604051600160e51b62461bcd0281526004018080602001828103825260288152602001806128806028913960400191505060405180910390fd5b6001600160a01b0382166122d857604051600160e51b62461bcd0281526004018080602001828103825260238152602001806126ef6023913960400191505060405180910390fd5b6122e18161247d565b6001600160a01b0383166000908152600460205260409020612302906124b8565b6001600160a01b038216600090815260046020526040902061232390612474565b60008181526002602052604080822080546001600160a01b0319166001600160a01b0386811691821790925591518493918716917fddf252ad1be2c89b69c2b068fc378daa952ba7f163c4a11628f55a4df523b3ef91a4505050565b6001600160a01b0382166000908152600660205260408120546123a990600163ffffffff6124cf16565b600083815260076020526040902054909150808214612444576001600160a01b03841660009081526006602052604081208054849081106123e657fe5b906000526020600020015490508060066000876001600160a01b03166001600160a01b03168152602001908152602001600020838154811061242457fe5b600091825260208083209091019290925591825260079052604090208190555b6001600160a01b038416600090815260066020526040902080549061246d906000198301612630565b5050505050565b80546001019055565b6000818152600360205260409020546001600160a01b031615610fa657600090815260036020526040902080546001600160a01b0319169055565b80546124cb90600163ffffffff6124cf16565b9055565b600061251183836040518060400160405280601e81526020017f536166654d6174683a207375627472616374696f6e206f766572666c6f770000815250612518565b9392505050565b600081848411156125aa57604051600160e51b62461bcd0281526004018080602001828103825283818151815260200191508051906020019080838360005b8381101561256f578181015183820152602001612557565b50505050905090810190601f16801561259c5780820380516001836020036101000a031916815260200191505b509250505060405180910390fd5b505050900390565b828054600181600116156101000203166002900490600052602060002090601f016020900481019282601f106125f357805160ff1916838001178555612620565b82800160010185558215612620579182015b82811115612620578251825591602001919060010190612605565b5061262c929150612650565b5090565b8154818355818111156109e9576000838152602090206109e99181019083015b6108c091905b8082111561262c576000815560010161265656fe4b495031374d657461646174613a2055524920717565727920666f72206e6f6e6578697374656e7420746f6b656e506175736572526f6c653a2063616c6c657220646f6573206e6f742068617665207468652050617573657220726f6c654f776e61626c653a206e6577206f776e657220697320746865207a65726f20616464726573734b495031373a207472616e7366657220746f20746865207a65726f20616464726573734b49503137456e756d657261626c653a206f776e657220696e646578206f7574206f6620626f756e64734d696e746572526f6c653a2063616c6c657220646f6573206e6f74206861766520746865204d696e74657220726f6c65526f6c65733a206163636f756e7420646f6573206e6f74206861766520726f6c654b495031373a206f776e657220717565727920666f72206e6f6e6578697374656e7420746f6b656e4b495031373a207472616e736665722063616c6c6572206973206e6f74206f776e6572206e6f7220617070726f7665644f776e61626c653a2063616c6c6572206973206e6f7420746865206f776e6572526f6c65733a206163636f756e7420697320746865207a65726f20616464726573734b495031373a207472616e7366657220746f206e6f6e204b49503137526563656976657220696d706c656d656e7465724b495031373a2062616c616e636520717565727920666f7220746865207a65726f20616464726573734b495031373a207472616e73666572206f6620746f6b656e2074686174206973206e6f74206f776e4b49503137456e756d657261626c653a20676c6f62616c20696e646578206f7574206f6620626f756e64734b495031373a20617070726f76656420717565727920666f72206e6f6e6578697374656e7420746f6b656e4b495031373a20617070726f76652063616c6c6572206973206e6f74206f776e6572206e6f7220617070726f76656420666f7220616c6c4b495031373a206f70657261746f7220717565727920666f72206e6f6e6578697374656e7420746f6b656ea165627a7a7230582010f81f038d809f93982e2b902dc4865f0857f3e1a3e533bce3997beee39091ac002968747470733a2f2f6170692e6b6c6179636869636b656e2e636f6d2f76322f6d6574612f526f6c65733a206163636f756e7420697320746865207a65726f2061646472657373",
  "source": "pragma solidity ^0.5.6;\r\n\r\nimport \"./token/KIP17/KIP17Full.sol\";\r\nimport \"./token/KIP17/KIP17Mintable.sol\";\r\nimport \"./token/KIP17/KIP17Pausable.sol\";\r\nimport \"./ownership/Ownable.sol\";\r\n\r\ncontract Chickiz is\r\n    Ownable,\r\n    KIP17Full(\"Chickiz\", \"CHICKI\"),\r\n    KIP17Mintable,\r\n    KIP17Pausable\r\n{\r\n    string public baseURI = \"https://api.klaychicken.com/v2/meta/\";\r\n    string public baseURIBack = \".json\";\r\n\r\n    function uint2str(uint256 _i)\r\n        internal\r\n        pure\r\n        returns (string memory _uintAsString)\r\n    {\r\n        if (_i == 0) {\r\n            return \"0\";\r\n        }\r\n        uint256 j = _i;\r\n        uint256 len;\r\n        while (j != 0) {\r\n            len++;\r\n            j /= 10;\r\n        }\r\n        bytes memory bstr = new bytes(len);\r\n        uint256 k = len;\r\n        while (_i != 0) {\r\n            k = k - 1;\r\n            uint8 temp = (48 + uint8(_i - (_i / 10) * 10));\r\n            bytes1 b1 = bytes1(temp);\r\n            bstr[k] = b1;\r\n            _i /= 10;\r\n        }\r\n        return string(bstr);\r\n    }\r\n\r\n    function tokenURI(uint256 tokenId) public view returns (string memory) {\r\n        require(\r\n            _exists(tokenId),\r\n            \"KIP17Metadata: URI query for nonexistent token\"\r\n        );\r\n\r\n        string memory _baseURI = baseURI;\r\n        string memory idstr;\r\n        string memory _baseURIBack = baseURIBack;\r\n\r\n        uint256 temp = tokenId;\r\n        idstr = uint2str(temp);\r\n\r\n        return\r\n            bytes(baseURI).length > 0\r\n                ? string(abi.encodePacked(_baseURI, idstr, _baseURIBack))\r\n                : \"\";\r\n    }\r\n\r\n    function setBaseURI(string memory _baseURI) public onlyOwner {\r\n        baseURI = _baseURI;\r\n    }\r\n\r\n    function setBaseURIBack(string memory _baseURIBack) public onlyOwner {\r\n        baseURIBack = _baseURIBack;\r\n    }\r\n}\r\n",
  "sourcePath": "C:\\klayContract\\KCUtilsV2\\contracts\\Chickiz.sol",
  "compiler": {
    "name": "solc",
    "version": "0.5.6+commit.b259423e.Emscripten.clang"
  },
  "schemaVersion": "3.3.3",
  "updatedAt": "2022-01-20T06:00:42.770Z",
  "devdoc": {
    "methods": {
      "balanceOf(address)": {
        "details": "Gets the balance of the specified address.",
        "params": {
          "owner": "address to query the balance of"
        },
        "return": "uint256 representing the amount owned by the passed address"
      },
      "getApproved(uint256)": {
        "details": "Gets the approved address for a token ID, or zero if no address set Reverts if the token ID does not exist.",
        "params": {
          "tokenId": "uint256 ID of the token to query the approval of"
        },
        "return": "address currently approved for the given token ID"
      },
      "isApprovedForAll(address,address)": {
        "details": "Tells whether an operator is approved by a given owner.",
        "params": {
          "operator": "operator address which you want to query the approval of",
          "owner": "owner address which you want to query the approval of"
        },
        "return": "bool whether the given operator is approved by the given owner"
      },
      "isOwner()": {
        "details": "Returns true if the caller is the current owner."
      },
      "mint(address,uint256)": {
        "details": "Function to mint tokens.",
        "params": {
          "to": "The address that will receive the minted tokens.",
          "tokenId": "The token id to mint."
        },
        "return": "A boolean that indicates if the operation was successful."
      },
      "name()": {
        "details": "Gets the token name.",
        "return": "string representing the token name"
      },
      "owner()": {
        "details": "Returns the address of the current owner."
      },
      "ownerOf(uint256)": {
        "details": "Gets the owner of the specified token ID.",
        "params": {
          "tokenId": "uint256 ID of the token to query the owner of"
        },
        "return": "address currently marked as the owner of the given token ID"
      },
      "pause()": {
        "details": "Called by a pauser to pause, triggers stopped state."
      },
      "paused()": {
        "details": "Returns true if the contract is paused, and false otherwise."
      },
      "renounceOwnership()": {
        "details": "Leaves the contract without owner. It will not be possible to call `onlyOwner` functions anymore. Can only be called by the current owner.     * > Note: Renouncing ownership will leave the contract without an owner, thereby removing any functionality that is only available to the owner."
      },
      "safeTransferFrom(address,address,uint256)": {
        "details": "Safely transfers the ownership of a given token ID to another address If the target address is a contract, it must implement `onKIP17Received`, which is called upon a safe transfer, and return the magic value `bytes4(keccak256(\"onKIP17Received(address,address,uint256,bytes)\"))`; otherwise, the transfer is reverted. Requires the msg.sender to be the owner, approved, or operator",
        "params": {
          "from": "current owner of the token",
          "to": "address to receive the ownership of the given token ID",
          "tokenId": "uint256 ID of the token to be transferred"
        }
      },
      "safeTransferFrom(address,address,uint256,bytes)": {
        "details": "Safely transfers the ownership of a given token ID to another address If the target address is a contract, it must implement `onKIP17Received`, which is called upon a safe transfer, and return the magic value `bytes4(keccak256(\"onKIP17Received(address,address,uint256,bytes)\"))`; otherwise, the transfer is reverted. Requires the msg.sender to be the owner, approved, or operator",
        "params": {
          "_data": "bytes data to send along with a safe transfer check",
          "from": "current owner of the token",
          "to": "address to receive the ownership of the given token ID",
          "tokenId": "uint256 ID of the token to be transferred"
        }
      },
      "supportsInterface(bytes4)": {
        "details": "See `IKIP13.supportsInterface`.     * Time complexity O(1), guaranteed to always use less than 30 000 gas."
      },
      "symbol()": {
        "details": "Gets the token symbol.",
        "return": "string representing the token symbol"
      },
      "tokenByIndex(uint256)": {
        "details": "Gets the token ID at a given index of all the tokens in this contract Reverts if the index is greater or equal to the total number of tokens.",
        "params": {
          "index": "uint256 representing the index to be accessed of the tokens list"
        },
        "return": "uint256 token ID at the given index of the tokens list"
      },
      "tokenOfOwnerByIndex(address,uint256)": {
        "details": "Gets the token ID at a given index of the tokens list of the requested owner.",
        "params": {
          "index": "uint256 representing the index to be accessed of the requested tokens list",
          "owner": "address owning the tokens list to be accessed"
        },
        "return": "uint256 token ID at the given index of the tokens list owned by the requested address"
      },
      "totalSupply()": {
        "details": "Gets the total amount of tokens stored by the contract.",
        "return": "uint256 representing the total amount of tokens"
      },
      "transferOwnership(address)": {
        "details": "Transfers ownership of the contract to a new account (`newOwner`). Can only be called by the current owner."
      },
      "unpause()": {
        "details": "Called by a pauser to unpause, returns to normal state."
      }
    }
  },
  "userdoc": {
    "methods": {}
  }
}