{
  "contractName": "Chick",
  "abi": [
    {
      "constant": true,
      "inputs": [
        {
          "name": "interfaceId",
          "type": "bytes4"
        }
      ],
      "name": "supportsInterface",
      "outputs": [
        {
          "name": "",
          "type": "bool"
        }
      ],
      "payable": false,
      "stateMutability": "view",
      "type": "function"
    },
    {
      "constant": true,
      "inputs": [],
      "name": "name",
      "outputs": [
        {
          "name": "",
          "type": "string"
        }
      ],
      "payable": false,
      "stateMutability": "view",
      "type": "function"
    },
    {
      "constant": false,
      "inputs": [
        {
          "name": "spender",
          "type": "address"
        },
        {
          "name": "value",
          "type": "uint256"
        }
      ],
      "name": "approve",
      "outputs": [
        {
          "name": "",
          "type": "bool"
        }
      ],
      "payable": false,
      "stateMutability": "nonpayable",
      "type": "function"
    },
    {
      "constant": true,
      "inputs": [],
      "name": "totalSupply",
      "outputs": [
        {
          "name": "",
          "type": "uint256"
        }
      ],
      "payable": false,
      "stateMutability": "view",
      "type": "function"
    },
    {
      "constant": false,
      "inputs": [
        {
          "name": "from",
          "type": "address"
        },
        {
          "name": "to",
          "type": "address"
        },
        {
          "name": "value",
          "type": "uint256"
        }
      ],
      "name": "transferFrom",
      "outputs": [
        {
          "name": "",
          "type": "bool"
        }
      ],
      "payable": false,
      "stateMutability": "nonpayable",
      "type": "function"
    },
    {
      "constant": true,
      "inputs": [],
      "name": "decimals",
      "outputs": [
        {
          "name": "",
          "type": "uint8"
        }
      ],
      "payable": false,
      "stateMutability": "view",
      "type": "function"
    },
    {
      "constant": false,
      "inputs": [],
      "name": "unpause",
      "outputs": [],
      "payable": false,
      "stateMutability": "nonpayable",
      "type": "function"
    },
    {
      "constant": false,
      "inputs": [
        {
          "name": "recipient",
          "type": "address"
        },
        {
          "name": "amount",
          "type": "uint256"
        }
      ],
      "name": "safeTransfer",
      "outputs": [],
      "payable": false,
      "stateMutability": "nonpayable",
      "type": "function"
    },
    {
      "constant": false,
      "inputs": [
        {
          "name": "sender",
          "type": "address"
        },
        {
          "name": "recipient",
          "type": "address"
        },
        {
          "name": "amount",
          "type": "uint256"
        }
      ],
      "name": "safeTransferFrom",
      "outputs": [],
      "payable": false,
      "stateMutability": "nonpayable",
      "type": "function"
    },
    {
      "constant": false,
      "inputs": [
        {
          "name": "amount",
          "type": "uint256"
        }
      ],
      "name": "burn",
      "outputs": [],
      "payable": false,
      "stateMutability": "nonpayable",
      "type": "function"
    },
    {
      "constant": true,
      "inputs": [
        {
          "name": "account",
          "type": "address"
        }
      ],
      "name": "isPauser",
      "outputs": [
        {
          "name": "",
          "type": "bool"
        }
      ],
      "payable": false,
      "stateMutability": "view",
      "type": "function"
    },
    {
      "constant": true,
      "inputs": [],
      "name": "paused",
      "outputs": [
        {
          "name": "",
          "type": "bool"
        }
      ],
      "payable": false,
      "stateMutability": "view",
      "type": "function"
    },
    {
      "constant": false,
      "inputs": [],
      "name": "renouncePauser",
      "outputs": [],
      "payable": false,
      "stateMutability": "nonpayable",
      "type": "function"
    },
    {
      "constant": true,
      "inputs": [
        {
          "name": "account",
          "type": "address"
        }
      ],
      "name": "balanceOf",
      "outputs": [
        {
          "name": "",
          "type": "uint256"
        }
      ],
      "payable": false,
      "stateMutability": "view",
      "type": "function"
    },
    {
      "constant": false,
      "inputs": [],
      "name": "renounceOwnership",
      "outputs": [],
      "payable": false,
      "stateMutability": "nonpayable",
      "type": "function"
    },
    {
      "constant": false,
      "inputs": [
        {
          "name": "account",
          "type": "address"
        },
        {
          "name": "amount",
          "type": "uint256"
        }
      ],
      "name": "burnFrom",
      "outputs": [],
      "payable": false,
      "stateMutability": "nonpayable",
      "type": "function"
    },
    {
      "constant": false,
      "inputs": [
        {
          "name": "account",
          "type": "address"
        }
      ],
      "name": "addPauser",
      "outputs": [],
      "payable": false,
      "stateMutability": "nonpayable",
      "type": "function"
    },
    {
      "constant": false,
      "inputs": [],
      "name": "pause",
      "outputs": [],
      "payable": false,
      "stateMutability": "nonpayable",
      "type": "function"
    },
    {
      "constant": true,
      "inputs": [],
      "name": "owner",
      "outputs": [
        {
          "name": "",
          "type": "address"
        }
      ],
      "payable": false,
      "stateMutability": "view",
      "type": "function"
    },
    {
      "constant": true,
      "inputs": [],
      "name": "isOwner",
      "outputs": [
        {
          "name": "",
          "type": "bool"
        }
      ],
      "payable": false,
      "stateMutability": "view",
      "type": "function"
    },
    {
      "constant": true,
      "inputs": [],
      "name": "symbol",
      "outputs": [
        {
          "name": "",
          "type": "string"
        }
      ],
      "payable": false,
      "stateMutability": "view",
      "type": "function"
    },
    {
      "constant": false,
      "inputs": [
        {
          "name": "to",
          "type": "address"
        },
        {
          "name": "value",
          "type": "uint256"
        }
      ],
      "name": "transfer",
      "outputs": [
        {
          "name": "",
          "type": "bool"
        }
      ],
      "payable": false,
      "stateMutability": "nonpayable",
      "type": "function"
    },
    {
      "constant": true,
      "inputs": [
        {
          "name": "",
          "type": "address"
        }
      ],
      "name": "frozenAccount",
      "outputs": [
        {
          "name": "",
          "type": "bool"
        }
      ],
      "payable": false,
      "stateMutability": "view",
      "type": "function"
    },
    {
      "constant": false,
      "inputs": [
        {
          "name": "sender",
          "type": "address"
        },
        {
          "name": "recipient",
          "type": "address"
        },
        {
          "name": "amount",
          "type": "uint256"
        },
        {
          "name": "data",
          "type": "bytes"
        }
      ],
      "name": "safeTransferFrom",
      "outputs": [],
      "payable": false,
      "stateMutability": "nonpayable",
      "type": "function"
    },
    {
      "constant": true,
      "inputs": [
        {
          "name": "owner",
          "type": "address"
        },
        {
          "name": "spender",
          "type": "address"
        }
      ],
      "name": "allowance",
      "outputs": [
        {
          "name": "",
          "type": "uint256"
        }
      ],
      "payable": false,
      "stateMutability": "view",
      "type": "function"
    },
    {
      "constant": false,
      "inputs": [
        {
          "name": "target",
          "type": "address"
        },
        {
          "name": "freeze",
          "type": "bool"
        }
      ],
      "name": "freezeAccount",
      "outputs": [],
      "payable": false,
      "stateMutability": "nonpayable",
      "type": "function"
    },
    {
      "constant": false,
      "inputs": [
        {
          "name": "recipient",
          "type": "address"
        },
        {
          "name": "amount",
          "type": "uint256"
        },
        {
          "name": "data",
          "type": "bytes"
        }
      ],
      "name": "safeTransfer",
      "outputs": [],
      "payable": false,
      "stateMutability": "nonpayable",
      "type": "function"
    },
    {
      "constant": false,
      "inputs": [
        {
          "name": "newOwner",
          "type": "address"
        }
      ],
      "name": "transferOwnership",
      "outputs": [],
      "payable": false,
      "stateMutability": "nonpayable",
      "type": "function"
    },
    {
      "inputs": [],
      "payable": false,
      "stateMutability": "nonpayable",
      "type": "constructor"
    },
    {
      "anonymous": false,
      "inputs": [
        {
          "indexed": false,
          "name": "target",
          "type": "address"
        },
        {
          "indexed": false,
          "name": "frozen",
          "type": "bool"
        }
      ],
      "name": "FrozenAccount",
      "type": "event"
    },
    {
      "anonymous": false,
      "inputs": [
        {
          "indexed": true,
          "name": "previousOwner",
          "type": "address"
        },
        {
          "indexed": true,
          "name": "newOwner",
          "type": "address"
        }
      ],
      "name": "OwnershipTransferred",
      "type": "event"
    },
    {
      "anonymous": false,
      "inputs": [
        {
          "indexed": false,
          "name": "account",
          "type": "address"
        }
      ],
      "name": "Paused",
      "type": "event"
    },
    {
      "anonymous": false,
      "inputs": [
        {
          "indexed": false,
          "name": "account",
          "type": "address"
        }
      ],
      "name": "Unpaused",
      "type": "event"
    },
    {
      "anonymous": false,
      "inputs": [
        {
          "indexed": true,
          "name": "account",
          "type": "address"
        }
      ],
      "name": "PauserAdded",
      "type": "event"
    },
    {
      "anonymous": false,
      "inputs": [
        {
          "indexed": true,
          "name": "account",
          "type": "address"
        }
      ],
      "name": "PauserRemoved",
      "type": "event"
    },
    {
      "anonymous": false,
      "inputs": [
        {
          "indexed": true,
          "name": "from",
          "type": "address"
        },
        {
          "indexed": true,
          "name": "to",
          "type": "address"
        },
        {
          "indexed": false,
          "name": "value",
          "type": "uint256"
        }
      ],
      "name": "Transfer",
      "type": "event"
    },
    {
      "anonymous": false,
      "inputs": [
        {
          "indexed": true,
          "name": "owner",
          "type": "address"
        },
        {
          "indexed": true,
          "name": "spender",
          "type": "address"
        },
        {
          "indexed": false,
          "name": "value",
          "type": "uint256"
        }
      ],
      "name": "Approval",
      "type": "event"
    }
  ],
  "bytecode": "0x60806040523480156200001157600080fd5b506040518060400160405280600681526020017f535345454f4f00000000000000000000000000000000000000000000000000008152506040518060400160405280600381526020017f53454f00000000000000000000000000000000000000000000000000000000008152506012620000986301ffc9a760e01b620001ff60201b60201c565b620000b0636578737160e01b620001ff60201b60201c565b620000c8633b5a0bf860e01b620001ff60201b60201c565b620000d933620002ce60201b60201c565b6005805460ff19169055620001157f4d5507ff00000000000000000000000000000000000000000000000000000000620001ff602090811b901c565b82516200012a906006906020860190620005e2565b50815162000140906007906020850190620005e2565b506008805460ff191660ff8316179055620001827fa219a02500000000000000000000000000000000000000000000000000000000620001ff602090811b901c565b505060088054610100338102610100600160a81b0319909216919091179182905560405191046001600160a01b031691506000907f8be0079c531659141344cd1fd0a4f28419497f9722a3daafe3b4186f6b6457e0908290a3620001f9336b033b2e3c9fd0803ce80000006200032060201b60201c565b62000687565b7fffffffff0000000000000000000000000000000000000000000000000000000080821614156200029157604080517f08c379a000000000000000000000000000000000000000000000000000000000815260206004820152601b60248201527f4b495031333a20696e76616c696420696e746572666163652069640000000000604482015290519081900360640190fd5b7fffffffff00000000000000000000000000000000000000000000000000000000166000908152602081905260409020805460ff19166001179055565b620002e98160046200043f60201b620016261790919060201c565b6040516001600160a01b038216907f6719d08c1888103bea251a4ed56406bd0c3e69723c8a1686e017e7bbe159b6f890600090a250565b6001600160a01b0382166200039657604080517f08c379a000000000000000000000000000000000000000000000000000000000815260206004820152601e60248201527f4b4950373a206d696e7420746f20746865207a65726f20616464726573730000604482015290519081900360640190fd5b620003b281600354620004e360201b620018a11790919060201c565b6003556001600160a01b038216600090815260016020908152604090912054620003e7918390620018a1620004e3821b17901c565b6001600160a01b03831660008181526001602090815260408083209490945583518581529351929391927fddf252ad1be2c89b69c2b068fc378daa952ba7f163c4a11628f55a4df523b3ef9281900390910190a35050565b6200045182826200055f60201b60201c565b15620004be57604080517f08c379a000000000000000000000000000000000000000000000000000000000815260206004820152601f60248201527f526f6c65733a206163636f756e7420616c72656164792068617320726f6c6500604482015290519081900360640190fd5b6001600160a01b0316600090815260209190915260409020805460ff19166001179055565b6000828201838110156200055857604080517f08c379a000000000000000000000000000000000000000000000000000000000815260206004820152601b60248201527f536166654d6174683a206164646974696f6e206f766572666c6f770000000000604482015290519081900360640190fd5b9392505050565b60006001600160a01b038216620005c2576040517f08c379a0000000000000000000000000000000000000000000000000000000008152600401808060200182810382526022815260200180620021126022913960400191505060405180910390fd5b506001600160a01b03166000908152602091909152604090205460ff1690565b828054600181600116156101000203166002900490600052602060002090601f016020900481019282601f106200062557805160ff191683800117855562000655565b8280016001018555821562000655579182015b828111156200065557825182559160200191906001019062000638565b506200066392915062000667565b5090565b6200068491905b808211156200066357600081556001016200066e565b90565b611a7b80620006976000396000f3fe608060405234801561001057600080fd5b50600436106101c45760003560e01c8063715018a6116100f9578063a9059cbb11610097578063dd62ed3e11610071578063dd62ed3e146105ae578063e724529c146105dc578063eb7955491461060a578063f2fde38b146106c5576101c4565b8063a9059cbb14610496578063b414d4b6146104c2578063b88d4fde146104e8576101c4565b80638456cb59116100d35780638456cb591461045a5780638da5cb5b146104625780638f32d59b1461048657806395d89b411461048e576101c4565b8063715018a61461040057806379cc67901461040857806382dc1ec414610434576101c4565b8063423f6cef1161016657806346fbf68e1161014057806346fbf68e146103a45780635c975abb146103ca5780636ef8d66d146103d257806370a08231146103da576101c4565b8063423f6cef1461032557806342842e0e1461035157806342966c6814610387576101c4565b806318160ddd116101a257806318160ddd146102ad57806323b872dd146102c7578063313ce567146102fd5780633f4ba83a1461031b576101c4565b806301ffc9a7146101c957806306fdde0314610204578063095ea7b314610281575b600080fd5b6101f0600480360360208110156101df57600080fd5b50356001600160e01b0319166106eb565b604080519115158252519081900360200190f35b61020c61070a565b6040805160208082528351818301528351919283929083019185019080838360005b8381101561024657818101518382015260200161022e565b50505050905090810190601f1680156102735780820380516001836020036101000a031916815260200191505b509250505060405180910390f35b6101f06004803603604081101561029757600080fd5b506001600160a01b0381351690602001356107a0565b6102b561080d565b60408051918252519081900360200190f35b6101f0600480360360608110156102dd57600080fd5b506001600160a01b03813581169160208101359091169060400135610813565b610305610882565b6040805160ff9092168252519081900360200190f35b61032361088b565b005b6103236004803603604081101561033b57600080fd5b506001600160a01b03813516906020013561096b565b6103236004803603606081101561036757600080fd5b506001600160a01b03813581169160208101359091169060400135610989565b6103236004803603602081101561039d57600080fd5b50356109a9565b6101f0600480360360208110156103ba57600080fd5b50356001600160a01b03166109b6565b6101f06109cf565b6103236109d8565b6102b5600480360360208110156103f057600080fd5b50356001600160a01b03166109e3565b6103236109fe565b6103236004803603604081101561041e57600080fd5b506001600160a01b038135169060200135610aaa565b6103236004803603602081101561044a57600080fd5b50356001600160a01b0316610ab4565b610323610b04565b61046a610bde565b604080516001600160a01b039092168252519081900360200190f35b6101f0610bf2565b61020c610c08565b6101f0600480360360408110156104ac57600080fd5b506001600160a01b038135169060200135610c69565b6101f0600480360360208110156104d857600080fd5b50356001600160a01b0316610ccf565b610323600480360360808110156104fe57600080fd5b6001600160a01b0382358116926020810135909116916040820135919081019060808101606082013564010000000081111561053957600080fd5b82018360208201111561054b57600080fd5b8035906020019184600183028401116401000000008311171561056d57600080fd5b91908080601f016020809104026020016040519081016040528093929190818152602001838380828437600092019190915250929550610ce4945050505050565b6102b5600480360360408110156105c457600080fd5b506001600160a01b0381358116916020013516610d40565b610323600480360360408110156105f257600080fd5b506001600160a01b0381351690602001351515610d6b565b6103236004803603606081101561062057600080fd5b6001600160a01b038235169160208101359181019060608101604082013564010000000081111561065057600080fd5b82018360208201111561066257600080fd5b8035906020019184600183028401116401000000008311171561068457600080fd5b91908080601f016020809104026020016040519081016040528093929190818152602001838380828437600092019190915250929550610e2b945050505050565b610323600480360360208110156106db57600080fd5b50356001600160a01b0316610e80565b6001600160e01b03191660009081526020819052604090205460ff1690565b60068054604080516020601f60026000196101006001881615020190951694909404938401819004810282018101909252828152606093909290918301828280156107965780601f1061076b57610100808354040283529160200191610796565b820191906000526020600020905b81548152906001019060200180831161077957829003601f168201915b5050505050905090565b3360009081526009602052604081205460ff16156107fc5760408051600160e51b62461bcd02815260206004820152600e6024820152600160921b6d199c9bde995b881858d8dbdd5b9d02604482015290519081900360640190fd5b6108068383610ee5565b9392505050565b60035490565b3360009081526009602052604081205460ff161561086f5760408051600160e51b62461bcd02815260206004820152600e6024820152600160921b6d199c9bde995b881858d8dbdd5b9d02604482015290519081900360640190fd5b61087a848484610f43565b949350505050565b60085460ff1690565b610894336109b6565b6108d257604051600160e51b62461bcd02815260040180806020018281038252603081526020018061194e6030913960400191505060405180910390fd5b60055460ff1661092c5760408051600160e51b62461bcd02815260206004820152601460248201527f5061757361626c653a206e6f7420706175736564000000000000000000000000604482015290519081900360640190fd5b6005805460ff191690556040805133815290517f5db9ee0a495bf2e6ff9c91a7834c1ba4fdd244a5e8aa4e537bd38aeae4b073aa9181900360200190a1565b610985828260405180602001604052806000815250610e2b565b5050565b6109a483838360405180602001604052806000815250610ce4565b505050565b6109b33382610fa2565b50565b60006109c960048363ffffffff61109616565b92915050565b60055460ff1690565b6109e133611100565b565b6001600160a01b031660009081526001602052604090205490565b610a06610bf2565b610a5a5760408051600160e51b62461bcd02815260206004820181905260248201527f4f776e61626c653a2063616c6c6572206973206e6f7420746865206f776e6572604482015290519081900360640190fd5b60085460405160009161010090046001600160a01b0316907f8be0079c531659141344cd1fd0a4f28419497f9722a3daafe3b4186f6b6457e0908390a360088054610100600160a81b0319169055565b6109858282611148565b610abd336109b6565b610afb57604051600160e51b62461bcd02815260040180806020018281038252603081526020018061194e6030913960400191505060405180910390fd5b6109b381611192565b610b0d336109b6565b610b4b57604051600160e51b62461bcd02815260040180806020018281038252603081526020018061194e6030913960400191505060405180910390fd5b60055460ff1615610b9c5760408051600160e51b62461bcd0281526020600482015260106024820152600160821b6f14185d5cd8589b194e881c185d5cd95902604482015290519081900360640190fd5b6005805460ff191660011790556040805133815290517f62e78cea01bee320cd4e420270b5ea74000d11b0c9f74754ebdbfc544b05a2589181900360200190a1565b60085461010090046001600160a01b031690565b60085461010090046001600160a01b0316331490565b60078054604080516020601f60026000196101006001881615020190951694909404938401819004810282018101909252828152606093909290918301828280156107965780601f1061076b57610100808354040283529160200191610796565b3360009081526009602052604081205460ff1615610cc55760408051600160e51b62461bcd02815260206004820152600e6024820152600160921b6d199c9bde995b881858d8dbdd5b9d02604482015290519081900360640190fd5b61080683836111da565b60096020526000908152604090205460ff1681565b610cef848484610813565b50610cfc84848484611238565b610d3a57604051600160e51b62461bcd02815260040180806020018281038252602e815260200180611920602e913960400191505060405180910390fd5b50505050565b6001600160a01b03918216600090815260026020908152604080832093909416825291909152205490565b610d73610bf2565b610dc75760408051600160e51b62461bcd02815260206004820181905260248201527f4f776e61626c653a2063616c6c6572206973206e6f7420746865206f776e6572604482015290519081900360640190fd5b6001600160a01b038216600081815260096020908152604091829020805460ff191685151590811790915582519384529083015280517f67a17b8db8ff8fa7cff69c2328bf8a35f9be2c88abeea30be900fc28eece28ed9281900390910190a15050565b610e358383610c69565b50610e4233848484611238565b6109a457604051600160e51b62461bcd02815260040180806020018281038252602e815260200180611920602e913960400191505060405180910390fd5b610e88610bf2565b610edc5760408051600160e51b62461bcd02815260206004820181905260248201527f4f776e61626c653a2063616c6c6572206973206e6f7420746865206f776e6572604482015290519081900360640190fd5b6109b381611371565b60055460009060ff1615610f395760408051600160e51b62461bcd0281526020600482015260106024820152600160821b6f14185d5cd8589b194e881c185d5cd95902604482015290519081900360640190fd5b6108068383611420565b60055460009060ff1615610f975760408051600160e51b62461bcd0281526020600482015260106024820152600160821b6f14185d5cd8589b194e881c185d5cd95902604482015290519081900360640190fd5b61087a848484611436565b6001600160a01b0382166110005760408051600160e51b62461bcd02815260206004820181905260248201527f4b4950373a206275726e2066726f6d20746865207a65726f2061646472657373604482015290519081900360640190fd5b600354611013908263ffffffff61148816565b6003556001600160a01b03821660009081526001602052604090205461103f908263ffffffff61148816565b6001600160a01b0383166000818152600160209081526040808320949094558351858152935191937fddf252ad1be2c89b69c2b068fc378daa952ba7f163c4a11628f55a4df523b3ef929081900390910190a35050565b60006001600160a01b0382166110e057604051600160e51b62461bcd028152600401808060200182810382526022815260200180611a0b6022913960400191505060405180910390fd5b506001600160a01b03166000908152602091909152604090205460ff1690565b61111160048263ffffffff6114ca16565b6040516001600160a01b038216907fcd265ebaf09df2871cc7bd4133404a235ba12eff2041bb89d9c714a2621c7c7e90600090a250565b6111528282610fa2565b6001600160a01b03821660009081526002602090815260408083203380855292529091205461098591849161118d908563ffffffff61148816565b611534565b6111a360048263ffffffff61162616565b6040516001600160a01b038216907f6719d08c1888103bea251a4ed56406bd0c3e69723c8a1686e017e7bbe159b6f890600090a250565b60055460009060ff161561122e5760408051600160e51b62461bcd0281526020600482015260106024820152600160821b6f14185d5cd8589b194e881c185d5cd95902604482015290519081900360640190fd5b61080683836116aa565b600061124c846001600160a01b03166116b7565b6112585750600161087a565b604051600160e11b634e8c461102815233600482018181526001600160a01b03888116602485015260448401879052608060648501908152865160848601528651600095928a1694639d188c229490938c938b938b939260a4019060208501908083838e5b838110156112d55781810151838201526020016112bd565b50505050905090810190601f1680156113025780820380516001836020036101000a031916815260200191505b5095505050505050602060405180830381600087803b15801561132457600080fd5b505af1158015611338573d6000803e3d6000fd5b505050506040513d602081101561134e57600080fd5b50516001600160e01b031916600160e11b634e8c46110214915050949350505050565b6001600160a01b0381166113b957604051600160e51b62461bcd02815260040180806020018281038252602681526020018061197e6026913960400191505060405180910390fd5b6008546040516001600160a01b0380841692610100900416907f8be0079c531659141344cd1fd0a4f28419497f9722a3daafe3b4186f6b6457e090600090a3600880546001600160a01b0390921661010002610100600160a81b0319909216919091179055565b600061142d338484611534565b50600192915050565b60006114438484846116bd565b6001600160a01b03841660009081526002602090815260408083203380855292529091205461147e91869161118d908663ffffffff61148816565b5060019392505050565b600061080683836040518060400160405280601e81526020017f536166654d6174683a207375627472616374696f6e206f766572666c6f770000815250611807565b6114d48282611096565b61151257604051600160e51b62461bcd0281526004018080602001828103825260218152602001806119c66021913960400191505060405180910390fd5b6001600160a01b0316600090815260209190915260409020805460ff19169055565b6001600160a01b03831661157c57604051600160e51b62461bcd028152600401808060200182810382526023815260200180611a2d6023913960400191505060405180910390fd5b6001600160a01b0382166115c457604051600160e51b62461bcd0281526004018080602001828103825260218152602001806118ff6021913960400191505060405180910390fd5b6001600160a01b03808416600081815260026020908152604080832094871680845294825291829020859055815185815291517f8c5be1e5ebec7d5bd14f71427d1e84f3dd0314c0f7b2291e5b200ac8c7c3b9259281900390910190a3505050565b6116308282611096565b156116855760408051600160e51b62461bcd02815260206004820152601f60248201527f526f6c65733a206163636f756e7420616c72656164792068617320726f6c6500604482015290519081900360640190fd5b6001600160a01b0316600090815260209190915260409020805460ff19166001179055565b600061142d3384846116bd565b3b151590565b6001600160a01b03831661170557604051600160e51b62461bcd0281526004018080602001828103825260248152602001806119e76024913960400191505060405180910390fd5b6001600160a01b03821661174d57604051600160e51b62461bcd0281526004018080602001828103825260228152602001806119a46022913960400191505060405180910390fd5b6001600160a01b038316600090815260016020526040902054611776908263ffffffff61148816565b6001600160a01b0380851660009081526001602052604080822093909355908416815220546117ab908263ffffffff6118a116565b6001600160a01b0380841660008181526001602090815260409182902094909455805185815290519193928716927fddf252ad1be2c89b69c2b068fc378daa952ba7f163c4a11628f55a4df523b3ef92918290030190a3505050565b6000818484111561189957604051600160e51b62461bcd0281526004018080602001828103825283818151815260200191508051906020019080838360005b8381101561185e578181015183820152602001611846565b50505050905090810190601f16801561188b5780820380516001836020036101000a031916815260200191505b509250505060405180910390fd5b505050900390565b6000828201838110156108065760408051600160e51b62461bcd02815260206004820152601b60248201527f536166654d6174683a206164646974696f6e206f766572666c6f770000000000604482015290519081900360640190fdfe4b4950373a20617070726f766520746f20746865207a65726f20616464726573734b4950373a207472616e7366657220746f206e6f6e204b495037526563656976657220696d706c656d656e746572506175736572526f6c653a2063616c6c657220646f6573206e6f742068617665207468652050617573657220726f6c654f776e61626c653a206e6577206f776e657220697320746865207a65726f20616464726573734b4950373a207472616e7366657220746f20746865207a65726f2061646472657373526f6c65733a206163636f756e7420646f6573206e6f74206861766520726f6c654b4950373a207472616e736665722066726f6d20746865207a65726f2061646472657373526f6c65733a206163636f756e7420697320746865207a65726f20616464726573734b4950373a20617070726f76652066726f6d20746865207a65726f2061646472657373a165627a7a7230582033f437db032786c3418f8652f606e0f5c8bdfc1172ebb326ff4b1bbb9a5ddc3c0029526f6c65733a206163636f756e7420697320746865207a65726f2061646472657373",
  "source": "// SPDX-License-Identifier: MIT\r\npragma solidity ^0.5.6;\r\n\r\nimport \"../contracts/klaytn-contracts/token/KIP7/KIP7Burnable.sol\";\r\nimport \"../contracts/klaytn-contracts/token/KIP7/KIP7Pausable.sol\";\r\nimport \"../contracts/klaytn-contracts/token/KIP7/KIP7Metadata.sol\";\r\nimport \"../contracts/klaytn-contracts/ownership/Ownable.sol\";\r\nimport \"./Freezable.sol\";\r\n\r\ncontract Chick is KIP7Burnable, KIP7Pausable, KIP7Metadata, Ownable, Freezable {\r\n    constructor() public KIP7Metadata(\"SSEEOO\", \"SEO\", 18) {\r\n        _mint(msg.sender, 1000000000 * 1e18);\r\n    }\r\n}\r\n",
  "sourcePath": "C:/Users/kwonj/contract_klaytn/chick_test/contracts/Chick.sol",
  "compiler": {
    "name": "solc",
    "version": "0.5.6+commit.b259423e.Emscripten.clang"
  },
  "schemaVersion": "3.3.3",
  "updatedAt": "2022-09-04T10:01:27.284Z",
  "devdoc": {
    "methods": {
      "allowance(address,address)": {
        "details": "See `IKIP7.allowance`."
      },
      "balanceOf(address)": {
        "details": "See `IKIP7.balanceOf`."
      },
      "burn(uint256)": {
        "details": "Destroys `amount` tokens from the caller.     * See `KIP7._burn`."
      },
      "burnFrom(address,uint256)": {
        "details": "See `KIP7._burnFrom`."
      },
      "decimals()": {
        "details": "Returns the number of decimals used to get its user representation. For example, if `decimals` equals `2`, a balance of `505` tokens should be displayed to a user as `5,05` (`505 / 10 ** 2`).     * Tokens usually opt for a value of 18, imitating the relationship between Ether and Wei.     * > Note that this information is only used for _display_ purposes: it in no way affects any of the arithmetic of the contract, including `IKIP7.balanceOf` and `IKIP7.transfer`."
      },
      "isOwner()": {
        "details": "Returns true if the caller is the current owner."
      },
      "name()": {
        "details": "Returns the name of the token."
      },
      "owner()": {
        "details": "Returns the address of the current owner."
      },
      "pause()": {
        "details": "Called by a pauser to pause, triggers stopped state."
      },
      "paused()": {
        "details": "Returns true if the contract is paused, and false otherwise."
      },
      "renounceOwnership()": {
        "details": "Leaves the contract without owner. It will not be possible to call `onlyOwner` functions anymore. Can only be called by the current owner.     * > Note: Renouncing ownership will leave the contract without an owner, thereby removing any functionality that is only available to the owner."
      },
      "safeTransfer(address,uint256)": {
        "details": "Moves `amount` tokens from the caller's account to `recipient`."
      },
      "safeTransfer(address,uint256,bytes)": {
        "details": "Moves `amount` tokens from the caller's account to `recipient`."
      },
      "safeTransferFrom(address,address,uint256)": {
        "details": "Moves `amount` tokens from `sender` to `recipient` using the allowance mechanism. `amount` is then deducted from the caller's allowance."
      },
      "safeTransferFrom(address,address,uint256,bytes)": {
        "details": "Moves `amount` tokens from `sender` to `recipient` using the allowance mechanism. `amount` is then deducted from the caller's allowance."
      },
      "supportsInterface(bytes4)": {
        "details": "See `IKIP13.supportsInterface`.     * Time complexity O(1), guaranteed to always use less than 30 000 gas."
      },
      "symbol()": {
        "details": "Returns the symbol of the token, usually a shorter version of the name."
      },
      "totalSupply()": {
        "details": "See `IKIP7.totalSupply`."
      },
      "transferOwnership(address)": {
        "details": "Transfers ownership of the contract to a new account (`newOwner`). Can only be called by the current owner."
      },
      "unpause()": {
        "details": "Called by a pauser to unpause, returns to normal state."
      }
    }
  },
  "userdoc": {
    "methods": {}
  }
}