{
  "contractName": "KlayChickenSunsal",
  "abi": [
    {
      "constant": true,
      "inputs": [
        {
          "name": "interfaceId",
          "type": "bytes4"
        }
      ],
      "name": "supportsInterface",
      "outputs": [
        {
          "name": "",
          "type": "bool"
        }
      ],
      "payable": false,
      "stateMutability": "view",
      "type": "function"
    },
    {
      "constant": true,
      "inputs": [],
      "name": "name",
      "outputs": [
        {
          "name": "",
          "type": "string"
        }
      ],
      "payable": false,
      "stateMutability": "view",
      "type": "function"
    },
    {
      "constant": true,
      "inputs": [
        {
          "name": "tokenId",
          "type": "uint256"
        }
      ],
      "name": "getApproved",
      "outputs": [
        {
          "name": "",
          "type": "address"
        }
      ],
      "payable": false,
      "stateMutability": "view",
      "type": "function"
    },
    {
      "constant": false,
      "inputs": [
        {
          "name": "to",
          "type": "address"
        },
        {
          "name": "tokenId",
          "type": "uint256"
        }
      ],
      "name": "approve",
      "outputs": [],
      "payable": false,
      "stateMutability": "nonpayable",
      "type": "function"
    },
    {
      "constant": true,
      "inputs": [],
      "name": "totalSupply",
      "outputs": [
        {
          "name": "",
          "type": "uint256"
        }
      ],
      "payable": false,
      "stateMutability": "view",
      "type": "function"
    },
    {
      "constant": false,
      "inputs": [
        {
          "name": "from",
          "type": "address"
        },
        {
          "name": "to",
          "type": "address"
        },
        {
          "name": "tokenId",
          "type": "uint256"
        }
      ],
      "name": "transferFrom",
      "outputs": [],
      "payable": false,
      "stateMutability": "nonpayable",
      "type": "function"
    },
    {
      "constant": true,
      "inputs": [
        {
          "name": "owner",
          "type": "address"
        },
        {
          "name": "index",
          "type": "uint256"
        }
      ],
      "name": "tokenOfOwnerByIndex",
      "outputs": [
        {
          "name": "",
          "type": "uint256"
        }
      ],
      "payable": false,
      "stateMutability": "view",
      "type": "function"
    },
    {
      "constant": false,
      "inputs": [],
      "name": "unpause",
      "outputs": [],
      "payable": false,
      "stateMutability": "nonpayable",
      "type": "function"
    },
    {
      "constant": false,
      "inputs": [
        {
          "name": "to",
          "type": "address"
        },
        {
          "name": "tokenId",
          "type": "uint256"
        }
      ],
      "name": "mint",
      "outputs": [
        {
          "name": "",
          "type": "bool"
        }
      ],
      "payable": false,
      "stateMutability": "nonpayable",
      "type": "function"
    },
    {
      "constant": false,
      "inputs": [
        {
          "name": "from",
          "type": "address"
        },
        {
          "name": "to",
          "type": "address"
        },
        {
          "name": "tokenId",
          "type": "uint256"
        }
      ],
      "name": "safeTransferFrom",
      "outputs": [],
      "payable": false,
      "stateMutability": "nonpayable",
      "type": "function"
    },
    {
      "constant": false,
      "inputs": [
        {
          "name": "tokenId",
          "type": "uint256"
        }
      ],
      "name": "burn",
      "outputs": [],
      "payable": false,
      "stateMutability": "nonpayable",
      "type": "function"
    },
    {
      "constant": true,
      "inputs": [
        {
          "name": "account",
          "type": "address"
        }
      ],
      "name": "isPauser",
      "outputs": [
        {
          "name": "",
          "type": "bool"
        }
      ],
      "payable": false,
      "stateMutability": "view",
      "type": "function"
    },
    {
      "constant": true,
      "inputs": [
        {
          "name": "index",
          "type": "uint256"
        }
      ],
      "name": "tokenByIndex",
      "outputs": [
        {
          "name": "",
          "type": "uint256"
        }
      ],
      "payable": false,
      "stateMutability": "view",
      "type": "function"
    },
    {
      "constant": true,
      "inputs": [],
      "name": "paused",
      "outputs": [
        {
          "name": "",
          "type": "bool"
        }
      ],
      "payable": false,
      "stateMutability": "view",
      "type": "function"
    },
    {
      "constant": true,
      "inputs": [
        {
          "name": "tokenId",
          "type": "uint256"
        }
      ],
      "name": "ownerOf",
      "outputs": [
        {
          "name": "",
          "type": "address"
        }
      ],
      "payable": false,
      "stateMutability": "view",
      "type": "function"
    },
    {
      "constant": true,
      "inputs": [],
      "name": "baseURI",
      "outputs": [
        {
          "name": "",
          "type": "string"
        }
      ],
      "payable": false,
      "stateMutability": "view",
      "type": "function"
    },
    {
      "constant": false,
      "inputs": [],
      "name": "renouncePauser",
      "outputs": [],
      "payable": false,
      "stateMutability": "nonpayable",
      "type": "function"
    },
    {
      "constant": true,
      "inputs": [
        {
          "name": "owner",
          "type": "address"
        }
      ],
      "name": "balanceOf",
      "outputs": [
        {
          "name": "",
          "type": "uint256"
        }
      ],
      "payable": false,
      "stateMutability": "view",
      "type": "function"
    },
    {
      "constant": false,
      "inputs": [],
      "name": "renounceOwnership",
      "outputs": [],
      "payable": false,
      "stateMutability": "nonpayable",
      "type": "function"
    },
    {
      "constant": false,
      "inputs": [
        {
          "name": "account",
          "type": "address"
        }
      ],
      "name": "addPauser",
      "outputs": [],
      "payable": false,
      "stateMutability": "nonpayable",
      "type": "function"
    },
    {
      "constant": false,
      "inputs": [],
      "name": "pause",
      "outputs": [],
      "payable": false,
      "stateMutability": "nonpayable",
      "type": "function"
    },
    {
      "constant": true,
      "inputs": [],
      "name": "owner",
      "outputs": [
        {
          "name": "",
          "type": "address"
        }
      ],
      "payable": false,
      "stateMutability": "view",
      "type": "function"
    },
    {
      "constant": true,
      "inputs": [],
      "name": "isOwner",
      "outputs": [
        {
          "name": "",
          "type": "bool"
        }
      ],
      "payable": false,
      "stateMutability": "view",
      "type": "function"
    },
    {
      "constant": true,
      "inputs": [],
      "name": "symbol",
      "outputs": [
        {
          "name": "",
          "type": "string"
        }
      ],
      "payable": false,
      "stateMutability": "view",
      "type": "function"
    },
    {
      "constant": false,
      "inputs": [
        {
          "name": "account",
          "type": "address"
        }
      ],
      "name": "addMinter",
      "outputs": [],
      "payable": false,
      "stateMutability": "nonpayable",
      "type": "function"
    },
    {
      "constant": false,
      "inputs": [],
      "name": "renounceMinter",
      "outputs": [],
      "payable": false,
      "stateMutability": "nonpayable",
      "type": "function"
    },
    {
      "constant": false,
      "inputs": [
        {
          "name": "to",
          "type": "address"
        },
        {
          "name": "approved",
          "type": "bool"
        }
      ],
      "name": "setApprovalForAll",
      "outputs": [],
      "payable": false,
      "stateMutability": "nonpayable",
      "type": "function"
    },
    {
      "constant": true,
      "inputs": [
        {
          "name": "account",
          "type": "address"
        }
      ],
      "name": "isMinter",
      "outputs": [
        {
          "name": "",
          "type": "bool"
        }
      ],
      "payable": false,
      "stateMutability": "view",
      "type": "function"
    },
    {
      "constant": false,
      "inputs": [
        {
          "name": "from",
          "type": "address"
        },
        {
          "name": "to",
          "type": "address"
        },
        {
          "name": "tokenId",
          "type": "uint256"
        },
        {
          "name": "_data",
          "type": "bytes"
        }
      ],
      "name": "safeTransferFrom",
      "outputs": [],
      "payable": false,
      "stateMutability": "nonpayable",
      "type": "function"
    },
    {
      "constant": true,
      "inputs": [],
      "name": "maxSupply",
      "outputs": [
        {
          "name": "",
          "type": "uint256"
        }
      ],
      "payable": false,
      "stateMutability": "view",
      "type": "function"
    },
    {
      "constant": true,
      "inputs": [],
      "name": "ts",
      "outputs": [
        {
          "name": "",
          "type": "uint256"
        }
      ],
      "payable": false,
      "stateMutability": "view",
      "type": "function"
    },
    {
      "constant": true,
      "inputs": [
        {
          "name": "owner",
          "type": "address"
        },
        {
          "name": "operator",
          "type": "address"
        }
      ],
      "name": "isApprovedForAll",
      "outputs": [
        {
          "name": "",
          "type": "bool"
        }
      ],
      "payable": false,
      "stateMutability": "view",
      "type": "function"
    },
    {
      "constant": false,
      "inputs": [
        {
          "name": "newOwner",
          "type": "address"
        }
      ],
      "name": "transferOwnership",
      "outputs": [],
      "payable": false,
      "stateMutability": "nonpayable",
      "type": "function"
    },
    {
      "inputs": [
        {
          "name": "name",
          "type": "string"
        },
        {
          "name": "symbol",
          "type": "string"
        }
      ],
      "payable": false,
      "stateMutability": "nonpayable",
      "type": "constructor"
    },
    {
      "anonymous": false,
      "inputs": [
        {
          "indexed": false,
          "name": "account",
          "type": "address"
        }
      ],
      "name": "Paused",
      "type": "event"
    },
    {
      "anonymous": false,
      "inputs": [
        {
          "indexed": false,
          "name": "account",
          "type": "address"
        }
      ],
      "name": "Unpaused",
      "type": "event"
    },
    {
      "anonymous": false,
      "inputs": [
        {
          "indexed": true,
          "name": "account",
          "type": "address"
        }
      ],
      "name": "PauserAdded",
      "type": "event"
    },
    {
      "anonymous": false,
      "inputs": [
        {
          "indexed": true,
          "name": "account",
          "type": "address"
        }
      ],
      "name": "PauserRemoved",
      "type": "event"
    },
    {
      "anonymous": false,
      "inputs": [
        {
          "indexed": true,
          "name": "account",
          "type": "address"
        }
      ],
      "name": "MinterAdded",
      "type": "event"
    },
    {
      "anonymous": false,
      "inputs": [
        {
          "indexed": true,
          "name": "account",
          "type": "address"
        }
      ],
      "name": "MinterRemoved",
      "type": "event"
    },
    {
      "anonymous": false,
      "inputs": [
        {
          "indexed": true,
          "name": "from",
          "type": "address"
        },
        {
          "indexed": true,
          "name": "to",
          "type": "address"
        },
        {
          "indexed": true,
          "name": "tokenId",
          "type": "uint256"
        }
      ],
      "name": "Transfer",
      "type": "event"
    },
    {
      "anonymous": false,
      "inputs": [
        {
          "indexed": true,
          "name": "owner",
          "type": "address"
        },
        {
          "indexed": true,
          "name": "approved",
          "type": "address"
        },
        {
          "indexed": true,
          "name": "tokenId",
          "type": "uint256"
        }
      ],
      "name": "Approval",
      "type": "event"
    },
    {
      "anonymous": false,
      "inputs": [
        {
          "indexed": true,
          "name": "owner",
          "type": "address"
        },
        {
          "indexed": true,
          "name": "operator",
          "type": "address"
        },
        {
          "indexed": false,
          "name": "approved",
          "type": "bool"
        }
      ],
      "name": "ApprovalForAll",
      "type": "event"
    },
    {
      "anonymous": false,
      "inputs": [
        {
          "indexed": true,
          "name": "previousOwner",
          "type": "address"
        },
        {
          "indexed": true,
          "name": "newOwner",
          "type": "address"
        }
      ],
      "name": "OwnershipTransferred",
      "type": "event"
    },
    {
      "constant": true,
      "inputs": [
        {
          "name": "tokenId",
          "type": "uint256"
        }
      ],
      "name": "tokenURI",
      "outputs": [
        {
          "name": "",
          "type": "string"
        }
      ],
      "payable": false,
      "stateMutability": "view",
      "type": "function"
    },
    {
      "constant": false,
      "inputs": [
        {
          "name": "__baseURI",
          "type": "string"
        }
      ],
      "name": "setBaseURI",
      "outputs": [],
      "payable": false,
      "stateMutability": "nonpayable",
      "type": "function"
    },
    {
      "constant": false,
      "inputs": [
        {
          "name": "sup",
          "type": "uint256"
        }
      ],
      "name": "massMint",
      "outputs": [],
      "payable": false,
      "stateMutability": "nonpayable",
      "type": "function"
    },
    {
      "constant": false,
      "inputs": [
        {
          "name": "tos",
          "type": "address[]"
        },
        {
          "name": "ids",
          "type": "uint256[]"
        }
      ],
      "name": "bulkTransfer",
      "outputs": [],
      "payable": false,
      "stateMutability": "nonpayable",
      "type": "function"
    }
  ],
  "bytecode": "0x6000601055610100604052604c6080818152906200328660a03980516200002f9160119160209091019062000512565b503480156200003d57600080fd5b50604051620032d2380380620032d2833981018060405260408110156200006357600080fd5b8101908080516401000000008111156200007c57600080fd5b820160208101848111156200009057600080fd5b8151640100000000811182820187101715620000ab57600080fd5b50509291906020018051640100000000811115620000c857600080fd5b82016020810184811115620000dc57600080fd5b8151640100000000811182820187101715620000f757600080fd5b5050600080546001600160a01b0319163317808255604051929550869450859350849284926001600160a01b039290921691907f8be0079c531659141344cd1fd0a4f28419497f9722a3daafe3b4186f6b6457e0908290a3620001676301ffc9a760e01b6200027560201b60201c565b6200017f6380ac58cd60e01b6200027560201b60201c565b6200019763780e9d6360e01b6200027560201b60201c565b8151620001ac90600a90602085019062000512565b508051620001c290600b90602084019062000512565b50620001db635b5e139f60e01b6200027560201b60201c565b50505050620001f0336200034760201b60201c565b6200020863eab83e2060e01b6200027560201b60201c565b620002206342966c6860e01b6200027560201b60201c565b62000231336200039960201b60201c565b600f805460ff191690556200026d7f4d5507ff0000000000000000000000000000000000000000000000000000000062000275602090811b901c565b5050620005b7565b7fffffffff0000000000000000000000000000000000000000000000000000000080821614156200030757604080517f08c379a000000000000000000000000000000000000000000000000000000000815260206004820152601b60248201527f4b495031333a20696e76616c696420696e746572666163652069640000000000604482015290519081900360640190fd5b7fffffffff00000000000000000000000000000000000000000000000000000000166000908152600160208190526040909120805460ff19169091179055565b6200036281600d620003eb60201b620022841790919060201c565b6040516001600160a01b038216907f6ae172837ea30b801fbfcdd4108aa1d5bf8ff775444fd70256b44e6bf3dfc3f690600090a250565b620003b481600e620003eb60201b620022841790919060201c565b6040516001600160a01b038216907f6719d08c1888103bea251a4ed56406bd0c3e69723c8a1686e017e7bbe159b6f890600090a250565b620003fd82826200048f60201b60201c565b156200046a57604080517f08c379a000000000000000000000000000000000000000000000000000000000815260206004820152601f60248201527f526f6c65733a206163636f756e7420616c72656164792068617320726f6c6500604482015290519081900360640190fd5b6001600160a01b0316600090815260209190915260409020805460ff19166001179055565b60006001600160a01b038216620004f2576040517f08c379a0000000000000000000000000000000000000000000000000000000008152600401808060200182810382526022815260200180620032646022913960400191505060405180910390fd5b506001600160a01b03166000908152602091909152604090205460ff1690565b828054600181600116156101000203166002900490600052602060002090601f016020900481019282601f106200055557805160ff191683800117855562000585565b8280016001018555821562000585579182015b828111156200058557825182559160200191906001019062000568565b506200059392915062000597565b5090565b620005b491905b808211156200059357600081556001016200059e565b90565b612c9d80620005c76000396000f3fe608060405234801561001057600080fd5b50600436106102275760003560e01c80636c0360eb11610130578063983b2d56116100b8578063c87b56dd1161007c578063c87b56dd146107ff578063d5abeb011461081c578063e86d60bf14610824578063e985e9c51461082c578063f2fde38b1461085a57610227565b8063983b2d56146106b957806398650275146106df578063a22cb465146106e7578063aa271e1a14610715578063b88d4fde1461073b57610227565b806382dc1ec4116100ff57806382dc1ec4146106735780638456cb59146106995780638da5cb5b146106a15780638f32d59b146106a957806395d89b41146106b157610227565b80636c0360eb146106355780636ef8d66d1461063d57806370a0823114610645578063715018a61461066b57610227565b806340c10f19116101b35780634dc2b5c4116101825780634dc2b5c4146105325780634f6ccce71461054f57806355f804b31461056c5780635c975abb146106105780636352211e1461061857610227565b806340c10f191461048d57806342842e0e146104b957806342966c68146104ef57806346fbf68e1461050c57610227565b8063153a1f3e116101fa578063153a1f3e1461034b57806318160ddd1461040957806323b872dd146104235780632f745c59146104595780633f4ba83a1461048557610227565b806301ffc9a71461022c57806306fdde0314610267578063081812fc146102e4578063095ea7b31461031d575b600080fd5b6102536004803603602081101561024257600080fd5b50356001600160e01b031916610880565b604080519115158252519081900360200190f35b61026f6108a3565b6040805160208082528351818301528351919283929083019185019080838360005b838110156102a9578181015183820152602001610291565b50505050905090810190601f1680156102d65780820380516001836020036101000a031916815260200191505b509250505060405180910390f35b610301600480360360208110156102fa57600080fd5b503561093a565b604080516001600160a01b039092168252519081900360200190f35b6103496004803603604081101561033357600080fd5b506001600160a01b03813516906020013561099f565b005b6103496004803603604081101561036157600080fd5b810190602081018135600160201b81111561037b57600080fd5b82018360208201111561038d57600080fd5b803590602001918460208302840111600160201b831117156103ae57600080fd5b919390929091602081019035600160201b8111156103cb57600080fd5b8201836020820111156103dd57600080fd5b803590602001918460208302840111600160201b831117156103fe57600080fd5b5090925090506109fe565b610411610a52565b60408051918252519081900360200190f35b6103496004803603606081101561043957600080fd5b506001600160a01b03813581169160208101359091169060400135610a58565b6104116004803603604081101561046f57600080fd5b506001600160a01b038135169060200135610ab9565b610349610b3b565b610253600480360360408110156104a357600080fd5b506001600160a01b038135169060200135610c1b565b610349600480360360608110156104cf57600080fd5b506001600160a01b03813581169160208101359091169060400135610c77565b6103496004803603602081101561050557600080fd5b5035610c92565b6102536004803603602081101561052257600080fd5b50356001600160a01b0316610ce6565b6103496004803603602081101561054857600080fd5b5035610cff565b6104116004803603602081101561056557600080fd5b5035610d7a565b6103496004803603602081101561058257600080fd5b810190602081018135600160201b81111561059c57600080fd5b8201836020820111156105ae57600080fd5b803590602001918460018302840111600160201b831117156105cf57600080fd5b91908080601f016020809104026020016040519081016040528093929190818152602001838380828437600092019190915250929550610de3945050505050565b610253610e40565b6103016004803603602081101561062e57600080fd5b5035610e49565b61026f610ea0565b610349610f2e565b6104116004803603602081101561065b57600080fd5b50356001600160a01b0316610f39565b610349610fa4565b6103496004803603602081101561068957600080fd5b50356001600160a01b0316611038565b610349611088565b610301611162565b610253611171565b61026f611182565b610349600480360360208110156106cf57600080fd5b50356001600160a01b03166111e3565b610349611233565b610349600480360360408110156106fd57600080fd5b506001600160a01b038135169060200135151561123c565b6102536004803603602081101561072b57600080fd5b50356001600160a01b0316611297565b6103496004803603608081101561075157600080fd5b6001600160a01b03823581169260208101359091169160408201359190810190608081016060820135600160201b81111561078b57600080fd5b82018360208201111561079d57600080fd5b803590602001918460018302840111600160201b831117156107be57600080fd5b91908080601f0160208091040260200160405190810160405280939291908181526020018383808284376000920191909152509295506112aa945050505050565b61026f6004803603602081101561081557600080fd5b5035611305565b610411611549565b61041161154f565b6102536004803603604081101561084257600080fd5b506001600160a01b0381358116916020013516611555565b6103496004803603602081101561087057600080fd5b50356001600160a01b0316611583565b6001600160e01b0319811660009081526001602052604090205460ff165b919050565b600a8054604080516020601f600260001961010060018816150201909516949094049384018190048102820181019092528281526060939092909183018282801561092f5780601f106109045761010080835404028352916020019161092f565b820191906000526020600020905b81548152906001019060200180831161091257829003601f168201915b505050505090505b90565b6000610945826115d6565b61098357604051600160e51b62461bcd02815260040180806020018281038252602b815260200180612be5602b913960400191505060405180910390fd5b506000908152600360205260409020546001600160a01b031690565b600f5460ff16156109f05760408051600160e51b62461bcd0281526020600482015260106024820152600160821b6f14185d5cd8589b194e881c185d5cd95902604482015290519081900360640190fd5b6109fa82826115f3565b5050565b8060005b81811015610a4a57610a4233878784818110610a1a57fe5b905060200201356001600160a01b0316868685818110610a3657fe5b90506020020135610a58565b600101610a02565b505050505050565b60085490565b600f5460ff1615610aa95760408051600160e51b62461bcd0281526020600482015260106024820152600160821b6f14185d5cd8589b194e881c185d5cd95902604482015290519081900360640190fd5b610ab4838383611720565b505050565b6000610ac483610f39565b8210610b0457604051600160e51b62461bcd02815260040180806020018281038252602a8152602001806129d1602a913960400191505060405180910390fd5b6001600160a01b0383166000908152600660205260409020805483908110610b2857fe5b9060005260206000200154905092915050565b610b4433610ce6565b610b8257604051600160e51b62461bcd0281526004018080602001828103825260308152602001806129586030913960400191505060405180910390fd5b600f5460ff16610bdc5760408051600160e51b62461bcd02815260206004820152601460248201527f5061757361626c653a206e6f7420706175736564000000000000000000000000604482015290519081900360640190fd5b600f805460ff191690556040805133815290517f5db9ee0a495bf2e6ff9c91a7834c1ba4fdd244a5e8aa4e537bd38aeae4b073aa9181900360200190a1565b6000610c2633611297565b610c6457604051600160e51b62461bcd0281526004018080602001828103825260308152602001806129fb6030913960400191505060405180910390fd5b610c6e8383611773565b50600192915050565b610ab4838383604051806020016040528060008152506112aa565b610c9c3382611790565b610cda57604051600160e51b62461bcd02815260040180806020018281038252602f815260200180612b16602f913960400191505060405180910390fd5b610ce381611837565b50565b6000610cf9600e8363ffffffff61184916565b92915050565b610d07611171565b610d495760408051600160e51b62461bcd0281526020600482018190526024820152600080516020612aa4833981519152604482015290519081900360640190fd5b601054818101815b81811015610d6b57610d633382611773565b600101610d51565b50506010805490920190915550565b6000610d84610a52565b8210610dc457604051600160e51b62461bcd02815260040180806020018281038252602b815260200180612b96602b913960400191505060405180910390fd5b60088281548110610dd157fe5b90600052602060002001549050919050565b610deb611171565b610e2d5760408051600160e51b62461bcd0281526020600482018190526024820152600080516020612aa4833981519152604482015290519081900360640190fd5b80516109fa90601190602084019061282d565b600f5460ff1690565b6000818152600260205260408120546001600160a01b031680610cf957604051600160e51b62461bcd028152600401808060200182810382526028815260200180612a4c6028913960400191505060405180910390fd5b6011805460408051602060026001851615610100026000190190941693909304601f81018490048402820184019092528181529291830182828015610f265780601f10610efb57610100808354040283529160200191610f26565b820191906000526020600020905b815481529060010190602001808311610f0957829003601f168201915b505050505081565b610f37336118b3565b565b60006001600160a01b038216610f8357604051600160e51b62461bcd028152600401808060200182810382526029815260200180612b456029913960400191505060405180910390fd5b6001600160a01b0382166000908152600460205260409020610cf9906118fb565b610fac611171565b610fee5760408051600160e51b62461bcd0281526020600482018190526024820152600080516020612aa4833981519152604482015290519081900360640190fd5b600080546040516001600160a01b03909116907f8be0079c531659141344cd1fd0a4f28419497f9722a3daafe3b4186f6b6457e0908390a3600080546001600160a01b0319169055565b61104133610ce6565b61107f57604051600160e51b62461bcd0281526004018080602001828103825260308152602001806129586030913960400191505060405180910390fd5b610ce3816118ff565b61109133610ce6565b6110cf57604051600160e51b62461bcd0281526004018080602001828103825260308152602001806129586030913960400191505060405180910390fd5b600f5460ff16156111205760408051600160e51b62461bcd0281526020600482015260106024820152600160821b6f14185d5cd8589b194e881c185d5cd95902604482015290519081900360640190fd5b600f805460ff191660011790556040805133815290517f62e78cea01bee320cd4e420270b5ea74000d11b0c9f74754ebdbfc544b05a2589181900360200190a1565b6000546001600160a01b031690565b6000546001600160a01b0316331490565b600b8054604080516020601f600260001961010060018816150201909516949094049384018190048102820181019092528281526060939092909183018282801561092f5780601f106109045761010080835404028352916020019161092f565b6111ec33611297565b61122a57604051600160e51b62461bcd0281526004018080602001828103825260308152602001806129fb6030913960400191505060405180910390fd5b610ce381611947565b610f373361198f565b600f5460ff161561128d5760408051600160e51b62461bcd0281526020600482015260106024820152600160821b6f14185d5cd8589b194e881c185d5cd95902604482015290519081900360640190fd5b6109fa82826119d7565b6000610cf9600d8363ffffffff61184916565b6112b5848484610a58565b6112c184848484611aa6565b6112ff57604051600160e51b62461bcd028152600401808060200182810382526030815260200180612ae66030913960400191505060405180910390fd5b50505050565b6060611310826115d6565b61134e57604051600160e51b62461bcd02815260040180806020018281038252602e81526020018061292a602e913960400191505060405180910390fd5b60118054604080516020601f60026000196101006001881615020190951694909404938401819004810282018101909252828152606093909290918301828280156113da5780601f106113af576101008083540402835291602001916113da565b820191906000526020600020905b8154815290600101906020018083116113bd57829003601f168201915b50506040805180820190915260058152600160d91b64173539b7b70260208201529394506060939250869150611411905081611e89565b60115490935060026000196101006001841615020190911604611443576040518060200160405280600081525061153f565b8383836040516020018084805190602001908083835b602083106114785780518252601f199092019160209182019101611459565b51815160209384036101000a600019018019909216911617905286519190930192860191508083835b602083106114c05780518252601f1990920191602091820191016114a1565b51815160209384036101000a600019018019909216911617905285519190930192850191508083835b602083106115085780518252601f1990920191602091820191016114e9565b6001836020036101000a03801982511681845116808217855250505050505090500193505050506040516020818303038152906040525b9695505050505050565b61038481565b60105481565b6001600160a01b03918216600090815260056020908152604080832093909416825291909152205460ff1690565b61158b611171565b6115cd5760408051600160e51b62461bcd0281526020600482018190526024820152600080516020612aa4833981519152604482015290519081900360640190fd5b610ce381611f57565b6000908152600260205260409020546001600160a01b0316151590565b60006115fe82610e49565b9050806001600160a01b0316836001600160a01b0316141561166a5760408051600160e51b62461bcd02815260206004820181905260248201527f4b495031373a20617070726f76616c20746f2063757272656e74206f776e6572604482015290519081900360640190fd5b336001600160a01b038216148061168657506116868133611555565b6116c457604051600160e51b62461bcd028152600401808060200182810382526037815260200180612c106037913960400191505060405180910390fd5b60008281526003602052604080822080546001600160a01b0319166001600160a01b0387811691821790925591518593918516917f8c5be1e5ebec7d5bd14f71427d1e84f3dd0314c0f7b2291e5b200ac8c7c3b92591a4505050565b61172a3382611790565b61176857604051600160e51b62461bcd028152600401808060200182810382526030815260200180612a746030913960400191505060405180910390fd5b610ab4838383611ffa565b61177d8282612019565b6117878282612150565b6109fa8161218e565b600061179b826115d6565b6117d957604051600160e51b62461bcd02815260040180806020018281038252602b815260200180612c47602b913960400191505060405180910390fd5b60006117e483610e49565b9050806001600160a01b0316846001600160a01b0316148061181f5750836001600160a01b03166118148461093a565b6001600160a01b0316145b8061182f575061182f8185611555565b949350505050565b610ce361184382610e49565b826121d2565b60006001600160a01b03821661189357604051600160e51b62461bcd028152600401808060200182810382526022815260200180612ac46022913960400191505060405180910390fd5b506001600160a01b03166000908152602091909152604090205460ff1690565b6118c4600e8263ffffffff61221a16565b6040516001600160a01b038216907fcd265ebaf09df2871cc7bd4133404a235ba12eff2041bb89d9c714a2621c7c7e90600090a250565b5490565b611910600e8263ffffffff61228416565b6040516001600160a01b038216907f6719d08c1888103bea251a4ed56406bd0c3e69723c8a1686e017e7bbe159b6f890600090a250565b611958600d8263ffffffff61228416565b6040516001600160a01b038216907f6ae172837ea30b801fbfcdd4108aa1d5bf8ff775444fd70256b44e6bf3dfc3f690600090a250565b6119a0600d8263ffffffff61221a16565b6040516001600160a01b038216907fe94479a9f7e1952cc78f2d6baab678adc1b772d936c6583def489e524cb6669290600090a250565b6001600160a01b038216331415611a385760408051600160e51b62461bcd02815260206004820152601860248201527f4b495031373a20617070726f766520746f2063616c6c65720000000000000000604482015290519081900360640190fd5b3360008181526005602090815260408083206001600160a01b03871680855290835292819020805460ff1916861515908117909155815190815290519293927f17307eab39ab6107e8899845ad3d59bd9653f200f220920489ca2b5937696c31929181900390910190a35050565b6000806060611abd866001600160a01b0316612308565b611acc5760019250505061182f565b856001600160a01b031663150b7a0260e01b3389888860405160240180856001600160a01b03166001600160a01b03168152602001846001600160a01b03166001600160a01b0316815260200183815260200180602001828103825283818151815260200191508051906020019080838360005b83811015611b58578181015183820152602001611b40565b50505050905090810190601f168015611b855780820380516001836020036101000a031916815260200191505b5060408051601f198184030181529181526020820180516001600160e01b03166001600160e01b0319909a16999099178952518151919890975087965094509250829150849050835b60208310611bed5780518252601f199092019160209182019101611bce565b6001836020036101000a0380198251168184511680821785525050505050509050019150506000604051808303816000865af19150503d8060008114611c4f576040519150601f19603f3d011682016040523d82523d6000602084013e611c54565b606091505b508051919350915015801590611c9457508051600160e11b630a85bd01029060208084019190811015611c8657600080fd5b50516001600160e01b031916145b15611ca45760019250505061182f565b856001600160a01b0316636745782b60e01b3389888860405160240180856001600160a01b03166001600160a01b03168152602001846001600160a01b03166001600160a01b0316815260200183815260200180602001828103825283818151815260200191508051906020019080838360005b83811015611d30578181015183820152602001611d18565b50505050905090810190601f168015611d5d5780820380516001836020036101000a031916815260200191505b5060408051601f198184030181529181526020820180516001600160e01b03166001600160e01b0319909a16999099178952518151919890975087965094509250829150849050835b60208310611dc55780518252601f199092019160209182019101611da6565b6001836020036101000a0380198251168184511680821785525050505050509050019150506000604051808303816000865af19150503d8060008114611e27576040519150601f19603f3d011682016040523d82523d6000602084013e611e2c565b606091505b508051919350915015801590611e6c57508051600160e01b636745782b029060208084019190811015611e5e57600080fd5b50516001600160e01b031916145b15611e7c5760019250505061182f565b5060009695505050505050565b606081611eb157506040805180820190915260018152600160fc1b600302602082015261089e565b8160005b8115611ec957600101600a82049150611eb5565b6060816040519080825280601f01601f191660200182016040528015611ef6576020820181803883390190505b509050815b8515611f4e57600019016000600a8704600a028703603001905060008160f81b905080848481518110611f2a57fe5b60200101906001600160f81b031916908160001a905350600a880497505050611efb565b50949350505050565b6001600160a01b038116611f9f57604051600160e51b62461bcd0281526004018080602001828103825260268152602001806129886026913960400191505060405180910390fd5b600080546040516001600160a01b03808516939216917f8be0079c531659141344cd1fd0a4f28419497f9722a3daafe3b4186f6b6457e091a3600080546001600160a01b0319166001600160a01b0392909216919091179055565b61200583838361230e565b61200f8382612458565b610ab48282612150565b6001600160a01b0382166120775760408051600160e51b62461bcd02815260206004820152601f60248201527f4b495031373a206d696e7420746f20746865207a65726f206164647265737300604482015290519081900360640190fd5b612080816115d6565b156120d55760408051600160e51b62461bcd02815260206004820152601b60248201527f4b495031373a20746f6b656e20616c7265616479206d696e7465640000000000604482015290519081900360640190fd5b600081815260026020908152604080832080546001600160a01b0319166001600160a01b0387169081179091558352600490915290206121149061254d565b60405181906001600160a01b038416906000907fddf252ad1be2c89b69c2b068fc378daa952ba7f163c4a11628f55a4df523b3ef908290a45050565b6001600160a01b0390911660009081526006602081815260408084208054868652600784529185208290559282526001810183559183529091200155565b600880546000838152600960205260408120829055600182018355919091527ff3f7a9fe364faab93b216da50a3214154f22a0a2b415b23a84c8169e8b636ee30155565b6121dc8282612556565b6000818152600c602052604090205460026000196101006001841615020190911604156109fa576000818152600c602052604081206109fa916128ab565b6122248282611849565b61226257604051600160e51b62461bcd028152600401808060200182810382526021815260200180612a2b6021913960400191505060405180910390fd5b6001600160a01b0316600090815260209190915260409020805460ff19169055565b61228e8282611849565b156122e35760408051600160e51b62461bcd02815260206004820152601f60248201527f526f6c65733a206163636f756e7420616c72656164792068617320726f6c6500604482015290519081900360640190fd5b6001600160a01b0316600090815260209190915260409020805460ff19166001179055565b3b151590565b826001600160a01b031661232182610e49565b6001600160a01b03161461236957604051600160e51b62461bcd028152600401808060200182810382526028815260200180612b6e6028913960400191505060405180910390fd5b6001600160a01b0382166123b157604051600160e51b62461bcd0281526004018080602001828103825260238152602001806129ae6023913960400191505060405180910390fd5b6123ba81612582565b6001600160a01b03831660009081526004602052604090206123db906125bd565b6001600160a01b03821660009081526004602052604090206123fc9061254d565b60008181526002602052604080822080546001600160a01b0319166001600160a01b0386811691821790925591518493918716917fddf252ad1be2c89b69c2b068fc378daa952ba7f163c4a11628f55a4df523b3ef91a4505050565b6001600160a01b03821660009081526006602052604081205461248290600163ffffffff6125d416565b60008381526007602052604090205490915080821461251d576001600160a01b03841660009081526006602052604081208054849081106124bf57fe5b906000526020600020015490508060066000876001600160a01b03166001600160a01b0316815260200190815260200160002083815481106124fd57fe5b600091825260208083209091019290925591825260079052604090208190555b6001600160a01b03841660009081526006602052604090208054906125469060001983016128ef565b5050505050565b80546001019055565b612560828261261d565b61256a8282612458565b6000818152600760205260408120556109fa816126f7565b6000818152600360205260409020546001600160a01b031615610ce357600090815260036020526040902080546001600160a01b0319169055565b80546125d090600163ffffffff6125d416565b9055565b600061261683836040518060400160405280601e81526020017f536166654d6174683a207375627472616374696f6e206f766572666c6f770000815250612793565b9392505050565b816001600160a01b031661263082610e49565b6001600160a01b03161461267857604051600160e51b62461bcd028152600401808060200182810382526024815260200180612bc16024913960400191505060405180910390fd5b61268181612582565b6001600160a01b03821660009081526004602052604090206126a2906125bd565b60008181526002602052604080822080546001600160a01b0319169055518291906001600160a01b038516907fddf252ad1be2c89b69c2b068fc378daa952ba7f163c4a11628f55a4df523b3ef908390a45050565b60085460009061270e90600163ffffffff6125d416565b6000838152600960205260408120546008805493945090928490811061273057fe5b90600052602060002001549050806008838154811061274b57fe5b6000918252602080832090910192909255828152600990915260409020829055600880549061277e9060001983016128ef565b50505060009182525060096020526040812055565b6000818484111561282557604051600160e51b62461bcd0281526004018080602001828103825283818151815260200191508051906020019080838360005b838110156127ea5781810151838201526020016127d2565b50505050905090810190601f1680156128175780820380516001836020036101000a031916815260200191505b509250505060405180910390fd5b505050900390565b828054600181600116156101000203166002900490600052602060002090601f016020900481019282601f1061286e57805160ff191683800117855561289b565b8280016001018555821561289b579182015b8281111561289b578251825591602001919060010190612880565b506128a792915061290f565b5090565b50805460018160011615610100020316600290046000825580601f106128d15750610ce3565b601f016020900490600052602060002090810190610ce3919061290f565b815481835581811115610ab457600083815260209020610ab49181019083015b61093791905b808211156128a7576000815560010161291556fe4b495031374d657461646174613a2055524920717565727920666f72206e6f6e6578697374656e7420746f6b656e506175736572526f6c653a2063616c6c657220646f6573206e6f742068617665207468652050617573657220726f6c654f776e61626c653a206e6577206f776e657220697320746865207a65726f20616464726573734b495031373a207472616e7366657220746f20746865207a65726f20616464726573734b49503137456e756d657261626c653a206f776e657220696e646578206f7574206f6620626f756e64734d696e746572526f6c653a2063616c6c657220646f6573206e6f74206861766520746865204d696e74657220726f6c65526f6c65733a206163636f756e7420646f6573206e6f74206861766520726f6c654b495031373a206f776e657220717565727920666f72206e6f6e6578697374656e7420746f6b656e4b495031373a207472616e736665722063616c6c6572206973206e6f74206f776e6572206e6f7220617070726f7665644f776e61626c653a2063616c6c6572206973206e6f7420746865206f776e6572526f6c65733a206163636f756e7420697320746865207a65726f20616464726573734b495031373a207472616e7366657220746f206e6f6e204b49503137526563656976657220696d706c656d656e7465724b495031374275726e61626c653a2063616c6c6572206973206e6f74206f776e6572206e6f7220617070726f7665644b495031373a2062616c616e636520717565727920666f7220746865207a65726f20616464726573734b495031373a207472616e73666572206f6620746f6b656e2074686174206973206e6f74206f776e4b49503137456e756d657261626c653a20676c6f62616c20696e646578206f7574206f6620626f756e64734b495031373a206275726e206f6620746f6b656e2074686174206973206e6f74206f776e4b495031373a20617070726f76656420717565727920666f72206e6f6e6578697374656e7420746f6b656e4b495031373a20617070726f76652063616c6c6572206973206e6f74206f776e6572206e6f7220617070726f76656420666f7220616c6c4b495031373a206f70657261746f7220717565727920666f72206e6f6e6578697374656e7420746f6b656ea165627a7a72305820476a07ce76d0fca89b841c5f16bd9f1c7e892ea4d9d3be314d3e65c86a642beb0029526f6c65733a206163636f756e7420697320746865207a65726f206164647265737368747470733a2f2f6b6c617970726f6a6563742e73332e61702d6e6f727468656173742d322e616d617a6f6e6177732e636f6d2f6b6c6179636869636b656e2f73756e73616c2f6d6574612f",
  "source": "pragma solidity ^0.5.6;\r\n\r\nimport \"./token/KIP17/KIP17Full.sol\";\r\nimport \"./token/KIP17/KIP17Mintable.sol\";\r\nimport \"./token/KIP17/KIP17Burnable.sol\";\r\nimport \"./token/KIP17/KIP17Pausable.sol\";\r\nimport \"./ownership/Ownable.sol\";\r\n\r\ncontract KlayChickenSunsal is\r\n    Ownable,\r\n    KIP17Full,\r\n    KIP17Mintable,\r\n    KIP17Burnable,\r\n    KIP17Pausable\r\n{\r\n    constructor(string memory name, string memory symbol)\r\n        public\r\n        KIP17Full(name, symbol)\r\n    {}\r\n\r\n    uint256 public ts = 0;\r\n    uint256 public constant maxSupply = 900;\r\n    string public baseURI =\r\n        \"https://klayproject.s3.ap-northeast-2.amazonaws.com/klaychicken/sunsal/meta/\";\r\n\r\n    function tokenURI(uint256 tokenId) public view returns (string memory) {\r\n        require(\r\n            _exists(tokenId),\r\n            \"KIP17Metadata: URI query for nonexistent token\"\r\n        );\r\n\r\n        string memory _baseURI = baseURI;\r\n        string memory idstr;\r\n        string memory baseURIback = \".json\";\r\n\r\n        uint256 temp = tokenId;\r\n        idstr = uint2str(temp);\r\n\r\n        return\r\n            bytes(baseURI).length > 0\r\n                ? string(abi.encodePacked(_baseURI, idstr, baseURIback))\r\n                : \"\";\r\n    }\r\n\r\n    function uint2str(uint256 _i)\r\n        internal\r\n        pure\r\n        returns (string memory _uintAsString)\r\n    {\r\n        if (_i == 0) {\r\n            return \"0\";\r\n        }\r\n        uint256 j = _i;\r\n        uint256 len;\r\n        while (j != 0) {\r\n            len++;\r\n            j /= 10;\r\n        }\r\n        bytes memory bstr = new bytes(len);\r\n        uint256 k = len;\r\n        while (_i != 0) {\r\n            k = k - 1;\r\n            uint8 temp = (48 + uint8(_i - (_i / 10) * 10));\r\n            bytes1 b1 = bytes1(temp);\r\n            bstr[k] = b1;\r\n            _i /= 10;\r\n        }\r\n        return string(bstr);\r\n    }\r\n\r\n    function setBaseURI(string memory __baseURI) public onlyOwner {\r\n        baseURI = __baseURI;\r\n    }\r\n\r\n    function massMint(uint256 sup) public onlyOwner {\r\n        uint256 from = ts;\r\n        uint256 to = ts + sup;\r\n        for (uint256 i = from; i < to; i += 1) {\r\n            _mint(msg.sender, i);\r\n        }\r\n        ts += sup;\r\n    }\r\n\r\n    function bulkTransfer(address[] calldata tos, uint256[] calldata ids)\r\n        external\r\n    {\r\n        uint256 length = ids.length;\r\n        for (uint256 i = 0; i < length; i += 1) {\r\n            transferFrom(msg.sender, tos[i], ids[i]);\r\n        }\r\n    }\r\n}\r\n",
  "sourcePath": "C:\\klayContract\\swapGov1\\contracts\\KlayChickenSunsal.sol",
  "compiler": {
    "name": "solc",
    "version": "0.5.6+commit.b259423e.Emscripten.clang"
  },
  "schemaVersion": "3.3.3",
  "updatedAt": "2021-11-30T07:46:36.508Z",
  "devdoc": {
    "methods": {
      "balanceOf(address)": {
        "details": "Gets the balance of the specified address.",
        "params": {
          "owner": "address to query the balance of"
        },
        "return": "uint256 representing the amount owned by the passed address"
      },
      "burn(uint256)": {
        "details": "Burns a specific KIP17 token.",
        "params": {
          "tokenId": "uint256 id of the KIP17 token to be burned."
        }
      },
      "getApproved(uint256)": {
        "details": "Gets the approved address for a token ID, or zero if no address set Reverts if the token ID does not exist.",
        "params": {
          "tokenId": "uint256 ID of the token to query the approval of"
        },
        "return": "address currently approved for the given token ID"
      },
      "isApprovedForAll(address,address)": {
        "details": "Tells whether an operator is approved by a given owner.",
        "params": {
          "operator": "operator address which you want to query the approval of",
          "owner": "owner address which you want to query the approval of"
        },
        "return": "bool whether the given operator is approved by the given owner"
      },
      "isOwner()": {
        "details": "Returns true if the caller is the current owner."
      },
      "mint(address,uint256)": {
        "details": "Function to mint tokens.",
        "params": {
          "to": "The address that will receive the minted tokens.",
          "tokenId": "The token id to mint."
        },
        "return": "A boolean that indicates if the operation was successful."
      },
      "name()": {
        "details": "Gets the token name.",
        "return": "string representing the token name"
      },
      "owner()": {
        "details": "Returns the address of the current owner."
      },
      "ownerOf(uint256)": {
        "details": "Gets the owner of the specified token ID.",
        "params": {
          "tokenId": "uint256 ID of the token to query the owner of"
        },
        "return": "address currently marked as the owner of the given token ID"
      },
      "pause()": {
        "details": "Called by a pauser to pause, triggers stopped state."
      },
      "paused()": {
        "details": "Returns true if the contract is paused, and false otherwise."
      },
      "renounceOwnership()": {
        "details": "Leaves the contract without owner. It will not be possible to call `onlyOwner` functions anymore. Can only be called by the current owner.     * > Note: Renouncing ownership will leave the contract without an owner, thereby removing any functionality that is only available to the owner."
      },
      "safeTransferFrom(address,address,uint256)": {
        "details": "Safely transfers the ownership of a given token ID to another address If the target address is a contract, it must implement `onKIP17Received`, which is called upon a safe transfer, and return the magic value `bytes4(keccak256(\"onKIP17Received(address,address,uint256,bytes)\"))`; otherwise, the transfer is reverted. Requires the msg.sender to be the owner, approved, or operator",
        "params": {
          "from": "current owner of the token",
          "to": "address to receive the ownership of the given token ID",
          "tokenId": "uint256 ID of the token to be transferred"
        }
      },
      "safeTransferFrom(address,address,uint256,bytes)": {
        "details": "Safely transfers the ownership of a given token ID to another address If the target address is a contract, it must implement `onKIP17Received`, which is called upon a safe transfer, and return the magic value `bytes4(keccak256(\"onKIP17Received(address,address,uint256,bytes)\"))`; otherwise, the transfer is reverted. Requires the msg.sender to be the owner, approved, or operator",
        "params": {
          "_data": "bytes data to send along with a safe transfer check",
          "from": "current owner of the token",
          "to": "address to receive the ownership of the given token ID",
          "tokenId": "uint256 ID of the token to be transferred"
        }
      },
      "supportsInterface(bytes4)": {
        "details": "See `IKIP13.supportsInterface`.     * Time complexity O(1), guaranteed to always use less than 30 000 gas."
      },
      "symbol()": {
        "details": "Gets the token symbol.",
        "return": "string representing the token symbol"
      },
      "tokenByIndex(uint256)": {
        "details": "Gets the token ID at a given index of all the tokens in this contract Reverts if the index is greater or equal to the total number of tokens.",
        "params": {
          "index": "uint256 representing the index to be accessed of the tokens list"
        },
        "return": "uint256 token ID at the given index of the tokens list"
      },
      "tokenOfOwnerByIndex(address,uint256)": {
        "details": "Gets the token ID at a given index of the tokens list of the requested owner.",
        "params": {
          "index": "uint256 representing the index to be accessed of the requested tokens list",
          "owner": "address owning the tokens list to be accessed"
        },
        "return": "uint256 token ID at the given index of the tokens list owned by the requested address"
      },
      "totalSupply()": {
        "details": "Gets the total amount of tokens stored by the contract.",
        "return": "uint256 representing the total amount of tokens"
      },
      "transferOwnership(address)": {
        "details": "Transfers ownership of the contract to a new account (`newOwner`). Can only be called by the current owner."
      },
      "unpause()": {
        "details": "Called by a pauser to unpause, returns to normal state."
      }
    }
  },
  "userdoc": {
    "methods": {}
  }
}