{
  "contractName": "KlayChicken",
  "abi": [
    {
      "constant": true,
      "inputs": [
        {
          "name": "interfaceId",
          "type": "bytes4"
        }
      ],
      "name": "supportsInterface",
      "outputs": [
        {
          "name": "",
          "type": "bool"
        }
      ],
      "payable": false,
      "stateMutability": "view",
      "type": "function"
    },
    {
      "constant": true,
      "inputs": [],
      "name": "name",
      "outputs": [
        {
          "name": "",
          "type": "string"
        }
      ],
      "payable": false,
      "stateMutability": "view",
      "type": "function"
    },
    {
      "constant": true,
      "inputs": [
        {
          "name": "tokenId",
          "type": "uint256"
        }
      ],
      "name": "getApproved",
      "outputs": [
        {
          "name": "",
          "type": "address"
        }
      ],
      "payable": false,
      "stateMutability": "view",
      "type": "function"
    },
    {
      "constant": false,
      "inputs": [
        {
          "name": "to",
          "type": "address"
        },
        {
          "name": "tokenId",
          "type": "uint256"
        }
      ],
      "name": "approve",
      "outputs": [],
      "payable": false,
      "stateMutability": "nonpayable",
      "type": "function"
    },
    {
      "constant": true,
      "inputs": [],
      "name": "totalSupply",
      "outputs": [
        {
          "name": "",
          "type": "uint256"
        }
      ],
      "payable": false,
      "stateMutability": "view",
      "type": "function"
    },
    {
      "constant": false,
      "inputs": [
        {
          "name": "from",
          "type": "address"
        },
        {
          "name": "to",
          "type": "address"
        },
        {
          "name": "tokenId",
          "type": "uint256"
        }
      ],
      "name": "transferFrom",
      "outputs": [],
      "payable": false,
      "stateMutability": "nonpayable",
      "type": "function"
    },
    {
      "constant": true,
      "inputs": [
        {
          "name": "owner",
          "type": "address"
        },
        {
          "name": "index",
          "type": "uint256"
        }
      ],
      "name": "tokenOfOwnerByIndex",
      "outputs": [
        {
          "name": "",
          "type": "uint256"
        }
      ],
      "payable": false,
      "stateMutability": "view",
      "type": "function"
    },
    {
      "constant": false,
      "inputs": [],
      "name": "unpause",
      "outputs": [],
      "payable": false,
      "stateMutability": "nonpayable",
      "type": "function"
    },
    {
      "constant": false,
      "inputs": [
        {
          "name": "to",
          "type": "address"
        },
        {
          "name": "tokenId",
          "type": "uint256"
        }
      ],
      "name": "mint",
      "outputs": [
        {
          "name": "",
          "type": "bool"
        }
      ],
      "payable": false,
      "stateMutability": "nonpayable",
      "type": "function"
    },
    {
      "constant": false,
      "inputs": [
        {
          "name": "from",
          "type": "address"
        },
        {
          "name": "to",
          "type": "address"
        },
        {
          "name": "tokenId",
          "type": "uint256"
        }
      ],
      "name": "safeTransferFrom",
      "outputs": [],
      "payable": false,
      "stateMutability": "nonpayable",
      "type": "function"
    },
    {
      "constant": false,
      "inputs": [
        {
          "name": "tokenId",
          "type": "uint256"
        }
      ],
      "name": "burn",
      "outputs": [],
      "payable": false,
      "stateMutability": "nonpayable",
      "type": "function"
    },
    {
      "constant": true,
      "inputs": [
        {
          "name": "account",
          "type": "address"
        }
      ],
      "name": "isPauser",
      "outputs": [
        {
          "name": "",
          "type": "bool"
        }
      ],
      "payable": false,
      "stateMutability": "view",
      "type": "function"
    },
    {
      "constant": true,
      "inputs": [
        {
          "name": "index",
          "type": "uint256"
        }
      ],
      "name": "tokenByIndex",
      "outputs": [
        {
          "name": "",
          "type": "uint256"
        }
      ],
      "payable": false,
      "stateMutability": "view",
      "type": "function"
    },
    {
      "constant": false,
      "inputs": [
        {
          "name": "to",
          "type": "address"
        },
        {
          "name": "tokenId",
          "type": "uint256"
        },
        {
          "name": "tokenURI",
          "type": "string"
        }
      ],
      "name": "mintWithTokenURI",
      "outputs": [
        {
          "name": "",
          "type": "bool"
        }
      ],
      "payable": false,
      "stateMutability": "nonpayable",
      "type": "function"
    },
    {
      "constant": true,
      "inputs": [],
      "name": "paused",
      "outputs": [
        {
          "name": "",
          "type": "bool"
        }
      ],
      "payable": false,
      "stateMutability": "view",
      "type": "function"
    },
    {
      "constant": true,
      "inputs": [
        {
          "name": "tokenId",
          "type": "uint256"
        }
      ],
      "name": "ownerOf",
      "outputs": [
        {
          "name": "",
          "type": "address"
        }
      ],
      "payable": false,
      "stateMutability": "view",
      "type": "function"
    },
    {
      "constant": false,
      "inputs": [],
      "name": "renouncePauser",
      "outputs": [],
      "payable": false,
      "stateMutability": "nonpayable",
      "type": "function"
    },
    {
      "constant": true,
      "inputs": [
        {
          "name": "owner",
          "type": "address"
        }
      ],
      "name": "balanceOf",
      "outputs": [
        {
          "name": "",
          "type": "uint256"
        }
      ],
      "payable": false,
      "stateMutability": "view",
      "type": "function"
    },
    {
      "constant": false,
      "inputs": [],
      "name": "renounceOwnership",
      "outputs": [],
      "payable": false,
      "stateMutability": "nonpayable",
      "type": "function"
    },
    {
      "constant": false,
      "inputs": [
        {
          "name": "account",
          "type": "address"
        }
      ],
      "name": "addPauser",
      "outputs": [],
      "payable": false,
      "stateMutability": "nonpayable",
      "type": "function"
    },
    {
      "constant": false,
      "inputs": [],
      "name": "pause",
      "outputs": [],
      "payable": false,
      "stateMutability": "nonpayable",
      "type": "function"
    },
    {
      "constant": true,
      "inputs": [],
      "name": "owner",
      "outputs": [
        {
          "name": "",
          "type": "address"
        }
      ],
      "payable": false,
      "stateMutability": "view",
      "type": "function"
    },
    {
      "constant": true,
      "inputs": [],
      "name": "isOwner",
      "outputs": [
        {
          "name": "",
          "type": "bool"
        }
      ],
      "payable": false,
      "stateMutability": "view",
      "type": "function"
    },
    {
      "constant": true,
      "inputs": [],
      "name": "symbol",
      "outputs": [
        {
          "name": "",
          "type": "string"
        }
      ],
      "payable": false,
      "stateMutability": "view",
      "type": "function"
    },
    {
      "constant": false,
      "inputs": [
        {
          "name": "account",
          "type": "address"
        }
      ],
      "name": "addMinter",
      "outputs": [],
      "payable": false,
      "stateMutability": "nonpayable",
      "type": "function"
    },
    {
      "constant": false,
      "inputs": [],
      "name": "renounceMinter",
      "outputs": [],
      "payable": false,
      "stateMutability": "nonpayable",
      "type": "function"
    },
    {
      "constant": false,
      "inputs": [
        {
          "name": "to",
          "type": "address"
        },
        {
          "name": "approved",
          "type": "bool"
        }
      ],
      "name": "setApprovalForAll",
      "outputs": [],
      "payable": false,
      "stateMutability": "nonpayable",
      "type": "function"
    },
    {
      "constant": true,
      "inputs": [
        {
          "name": "account",
          "type": "address"
        }
      ],
      "name": "isMinter",
      "outputs": [
        {
          "name": "",
          "type": "bool"
        }
      ],
      "payable": false,
      "stateMutability": "view",
      "type": "function"
    },
    {
      "constant": false,
      "inputs": [
        {
          "name": "from",
          "type": "address"
        },
        {
          "name": "to",
          "type": "address"
        },
        {
          "name": "tokenId",
          "type": "uint256"
        },
        {
          "name": "_data",
          "type": "bytes"
        }
      ],
      "name": "safeTransferFrom",
      "outputs": [],
      "payable": false,
      "stateMutability": "nonpayable",
      "type": "function"
    },
    {
      "constant": true,
      "inputs": [
        {
          "name": "tokenId",
          "type": "uint256"
        }
      ],
      "name": "tokenURI",
      "outputs": [
        {
          "name": "",
          "type": "string"
        }
      ],
      "payable": false,
      "stateMutability": "view",
      "type": "function"
    },
    {
      "constant": true,
      "inputs": [
        {
          "name": "owner",
          "type": "address"
        },
        {
          "name": "operator",
          "type": "address"
        }
      ],
      "name": "isApprovedForAll",
      "outputs": [
        {
          "name": "",
          "type": "bool"
        }
      ],
      "payable": false,
      "stateMutability": "view",
      "type": "function"
    },
    {
      "constant": false,
      "inputs": [
        {
          "name": "newOwner",
          "type": "address"
        }
      ],
      "name": "transferOwnership",
      "outputs": [],
      "payable": false,
      "stateMutability": "nonpayable",
      "type": "function"
    },
    {
      "inputs": [
        {
          "name": "name",
          "type": "string"
        },
        {
          "name": "symbol",
          "type": "string"
        }
      ],
      "payable": false,
      "stateMutability": "nonpayable",
      "type": "constructor"
    },
    {
      "anonymous": false,
      "inputs": [
        {
          "indexed": true,
          "name": "previousOwner",
          "type": "address"
        },
        {
          "indexed": true,
          "name": "newOwner",
          "type": "address"
        }
      ],
      "name": "OwnershipTransferred",
      "type": "event"
    },
    {
      "anonymous": false,
      "inputs": [
        {
          "indexed": false,
          "name": "account",
          "type": "address"
        }
      ],
      "name": "Paused",
      "type": "event"
    },
    {
      "anonymous": false,
      "inputs": [
        {
          "indexed": false,
          "name": "account",
          "type": "address"
        }
      ],
      "name": "Unpaused",
      "type": "event"
    },
    {
      "anonymous": false,
      "inputs": [
        {
          "indexed": true,
          "name": "account",
          "type": "address"
        }
      ],
      "name": "PauserAdded",
      "type": "event"
    },
    {
      "anonymous": false,
      "inputs": [
        {
          "indexed": true,
          "name": "account",
          "type": "address"
        }
      ],
      "name": "PauserRemoved",
      "type": "event"
    },
    {
      "anonymous": false,
      "inputs": [
        {
          "indexed": true,
          "name": "account",
          "type": "address"
        }
      ],
      "name": "MinterAdded",
      "type": "event"
    },
    {
      "anonymous": false,
      "inputs": [
        {
          "indexed": true,
          "name": "account",
          "type": "address"
        }
      ],
      "name": "MinterRemoved",
      "type": "event"
    },
    {
      "anonymous": false,
      "inputs": [
        {
          "indexed": true,
          "name": "from",
          "type": "address"
        },
        {
          "indexed": true,
          "name": "to",
          "type": "address"
        },
        {
          "indexed": true,
          "name": "tokenId",
          "type": "uint256"
        }
      ],
      "name": "Transfer",
      "type": "event"
    },
    {
      "anonymous": false,
      "inputs": [
        {
          "indexed": true,
          "name": "owner",
          "type": "address"
        },
        {
          "indexed": true,
          "name": "approved",
          "type": "address"
        },
        {
          "indexed": true,
          "name": "tokenId",
          "type": "uint256"
        }
      ],
      "name": "Approval",
      "type": "event"
    },
    {
      "anonymous": false,
      "inputs": [
        {
          "indexed": true,
          "name": "owner",
          "type": "address"
        },
        {
          "indexed": true,
          "name": "operator",
          "type": "address"
        },
        {
          "indexed": false,
          "name": "approved",
          "type": "bool"
        }
      ],
      "name": "ApprovalForAll",
      "type": "event"
    }
  ],
  "bytecode": "0x60806040523480156200001157600080fd5b5060405162002e8c38038062002e8c833981018060405260408110156200003757600080fd5b8101908080516401000000008111156200005057600080fd5b820160208101848111156200006457600080fd5b81516401000000008111828201871017156200007f57600080fd5b505092919060200180516401000000008111156200009c57600080fd5b82016020810184811115620000b057600080fd5b8151640100000000811182820187101715620000cb57600080fd5b505092919050505081818181620000ef6301ffc9a760e01b6200026b60201b60201c565b620001076380ac58cd60e01b6200026b60201b60201c565b6200011f63780e9d6360e01b6200026b60201b60201c565b81516200013490600990602085019062000505565b5080516200014a90600a90602084019062000505565b5062000163635b5e139f60e01b6200026b60201b60201c565b5050505062000178336200033a60201b60201c565b6200019063eab83e2060e01b6200026b60201b60201c565b620001a863fac27f4660e01b6200026b60201b60201c565b620001c06342966c6860e01b6200026b60201b60201c565b620001d1336200038c60201b60201c565b600e805460ff191690556200020d7f4d5507ff000000000000000000000000000000000000000000000000000000006200026b602090811b901c565b600e8054610100338102610100600160a81b0319909216919091179182905560405191046001600160a01b0316906000907f8be0079c531659141344cd1fd0a4f28419497f9722a3daafe3b4186f6b6457e0908290a35050620005aa565b7fffffffff000000000000000000000000000000000000000000000000000000008082161415620002fd57604080517f08c379a000000000000000000000000000000000000000000000000000000000815260206004820152601b60248201527f4b495031333a20696e76616c696420696e746572666163652069640000000000604482015290519081900360640190fd5b7fffffffff00000000000000000000000000000000000000000000000000000000166000908152602081905260409020805460ff19166001179055565b6200035581600c620003de60201b62001e8c1790919060201c565b6040516001600160a01b038216907f6ae172837ea30b801fbfcdd4108aa1d5bf8ff775444fd70256b44e6bf3dfc3f690600090a250565b620003a781600d620003de60201b62001e8c1790919060201c565b6040516001600160a01b038216907f6719d08c1888103bea251a4ed56406bd0c3e69723c8a1686e017e7bbe159b6f890600090a250565b620003f082826200048260201b60201c565b156200045d57604080517f08c379a000000000000000000000000000000000000000000000000000000000815260206004820152601f60248201527f526f6c65733a206163636f756e7420616c72656164792068617320726f6c6500604482015290519081900360640190fd5b6001600160a01b0316600090815260209190915260409020805460ff19166001179055565b60006001600160a01b038216620004e5576040517f08c379a000000000000000000000000000000000000000000000000000000000815260040180806020018281038252602281526020018062002e6a6022913960400191505060405180910390fd5b506001600160a01b03166000908152602091909152604090205460ff1690565b828054600181600116156101000203166002900490600052602060002090601f016020900481019282601f106200054857805160ff191683800117855562000578565b8280016001018555821562000578579182015b82811115620005785782518255916020019190600101906200055b565b50620005869291506200058a565b5090565b620005a791905b8082111562000586576000815560010162000591565b90565b6128b080620005ba6000396000f3fe608060405234801561001057600080fd5b50600436106101f05760003560e01c80636ef8d66d1161010f578063983b2d56116100a2578063b88d4fde11610071578063b88d4fde14610638578063c87b56dd146106fe578063e985e9c51461071b578063f2fde38b14610749576101f0565b8063983b2d56146105b657806398650275146105dc578063a22cb465146105e4578063aa271e1a14610612576101f0565b80638456cb59116100de5780638456cb59146105965780638da5cb5b1461059e5780638f32d59b146105a657806395d89b41146105ae576101f0565b80636ef8d66d1461053a57806370a0823114610542578063715018a61461056857806382dc1ec414610570576101f0565b806340c10f19116101875780634f6ccce7116101565780634f6ccce71461043d57806350bb4e7f1461045a5780635c975abb146105155780636352211e1461051d576101f0565b806340c10f191461039857806342842e0e146103c457806342966c68146103fa57806346fbf68e14610417576101f0565b806318160ddd116101c357806318160ddd1461031457806323b872dd1461032e5780632f745c59146103645780633f4ba83a14610390576101f0565b806301ffc9a7146101f557806306fdde0314610230578063081812fc146102ad578063095ea7b3146102e6575b600080fd5b61021c6004803603602081101561020b57600080fd5b50356001600160e01b03191661076f565b604080519115158252519081900360200190f35b61023861078e565b6040805160208082528351818301528351919283929083019185019080838360005b8381101561027257818101518382015260200161025a565b50505050905090810190601f16801561029f5780820380516001836020036101000a031916815260200191505b509250505060405180910390f35b6102ca600480360360208110156102c357600080fd5b5035610825565b604080516001600160a01b039092168252519081900360200190f35b610312600480360360408110156102fc57600080fd5b506001600160a01b03813516906020013561088a565b005b61031c6108e9565b60408051918252519081900360200190f35b6103126004803603606081101561034457600080fd5b506001600160a01b038135811691602081013590911690604001356108ef565b61031c6004803603604081101561037a57600080fd5b506001600160a01b038135169060200135610950565b6103126109d2565b61021c600480360360408110156103ae57600080fd5b506001600160a01b038135169060200135610ab2565b610312600480360360608110156103da57600080fd5b506001600160a01b03813581169160208101359091169060400135610b0e565b6103126004803603602081101561041057600080fd5b5035610b29565b61021c6004803603602081101561042d57600080fd5b50356001600160a01b0316610b7d565b61031c6004803603602081101561045357600080fd5b5035610b96565b61021c6004803603606081101561047057600080fd5b6001600160a01b03823516916020810135918101906060810160408201356401000000008111156104a057600080fd5b8201836020820111156104b257600080fd5b803590602001918460018302840111640100000000831117156104d457600080fd5b91908080601f016020809104026020016040519081016040528093929190818152602001838380828437600092019190915250929550610bff945050505050565b61021c610c66565b6102ca6004803603602081101561053357600080fd5b5035610c6f565b610312610cc6565b61031c6004803603602081101561055857600080fd5b50356001600160a01b0316610cd1565b610312610d3c565b6103126004803603602081101561058657600080fd5b50356001600160a01b0316610de8565b610312610e38565b6102ca610f12565b61021c610f26565b610238610f3c565b610312600480360360208110156105cc57600080fd5b50356001600160a01b0316610f9d565b610312610fed565b610312600480360360408110156105fa57600080fd5b506001600160a01b0381351690602001351515610ff6565b61021c6004803603602081101561062857600080fd5b50356001600160a01b0316611051565b6103126004803603608081101561064e57600080fd5b6001600160a01b0382358116926020810135909116916040820135919081019060808101606082013564010000000081111561068957600080fd5b82018360208201111561069b57600080fd5b803590602001918460018302840111640100000000831117156106bd57600080fd5b91908080601f016020809104026020016040519081016040528093929190818152602001838380828437600092019190915250929550611064945050505050565b6102386004803603602081101561071457600080fd5b50356110bf565b61021c6004803603604081101561073157600080fd5b506001600160a01b03813581169160200135166111a7565b6103126004803603602081101561075f57600080fd5b50356001600160a01b03166111d5565b6001600160e01b03191660009081526020819052604090205460ff1690565b60098054604080516020601f600260001961010060018816150201909516949094049384018190048102820181019092528281526060939092909183018282801561081a5780601f106107ef5761010080835404028352916020019161081a565b820191906000526020600020905b8154815290600101906020018083116107fd57829003601f168201915b505050505090505b90565b60006108308261123a565b61086e57604051600160e51b62461bcd02815260040180806020018281038252602b8152602001806127f8602b913960400191505060405180910390fd5b506000908152600260205260409020546001600160a01b031690565b600e5460ff16156108db5760408051600160e51b62461bcd0281526020600482015260106024820152600160821b6f14185d5cd8589b194e881c185d5cd95902604482015290519081900360640190fd5b6108e58282611257565b5050565b60075490565b600e5460ff16156109405760408051600160e51b62461bcd0281526020600482015260106024820152600160821b6f14185d5cd8589b194e881c185d5cd95902604482015290519081900360640190fd5b61094b838383611384565b505050565b600061095b83610cd1565b821061099b57604051600160e51b62461bcd02815260040180806020018281038252602a8152602001806125d9602a913960400191505060405180910390fd5b6001600160a01b03831660009081526005602052604090208054839081106109bf57fe5b9060005260206000200154905092915050565b6109db33610b7d565b610a1957604051600160e51b62461bcd0281526004018080602001828103825260308152602001806125606030913960400191505060405180910390fd5b600e5460ff16610a735760408051600160e51b62461bcd02815260206004820152601460248201527f5061757361626c653a206e6f7420706175736564000000000000000000000000604482015290519081900360640190fd5b600e805460ff191690556040805133815290517f5db9ee0a495bf2e6ff9c91a7834c1ba4fdd244a5e8aa4e537bd38aeae4b073aa9181900360200190a1565b6000610abd33611051565b610afb57604051600160e51b62461bcd0281526004018080602001828103825260308152602001806126036030913960400191505060405180910390fd5b610b0583836113d7565b50600192915050565b61094b83838360405180602001604052806000815250611064565b610b3333826113f4565b610b7157604051600160e51b62461bcd02815260040180806020018281038252602f815260200180612729602f913960400191505060405180910390fd5b610b7a8161149b565b50565b6000610b90600d8363ffffffff6114ad16565b92915050565b6000610ba06108e9565b8210610be057604051600160e51b62461bcd02815260040180806020018281038252602b8152602001806127a9602b913960400191505060405180910390fd5b60078281548110610bed57fe5b90600052602060002001549050919050565b6000610c0a33611051565b610c4857604051600160e51b62461bcd0281526004018080602001828103825260308152602001806126036030913960400191505060405180910390fd5b610c5284846113d7565b610c5c8383611517565b5060019392505050565b600e5460ff1690565b6000818152600160205260408120546001600160a01b031680610b9057604051600160e51b62461bcd0281526004018080602001828103825260288152602001806126546028913960400191505060405180910390fd5b610ccf3361157d565b565b60006001600160a01b038216610d1b57604051600160e51b62461bcd0281526004018080602001828103825260298152602001806127586029913960400191505060405180910390fd5b6001600160a01b0382166000908152600360205260409020610b90906115c5565b610d44610f26565b610d985760408051600160e51b62461bcd02815260206004820181905260248201527f4f776e61626c653a2063616c6c6572206973206e6f7420746865206f776e6572604482015290519081900360640190fd5b600e5460405160009161010090046001600160a01b0316907f8be0079c531659141344cd1fd0a4f28419497f9722a3daafe3b4186f6b6457e0908390a3600e8054610100600160a81b0319169055565b610df133610b7d565b610e2f57604051600160e51b62461bcd0281526004018080602001828103825260308152602001806125606030913960400191505060405180910390fd5b610b7a816115c9565b610e4133610b7d565b610e7f57604051600160e51b62461bcd0281526004018080602001828103825260308152602001806125606030913960400191505060405180910390fd5b600e5460ff1615610ed05760408051600160e51b62461bcd0281526020600482015260106024820152600160821b6f14185d5cd8589b194e881c185d5cd95902604482015290519081900360640190fd5b600e805460ff191660011790556040805133815290517f62e78cea01bee320cd4e420270b5ea74000d11b0c9f74754ebdbfc544b05a2589181900360200190a1565b600e5461010090046001600160a01b031690565b600e5461010090046001600160a01b0316331490565b600a8054604080516020601f600260001961010060018816150201909516949094049384018190048102820181019092528281526060939092909183018282801561081a5780601f106107ef5761010080835404028352916020019161081a565b610fa633611051565b610fe457604051600160e51b62461bcd0281526004018080602001828103825260308152602001806126036030913960400191505060405180910390fd5b610b7a81611611565b610ccf33611659565b600e5460ff16156110475760408051600160e51b62461bcd0281526020600482015260106024820152600160821b6f14185d5cd8589b194e881c185d5cd95902604482015290519081900360640190fd5b6108e582826116a1565b6000610b90600c8363ffffffff6114ad16565b61106f8484846108ef565b61107b84848484611770565b6110b957604051600160e51b62461bcd0281526004018080602001828103825260308152602001806126f96030913960400191505060405180910390fd5b50505050565b60606110ca8261123a565b61110857604051600160e51b62461bcd02815260040180806020018281038252602e815260200180612532602e913960400191505060405180910390fd5b6000828152600b602090815260409182902080548351601f60026000196101006001861615020190931692909204918201849004840281018401909452808452909183018282801561119b5780601f106111705761010080835404028352916020019161119b565b820191906000526020600020905b81548152906001019060200180831161117e57829003601f168201915b50505050509050919050565b6001600160a01b03918216600090815260046020908152604080832093909416825291909152205460ff1690565b6111dd610f26565b6112315760408051600160e51b62461bcd02815260206004820181905260248201527f4f776e61626c653a2063616c6c6572206973206e6f7420746865206f776e6572604482015290519081900360640190fd5b610b7a81611b53565b6000908152600160205260409020546001600160a01b0316151590565b600061126282610c6f565b9050806001600160a01b0316836001600160a01b031614156112ce5760408051600160e51b62461bcd02815260206004820181905260248201527f4b495031373a20617070726f76616c20746f2063757272656e74206f776e6572604482015290519081900360640190fd5b336001600160a01b03821614806112ea57506112ea81336111a7565b61132857604051600160e51b62461bcd0281526004018080602001828103825260378152602001806128236037913960400191505060405180910390fd5b60008281526002602052604080822080546001600160a01b0319166001600160a01b0387811691821790925591518593918516917f8c5be1e5ebec7d5bd14f71427d1e84f3dd0314c0f7b2291e5b200ac8c7c3b92591a4505050565b61138e33826113f4565b6113cc57604051600160e51b62461bcd0281526004018080602001828103825260308152602001806126a76030913960400191505060405180910390fd5b61094b838383611c02565b6113e18282611c21565b6113eb8282611d58565b6108e581611d96565b60006113ff8261123a565b61143d57604051600160e51b62461bcd02815260040180806020018281038252602b81526020018061285a602b913960400191505060405180910390fd5b600061144883610c6f565b9050806001600160a01b0316846001600160a01b031614806114835750836001600160a01b031661147884610825565b6001600160a01b0316145b80611493575061149381856111a7565b949350505050565b610b7a6114a782610c6f565b82611dda565b60006001600160a01b0382166114f757604051600160e51b62461bcd0281526004018080602001828103825260228152602001806126d76022913960400191505060405180910390fd5b506001600160a01b03166000908152602091909152604090205460ff1690565b6115208261123a565b61155e57604051600160e51b62461bcd02815260040180806020018281038252602b81526020018061267c602b913960400191505060405180910390fd5b6000828152600b60209081526040909120825161094b92840190612435565b61158e600d8263ffffffff611e2216565b6040516001600160a01b038216907fcd265ebaf09df2871cc7bd4133404a235ba12eff2041bb89d9c714a2621c7c7e90600090a250565b5490565b6115da600d8263ffffffff611e8c16565b6040516001600160a01b038216907f6719d08c1888103bea251a4ed56406bd0c3e69723c8a1686e017e7bbe159b6f890600090a250565b611622600c8263ffffffff611e8c16565b6040516001600160a01b038216907f6ae172837ea30b801fbfcdd4108aa1d5bf8ff775444fd70256b44e6bf3dfc3f690600090a250565b61166a600c8263ffffffff611e2216565b6040516001600160a01b038216907fe94479a9f7e1952cc78f2d6baab678adc1b772d936c6583def489e524cb6669290600090a250565b6001600160a01b0382163314156117025760408051600160e51b62461bcd02815260206004820152601860248201527f4b495031373a20617070726f766520746f2063616c6c65720000000000000000604482015290519081900360640190fd5b3360008181526004602090815260408083206001600160a01b03871680855290835292819020805460ff1916861515908117909155815190815290519293927f17307eab39ab6107e8899845ad3d59bd9653f200f220920489ca2b5937696c31929181900390910190a35050565b6000806060611787866001600160a01b0316611f10565b61179657600192505050611493565b856001600160a01b031663150b7a0260e01b3389888860405160240180856001600160a01b03166001600160a01b03168152602001846001600160a01b03166001600160a01b0316815260200183815260200180602001828103825283818151815260200191508051906020019080838360005b8381101561182257818101518382015260200161180a565b50505050905090810190601f16801561184f5780820380516001836020036101000a031916815260200191505b5060408051601f198184030181529181526020820180516001600160e01b03166001600160e01b0319909a16999099178952518151919890975087965094509250829150849050835b602083106118b75780518252601f199092019160209182019101611898565b6001836020036101000a0380198251168184511680821785525050505050509050019150506000604051808303816000865af19150503d8060008114611919576040519150601f19603f3d011682016040523d82523d6000602084013e61191e565b606091505b50805191935091501580159061195e57508051600160e11b630a85bd0102906020808401919081101561195057600080fd5b50516001600160e01b031916145b1561196e57600192505050611493565b856001600160a01b0316636745782b60e01b3389888860405160240180856001600160a01b03166001600160a01b03168152602001846001600160a01b03166001600160a01b0316815260200183815260200180602001828103825283818151815260200191508051906020019080838360005b838110156119fa5781810151838201526020016119e2565b50505050905090810190601f168015611a275780820380516001836020036101000a031916815260200191505b5060408051601f198184030181529181526020820180516001600160e01b03166001600160e01b0319909a16999099178952518151919890975087965094509250829150849050835b60208310611a8f5780518252601f199092019160209182019101611a70565b6001836020036101000a0380198251168184511680821785525050505050509050019150506000604051808303816000865af19150503d8060008114611af1576040519150601f19603f3d011682016040523d82523d6000602084013e611af6565b606091505b508051919350915015801590611b3657508051600160e01b636745782b029060208084019190811015611b2857600080fd5b50516001600160e01b031916145b15611b4657600192505050611493565b5060009695505050505050565b6001600160a01b038116611b9b57604051600160e51b62461bcd0281526004018080602001828103825260268152602001806125906026913960400191505060405180910390fd5b600e546040516001600160a01b0380841692610100900416907f8be0079c531659141344cd1fd0a4f28419497f9722a3daafe3b4186f6b6457e090600090a3600e80546001600160a01b0390921661010002610100600160a81b0319909216919091179055565b611c0d838383611f16565b611c178382612060565b61094b8282611d58565b6001600160a01b038216611c7f5760408051600160e51b62461bcd02815260206004820152601f60248201527f4b495031373a206d696e7420746f20746865207a65726f206164647265737300604482015290519081900360640190fd5b611c888161123a565b15611cdd5760408051600160e51b62461bcd02815260206004820152601b60248201527f4b495031373a20746f6b656e20616c7265616479206d696e7465640000000000604482015290519081900360640190fd5b600081815260016020908152604080832080546001600160a01b0319166001600160a01b038716908117909155835260039091529020611d1c90612155565b60405181906001600160a01b038416906000907fddf252ad1be2c89b69c2b068fc378daa952ba7f163c4a11628f55a4df523b3ef908290a45050565b6001600160a01b0390911660009081526005602081815260408084208054868652600684529185208290559282526001810183559183529091200155565b600780546000838152600860205260408120829055600182018355919091527fa66cc928b5edb82af9bd49922954155ab7b0942694bea4ce44661d9a8736c6880155565b611de4828261215e565b6000818152600b602052604090205460026000196101006001841615020190911604156108e5576000818152600b602052604081206108e5916124b3565b611e2c82826114ad565b611e6a57604051600160e51b62461bcd0281526004018080602001828103825260218152602001806126336021913960400191505060405180910390fd5b6001600160a01b0316600090815260209190915260409020805460ff19169055565b611e9682826114ad565b15611eeb5760408051600160e51b62461bcd02815260206004820152601f60248201527f526f6c65733a206163636f756e7420616c72656164792068617320726f6c6500604482015290519081900360640190fd5b6001600160a01b0316600090815260209190915260409020805460ff19166001179055565b3b151590565b826001600160a01b0316611f2982610c6f565b6001600160a01b031614611f7157604051600160e51b62461bcd0281526004018080602001828103825260288152602001806127816028913960400191505060405180910390fd5b6001600160a01b038216611fb957604051600160e51b62461bcd0281526004018080602001828103825260238152602001806125b66023913960400191505060405180910390fd5b611fc28161218a565b6001600160a01b0383166000908152600360205260409020611fe3906121c5565b6001600160a01b038216600090815260036020526040902061200490612155565b60008181526001602052604080822080546001600160a01b0319166001600160a01b0386811691821790925591518493918716917fddf252ad1be2c89b69c2b068fc378daa952ba7f163c4a11628f55a4df523b3ef91a4505050565b6001600160a01b03821660009081526005602052604081205461208a90600163ffffffff6121dc16565b600083815260066020526040902054909150808214612125576001600160a01b03841660009081526005602052604081208054849081106120c757fe5b906000526020600020015490508060056000876001600160a01b03166001600160a01b03168152602001908152602001600020838154811061210557fe5b600091825260208083209091019290925591825260069052604090208190555b6001600160a01b038416600090815260056020526040902080549061214e9060001983016124f7565b5050505050565b80546001019055565b6121688282612225565b6121728282612060565b6000818152600660205260408120556108e5816122ff565b6000818152600260205260409020546001600160a01b031615610b7a57600090815260026020526040902080546001600160a01b0319169055565b80546121d890600163ffffffff6121dc16565b9055565b600061221e83836040518060400160405280601e81526020017f536166654d6174683a207375627472616374696f6e206f766572666c6f77000081525061239b565b9392505050565b816001600160a01b031661223882610c6f565b6001600160a01b03161461228057604051600160e51b62461bcd0281526004018080602001828103825260248152602001806127d46024913960400191505060405180910390fd5b6122898161218a565b6001600160a01b03821660009081526003602052604090206122aa906121c5565b60008181526001602052604080822080546001600160a01b0319169055518291906001600160a01b038516907fddf252ad1be2c89b69c2b068fc378daa952ba7f163c4a11628f55a4df523b3ef908390a45050565b60075460009061231690600163ffffffff6121dc16565b6000838152600860205260408120546007805493945090928490811061233857fe5b90600052602060002001549050806007838154811061235357fe5b600091825260208083209091019290925582815260089091526040902082905560078054906123869060001983016124f7565b50505060009182525060086020526040812055565b6000818484111561242d57604051600160e51b62461bcd0281526004018080602001828103825283818151815260200191508051906020019080838360005b838110156123f25781810151838201526020016123da565b50505050905090810190601f16801561241f5780820380516001836020036101000a031916815260200191505b509250505060405180910390fd5b505050900390565b828054600181600116156101000203166002900490600052602060002090601f016020900481019282601f1061247657805160ff19168380011785556124a3565b828001600101855582156124a3579182015b828111156124a3578251825591602001919060010190612488565b506124af929150612517565b5090565b50805460018160011615610100020316600290046000825580601f106124d95750610b7a565b601f016020900490600052602060002090810190610b7a9190612517565b81548183558181111561094b5760008381526020902061094b9181019083015b61082291905b808211156124af576000815560010161251d56fe4b495031374d657461646174613a2055524920717565727920666f72206e6f6e6578697374656e7420746f6b656e506175736572526f6c653a2063616c6c657220646f6573206e6f742068617665207468652050617573657220726f6c654f776e61626c653a206e6577206f776e657220697320746865207a65726f20616464726573734b495031373a207472616e7366657220746f20746865207a65726f20616464726573734b49503137456e756d657261626c653a206f776e657220696e646578206f7574206f6620626f756e64734d696e746572526f6c653a2063616c6c657220646f6573206e6f74206861766520746865204d696e74657220726f6c65526f6c65733a206163636f756e7420646f6573206e6f74206861766520726f6c654b495031373a206f776e657220717565727920666f72206e6f6e6578697374656e7420746f6b656e4b495031374d657461646174613a2055524920736574206f66206e6f6e6578697374656e7420746f6b656e4b495031373a207472616e736665722063616c6c6572206973206e6f74206f776e6572206e6f7220617070726f766564526f6c65733a206163636f756e7420697320746865207a65726f20616464726573734b495031373a207472616e7366657220746f206e6f6e204b49503137526563656976657220696d706c656d656e7465724b495031374275726e61626c653a2063616c6c6572206973206e6f74206f776e6572206e6f7220617070726f7665644b495031373a2062616c616e636520717565727920666f7220746865207a65726f20616464726573734b495031373a207472616e73666572206f6620746f6b656e2074686174206973206e6f74206f776e4b49503137456e756d657261626c653a20676c6f62616c20696e646578206f7574206f6620626f756e64734b495031373a206275726e206f6620746f6b656e2074686174206973206e6f74206f776e4b495031373a20617070726f76656420717565727920666f72206e6f6e6578697374656e7420746f6b656e4b495031373a20617070726f76652063616c6c6572206973206e6f74206f776e6572206e6f7220617070726f76656420666f7220616c6c4b495031373a206f70657261746f7220717565727920666f72206e6f6e6578697374656e7420746f6b656ea165627a7a7230582007664b3dda4bcd7147ac40f7eed22c9e4cc54ce3bf26e3243f57a7af94242d0a0029526f6c65733a206163636f756e7420697320746865207a65726f2061646472657373",
  "source": "pragma solidity ^0.5.0;\r\n\r\nimport \"./KIP17Full.sol\";\r\nimport \"./KIP17MetadataMintable.sol\";\r\nimport \"./KIP17Mintable.sol\";\r\nimport \"./KIP17Burnable.sol\";\r\nimport \"./KIP17Pausable.sol\";\r\nimport \"../../ownership/Ownable.sol\";\r\n\r\ncontract KlayChicken is\r\n    KIP17Full,\r\n    KIP17Mintable,\r\n    KIP17MetadataMintable,\r\n    KIP17Burnable,\r\n    KIP17Pausable,\r\n    Ownable\r\n{\r\n    constructor(string memory name, string memory symbol)\r\n        public\r\n        KIP17Full(name, symbol)\r\n    {}\r\n}\r\n",
  "sourcePath": "C:\\klayContract\\swapGov1\\contracts\\token\\KIP17\\KlayChicken.sol",
  "compiler": {
    "name": "solc",
    "version": "0.5.6+commit.b259423e.Emscripten.clang"
  },
  "schemaVersion": "3.3.3",
  "updatedAt": "2021-11-30T07:46:36.633Z",
  "devdoc": {
    "methods": {
      "balanceOf(address)": {
        "details": "Gets the balance of the specified address.",
        "params": {
          "owner": "address to query the balance of"
        },
        "return": "uint256 representing the amount owned by the passed address"
      },
      "burn(uint256)": {
        "details": "Burns a specific KIP17 token.",
        "params": {
          "tokenId": "uint256 id of the KIP17 token to be burned."
        }
      },
      "getApproved(uint256)": {
        "details": "Gets the approved address for a token ID, or zero if no address set Reverts if the token ID does not exist.",
        "params": {
          "tokenId": "uint256 ID of the token to query the approval of"
        },
        "return": "address currently approved for the given token ID"
      },
      "isApprovedForAll(address,address)": {
        "details": "Tells whether an operator is approved by a given owner.",
        "params": {
          "operator": "operator address which you want to query the approval of",
          "owner": "owner address which you want to query the approval of"
        },
        "return": "bool whether the given operator is approved by the given owner"
      },
      "isOwner()": {
        "details": "Returns true if the caller is the current owner."
      },
      "mint(address,uint256)": {
        "details": "Function to mint tokens.",
        "params": {
          "to": "The address that will receive the minted tokens.",
          "tokenId": "The token id to mint."
        },
        "return": "A boolean that indicates if the operation was successful."
      },
      "mintWithTokenURI(address,uint256,string)": {
        "details": "Function to mint tokens.",
        "params": {
          "to": "The address that will receive the minted tokens.",
          "tokenId": "The token id to mint.",
          "tokenURI": "The token URI of the minted token."
        },
        "return": "A boolean that indicates if the operation was successful."
      },
      "name()": {
        "details": "Gets the token name.",
        "return": "string representing the token name"
      },
      "owner()": {
        "details": "Returns the address of the current owner."
      },
      "ownerOf(uint256)": {
        "details": "Gets the owner of the specified token ID.",
        "params": {
          "tokenId": "uint256 ID of the token to query the owner of"
        },
        "return": "address currently marked as the owner of the given token ID"
      },
      "pause()": {
        "details": "Called by a pauser to pause, triggers stopped state."
      },
      "paused()": {
        "details": "Returns true if the contract is paused, and false otherwise."
      },
      "renounceOwnership()": {
        "details": "Leaves the contract without owner. It will not be possible to call `onlyOwner` functions anymore. Can only be called by the current owner.     * > Note: Renouncing ownership will leave the contract without an owner, thereby removing any functionality that is only available to the owner."
      },
      "safeTransferFrom(address,address,uint256)": {
        "details": "Safely transfers the ownership of a given token ID to another address If the target address is a contract, it must implement `onKIP17Received`, which is called upon a safe transfer, and return the magic value `bytes4(keccak256(\"onKIP17Received(address,address,uint256,bytes)\"))`; otherwise, the transfer is reverted. Requires the msg.sender to be the owner, approved, or operator",
        "params": {
          "from": "current owner of the token",
          "to": "address to receive the ownership of the given token ID",
          "tokenId": "uint256 ID of the token to be transferred"
        }
      },
      "safeTransferFrom(address,address,uint256,bytes)": {
        "details": "Safely transfers the ownership of a given token ID to another address If the target address is a contract, it must implement `onKIP17Received`, which is called upon a safe transfer, and return the magic value `bytes4(keccak256(\"onKIP17Received(address,address,uint256,bytes)\"))`; otherwise, the transfer is reverted. Requires the msg.sender to be the owner, approved, or operator",
        "params": {
          "_data": "bytes data to send along with a safe transfer check",
          "from": "current owner of the token",
          "to": "address to receive the ownership of the given token ID",
          "tokenId": "uint256 ID of the token to be transferred"
        }
      },
      "supportsInterface(bytes4)": {
        "details": "See `IKIP13.supportsInterface`.     * Time complexity O(1), guaranteed to always use less than 30 000 gas."
      },
      "symbol()": {
        "details": "Gets the token symbol.",
        "return": "string representing the token symbol"
      },
      "tokenByIndex(uint256)": {
        "details": "Gets the token ID at a given index of all the tokens in this contract Reverts if the index is greater or equal to the total number of tokens.",
        "params": {
          "index": "uint256 representing the index to be accessed of the tokens list"
        },
        "return": "uint256 token ID at the given index of the tokens list"
      },
      "tokenOfOwnerByIndex(address,uint256)": {
        "details": "Gets the token ID at a given index of the tokens list of the requested owner.",
        "params": {
          "index": "uint256 representing the index to be accessed of the requested tokens list",
          "owner": "address owning the tokens list to be accessed"
        },
        "return": "uint256 token ID at the given index of the tokens list owned by the requested address"
      },
      "tokenURI(uint256)": {
        "details": "Returns an URI for a given token ID. Throws if the token ID does not exist. May return an empty string.",
        "params": {
          "tokenId": "uint256 ID of the token to query"
        }
      },
      "totalSupply()": {
        "details": "Gets the total amount of tokens stored by the contract.",
        "return": "uint256 representing the total amount of tokens"
      },
      "transferOwnership(address)": {
        "details": "Transfers ownership of the contract to a new account (`newOwner`). Can only be called by the current owner."
      },
      "unpause()": {
        "details": "Called by a pauser to unpause, returns to normal state."
      }
    }
  },
  "userdoc": {
    "methods": {}
  }
}