{
  "contractName": "Ornament",
  "abi": [
    {
      "constant": true,
      "inputs": [
        {
          "name": "account",
          "type": "address"
        },
        {
          "name": "id",
          "type": "uint256"
        }
      ],
      "name": "balanceOf",
      "outputs": [
        {
          "name": "",
          "type": "uint256"
        }
      ],
      "payable": false,
      "stateMutability": "view",
      "type": "function"
    },
    {
      "constant": true,
      "inputs": [
        {
          "name": "interfaceId",
          "type": "bytes4"
        }
      ],
      "name": "supportsInterface",
      "outputs": [
        {
          "name": "",
          "type": "bool"
        }
      ],
      "payable": false,
      "stateMutability": "view",
      "type": "function"
    },
    {
      "constant": false,
      "inputs": [
        {
          "name": "from",
          "type": "address"
        },
        {
          "name": "to",
          "type": "address"
        },
        {
          "name": "ids",
          "type": "uint256[]"
        },
        {
          "name": "amounts",
          "type": "uint256[]"
        },
        {
          "name": "data",
          "type": "bytes"
        }
      ],
      "name": "safeBatchTransferFrom",
      "outputs": [],
      "payable": false,
      "stateMutability": "nonpayable",
      "type": "function"
    },
    {
      "constant": true,
      "inputs": [],
      "name": "baseURIBack",
      "outputs": [
        {
          "name": "",
          "type": "string"
        }
      ],
      "payable": false,
      "stateMutability": "view",
      "type": "function"
    },
    {
      "constant": false,
      "inputs": [
        {
          "name": "_id",
          "type": "uint256"
        },
        {
          "name": "_initialSupply",
          "type": "uint256"
        },
        {
          "name": "_uri",
          "type": "string"
        }
      ],
      "name": "create",
      "outputs": [
        {
          "name": "",
          "type": "bool"
        }
      ],
      "payable": false,
      "stateMutability": "nonpayable",
      "type": "function"
    },
    {
      "constant": true,
      "inputs": [
        {
          "name": "accounts",
          "type": "address[]"
        },
        {
          "name": "ids",
          "type": "uint256[]"
        }
      ],
      "name": "balanceOfBatch",
      "outputs": [
        {
          "name": "",
          "type": "uint256[]"
        }
      ],
      "payable": false,
      "stateMutability": "view",
      "type": "function"
    },
    {
      "constant": false,
      "inputs": [
        {
          "name": "account",
          "type": "address"
        },
        {
          "name": "ids",
          "type": "uint256[]"
        },
        {
          "name": "values",
          "type": "uint256[]"
        }
      ],
      "name": "burnBatch",
      "outputs": [],
      "payable": false,
      "stateMutability": "nonpayable",
      "type": "function"
    },
    {
      "constant": true,
      "inputs": [],
      "name": "baseURI",
      "outputs": [
        {
          "name": "",
          "type": "string"
        }
      ],
      "payable": false,
      "stateMutability": "view",
      "type": "function"
    },
    {
      "constant": false,
      "inputs": [],
      "name": "renounceOwnership",
      "outputs": [],
      "payable": false,
      "stateMutability": "nonpayable",
      "type": "function"
    },
    {
      "constant": false,
      "inputs": [
        {
          "name": "_id",
          "type": "uint256"
        },
        {
          "name": "_to",
          "type": "address"
        },
        {
          "name": "_value",
          "type": "uint256"
        }
      ],
      "name": "mint",
      "outputs": [],
      "payable": false,
      "stateMutability": "nonpayable",
      "type": "function"
    },
    {
      "constant": true,
      "inputs": [],
      "name": "owner",
      "outputs": [
        {
          "name": "",
          "type": "address"
        }
      ],
      "payable": false,
      "stateMutability": "view",
      "type": "function"
    },
    {
      "constant": true,
      "inputs": [],
      "name": "isOwner",
      "outputs": [
        {
          "name": "",
          "type": "bool"
        }
      ],
      "payable": false,
      "stateMutability": "view",
      "type": "function"
    },
    {
      "constant": false,
      "inputs": [
        {
          "name": "account",
          "type": "address"
        }
      ],
      "name": "addMinter",
      "outputs": [],
      "payable": false,
      "stateMutability": "nonpayable",
      "type": "function"
    },
    {
      "constant": false,
      "inputs": [],
      "name": "renounceMinter",
      "outputs": [],
      "payable": false,
      "stateMutability": "nonpayable",
      "type": "function"
    },
    {
      "constant": false,
      "inputs": [
        {
          "name": "operator",
          "type": "address"
        },
        {
          "name": "approved",
          "type": "bool"
        }
      ],
      "name": "setApprovalForAll",
      "outputs": [],
      "payable": false,
      "stateMutability": "nonpayable",
      "type": "function"
    },
    {
      "constant": true,
      "inputs": [
        {
          "name": "account",
          "type": "address"
        }
      ],
      "name": "isMinter",
      "outputs": [
        {
          "name": "",
          "type": "bool"
        }
      ],
      "payable": false,
      "stateMutability": "view",
      "type": "function"
    },
    {
      "constant": true,
      "inputs": [
        {
          "name": "_tokenId",
          "type": "uint256"
        }
      ],
      "name": "totalSupply",
      "outputs": [
        {
          "name": "",
          "type": "uint256"
        }
      ],
      "payable": false,
      "stateMutability": "view",
      "type": "function"
    },
    {
      "constant": true,
      "inputs": [
        {
          "name": "",
          "type": "uint256"
        }
      ],
      "name": "creators",
      "outputs": [
        {
          "name": "",
          "type": "address"
        }
      ],
      "payable": false,
      "stateMutability": "view",
      "type": "function"
    },
    {
      "constant": false,
      "inputs": [
        {
          "name": "_id",
          "type": "uint256"
        },
        {
          "name": "_toList",
          "type": "address[]"
        },
        {
          "name": "_values",
          "type": "uint256[]"
        }
      ],
      "name": "mint",
      "outputs": [],
      "payable": false,
      "stateMutability": "nonpayable",
      "type": "function"
    },
    {
      "constant": false,
      "inputs": [
        {
          "name": "_to",
          "type": "address"
        },
        {
          "name": "_ids",
          "type": "uint256[]"
        },
        {
          "name": "_values",
          "type": "uint256[]"
        }
      ],
      "name": "mintBatch",
      "outputs": [],
      "payable": false,
      "stateMutability": "nonpayable",
      "type": "function"
    },
    {
      "constant": true,
      "inputs": [
        {
          "name": "account",
          "type": "address"
        },
        {
          "name": "operator",
          "type": "address"
        }
      ],
      "name": "isApprovedForAll",
      "outputs": [
        {
          "name": "",
          "type": "bool"
        }
      ],
      "payable": false,
      "stateMutability": "view",
      "type": "function"
    },
    {
      "constant": false,
      "inputs": [
        {
          "name": "from",
          "type": "address"
        },
        {
          "name": "to",
          "type": "address"
        },
        {
          "name": "id",
          "type": "uint256"
        },
        {
          "name": "amount",
          "type": "uint256"
        },
        {
          "name": "data",
          "type": "bytes"
        }
      ],
      "name": "safeTransferFrom",
      "outputs": [],
      "payable": false,
      "stateMutability": "nonpayable",
      "type": "function"
    },
    {
      "constant": false,
      "inputs": [
        {
          "name": "newOwner",
          "type": "address"
        }
      ],
      "name": "transferOwnership",
      "outputs": [],
      "payable": false,
      "stateMutability": "nonpayable",
      "type": "function"
    },
    {
      "constant": false,
      "inputs": [
        {
          "name": "account",
          "type": "address"
        },
        {
          "name": "id",
          "type": "uint256"
        },
        {
          "name": "value",
          "type": "uint256"
        }
      ],
      "name": "burn",
      "outputs": [],
      "payable": false,
      "stateMutability": "nonpayable",
      "type": "function"
    },
    {
      "inputs": [],
      "payable": false,
      "stateMutability": "nonpayable",
      "type": "constructor"
    },
    {
      "anonymous": false,
      "inputs": [
        {
          "indexed": true,
          "name": "account",
          "type": "address"
        }
      ],
      "name": "MinterAdded",
      "type": "event"
    },
    {
      "anonymous": false,
      "inputs": [
        {
          "indexed": true,
          "name": "account",
          "type": "address"
        }
      ],
      "name": "MinterRemoved",
      "type": "event"
    },
    {
      "anonymous": false,
      "inputs": [
        {
          "indexed": true,
          "name": "operator",
          "type": "address"
        },
        {
          "indexed": true,
          "name": "from",
          "type": "address"
        },
        {
          "indexed": true,
          "name": "to",
          "type": "address"
        },
        {
          "indexed": false,
          "name": "id",
          "type": "uint256"
        },
        {
          "indexed": false,
          "name": "value",
          "type": "uint256"
        }
      ],
      "name": "TransferSingle",
      "type": "event"
    },
    {
      "anonymous": false,
      "inputs": [
        {
          "indexed": true,
          "name": "operator",
          "type": "address"
        },
        {
          "indexed": true,
          "name": "from",
          "type": "address"
        },
        {
          "indexed": true,
          "name": "to",
          "type": "address"
        },
        {
          "indexed": false,
          "name": "ids",
          "type": "uint256[]"
        },
        {
          "indexed": false,
          "name": "values",
          "type": "uint256[]"
        }
      ],
      "name": "TransferBatch",
      "type": "event"
    },
    {
      "anonymous": false,
      "inputs": [
        {
          "indexed": true,
          "name": "account",
          "type": "address"
        },
        {
          "indexed": true,
          "name": "operator",
          "type": "address"
        },
        {
          "indexed": false,
          "name": "approved",
          "type": "bool"
        }
      ],
      "name": "ApprovalForAll",
      "type": "event"
    },
    {
      "anonymous": false,
      "inputs": [
        {
          "indexed": false,
          "name": "value",
          "type": "string"
        },
        {
          "indexed": true,
          "name": "id",
          "type": "uint256"
        }
      ],
      "name": "URI",
      "type": "event"
    },
    {
      "anonymous": false,
      "inputs": [
        {
          "indexed": true,
          "name": "previousOwner",
          "type": "address"
        },
        {
          "indexed": true,
          "name": "newOwner",
          "type": "address"
        }
      ],
      "name": "OwnershipTransferred",
      "type": "event"
    },
    {
      "constant": true,
      "inputs": [
        {
          "name": "tokenId",
          "type": "uint256"
        }
      ],
      "name": "uri",
      "outputs": [
        {
          "name": "",
          "type": "string"
        }
      ],
      "payable": false,
      "stateMutability": "view",
      "type": "function"
    },
    {
      "constant": false,
      "inputs": [
        {
          "name": "_baseURI",
          "type": "string"
        }
      ],
      "name": "setBaseURI",
      "outputs": [],
      "payable": false,
      "stateMutability": "nonpayable",
      "type": "function"
    },
    {
      "constant": false,
      "inputs": [
        {
          "name": "_baseURIBack",
          "type": "string"
        }
      ],
      "name": "setBaseURIBack",
      "outputs": [],
      "payable": false,
      "stateMutability": "nonpayable",
      "type": "function"
    },
    {
      "constant": false,
      "inputs": [
        {
          "name": "adrs",
          "type": "address[]"
        },
        {
          "name": "_id",
          "type": "uint256"
        }
      ],
      "name": "massTransfer",
      "outputs": [],
      "payable": false,
      "stateMutability": "nonpayable",
      "type": "function"
    }
  ],
  "bytecode": "0x60e0604052602a6080818152906200427560a03980516200002991600991602090910190620003e7565b506040805180820190915260058082527f2e6a736f6e00000000000000000000000000000000000000000000000000000060209092019182526200007091600a91620003e7565b503480156200007e57600080fd5b506040518060600160405280603381526020016200429f60339139600080546001600160a01b03191633178082556040516001600160a01b039190911691907f8be0079c531659141344cd1fd0a4f28419497f9722a3daafe3b4186f6b6457e0908290a3620000fa6301ffc9a760e01b6200018360201b60201c565b6200010b816200025560201b60201c565b62000123636433ca1f60e01b6200018360201b60201c565b6200013b630e89341c60e01b6200018360201b60201c565b5062000154639e094e9e60e01b6200018360201b60201c565b62000165336200026e60201b60201c565b6200017d63dfd9d9ec60e01b6200018360201b60201c565b6200048c565b7fffffffff0000000000000000000000000000000000000000000000000000000080821614156200021557604080517f08c379a000000000000000000000000000000000000000000000000000000000815260206004820152601b60248201527f4b495031333a20696e76616c696420696e746572666163652069640000000000604482015290519081900360640190fd5b7fffffffff00000000000000000000000000000000000000000000000000000000166000908152600160208190526040909120805460ff19169091179055565b80516200026a906005906020840190620003e7565b5050565b62000289816006620002c060201b620038d91790919060201c565b6040516001600160a01b038216907f6ae172837ea30b801fbfcdd4108aa1d5bf8ff775444fd70256b44e6bf3dfc3f690600090a250565b620002d282826200036460201b60201c565b156200033f57604080517f08c379a000000000000000000000000000000000000000000000000000000000815260206004820152601f60248201527f526f6c65733a206163636f756e7420616c72656164792068617320726f6c6500604482015290519081900360640190fd5b6001600160a01b0316600090815260209190915260409020805460ff19166001179055565b60006001600160a01b038216620003c7576040517f08c379a0000000000000000000000000000000000000000000000000000000008152600401808060200182810382526022815260200180620042d26022913960400191505060405180910390fd5b506001600160a01b03166000908152602091909152604090205460ff1690565b828054600181600116156101000203166002900490600052602060002090601f016020900481019282601f106200042a57805160ff19168380011785556200045a565b828001600101855582156200045a579182015b828111156200045a5782518255916020019190600101906200043d565b50620004689291506200046c565b5090565b6200048991905b8082111562000468576000815560010162000473565b90565b613dd9806200049c6000396000f3fe608060405234801561001057600080fd5b50600436106101c35760003560e01c80638f32d59b116100f9578063cd53d08e11610097578063e985e9c511610071578063e985e9c514610d31578063f242432a14610d5f578063f2fde38b14610e28578063f5298aca14610e4e576101c3565b8063cd53d08e14610ab7578063cfa84fc114610ad4578063d81d0a1514610bfe576101c3565b8063a22cb465116100d3578063a22cb465146109d8578063aa271e1a14610a06578063bbd32de014610a2c578063bd85b03914610a9a576101c3565b80638f32d59b146109a2578063983b2d56146109aa57806398650275146109d0576101c3565b80634e1273f4116101665780636c0360eb116101405780636c0360eb1461093c578063715018a614610944578063836a10401461094c5780638da5cb5b1461097e576101c3565b80634e1273f4146105f257806355f804b3146107655780636b20c45414610809576101c3565b80632eb2c2d6116101a25780632eb2c2d6146102d3578063346c810c146104965780634b068c781461049e5780634d1a505e1461054e576101c3565b8062fdd58e146101c857806301ffc9a7146102065780630e89341c14610241575b600080fd5b6101f4600480360360408110156101de57600080fd5b506001600160a01b038135169060200135610e80565b60408051918252519081900360200190f35b61022d6004803603602081101561021c57600080fd5b50356001600160e01b031916610ef2565b604080519115158252519081900360200190f35b61025e6004803603602081101561025757600080fd5b5035610f15565b6040805160208082528351818301528351919283929083019185019080838360005b83811015610298578181015183820152602001610280565b50505050905090810190601f1680156102c55780820380516001836020036101000a031916815260200191505b509250505060405180910390f35b610494600480360360a08110156102e957600080fd5b6001600160a01b038235811692602081013590911691810190606081016040820135600160201b81111561031c57600080fd5b82018360208201111561032e57600080fd5b803590602001918460208302840111600160201b8311171561034f57600080fd5b9190808060200260200160405190810160405280939291908181526020018383602002808284376000920191909152509295949360208101935035915050600160201b81111561039e57600080fd5b8201836020820111156103b057600080fd5b803590602001918460208302840111600160201b831117156103d157600080fd5b9190808060200260200160405190810160405280939291908181526020018383602002808284376000920191909152509295949360208101935035915050600160201b81111561042057600080fd5b82018360208201111561043257600080fd5b803590602001918460018302840111600160201b8311171561045357600080fd5b91908080601f0160208091040260200160405190810160405280939291908181526020018383808284376000920191909152509295506111cb945050505050565b005b61025e611515565b61022d600480360360608110156104b457600080fd5b813591602081013591810190606081016040820135600160201b8111156104da57600080fd5b8201836020820111156104ec57600080fd5b803590602001918460018302840111600160201b8311171561050d57600080fd5b91908080601f0160208091040260200160405190810160405280939291908181526020018383808284376000920191909152509295506115a3945050505050565b6104946004803603602081101561056457600080fd5b810190602081018135600160201b81111561057e57600080fd5b82018360208201111561059057600080fd5b803590602001918460018302840111600160201b831117156105b157600080fd5b91908080601f016020809104026020016040519081016040528093929190818152602001838380828437600092019190915250929550611750945050505050565b6107156004803603604081101561060857600080fd5b810190602081018135600160201b81111561062257600080fd5b82018360208201111561063457600080fd5b803590602001918460208302840111600160201b8311171561065557600080fd5b9190808060200260200160405190810160405280939291908181526020018383602002808284376000920191909152509295949360208101935035915050600160201b8111156106a457600080fd5b8201836020820111156106b657600080fd5b803590602001918460208302840111600160201b831117156106d757600080fd5b9190808060200260200160405190810160405280939291908181526020018383602002808284376000920191909152509295506117b1945050505050565b60408051602080825283518183015283519192839290830191858101910280838360005b83811015610751578181015183820152602001610739565b505050509050019250505060405180910390f35b6104946004803603602081101561077b57600080fd5b810190602081018135600160201b81111561079557600080fd5b8201836020820111156107a757600080fd5b803590602001918460018302840111600160201b831117156107c857600080fd5b91908080601f01602080910402602001604051908101604052809392919081815260200183838082843760009201919091525092955061191e945050505050565b6104946004803603606081101561081f57600080fd5b6001600160a01b038235169190810190604081016020820135600160201b81111561084957600080fd5b82018360208201111561085b57600080fd5b803590602001918460208302840111600160201b8311171561087c57600080fd5b9190808060200260200160405190810160405280939291908181526020018383602002808284376000920191909152509295949360208101935035915050600160201b8111156108cb57600080fd5b8201836020820111156108dd57600080fd5b803590602001918460208302840111600160201b831117156108fe57600080fd5b91908080602002602001604051908101604052809392919081815260200183836020028082843760009201919091525092955061197b945050505050565b61025e6119f7565b610494611a52565b6104946004803603606081101561096257600080fd5b508035906001600160a01b036020820135169060400135611ae6565b610986611ba5565b604080516001600160a01b039092168252519081900360200190f35b61022d611bb5565b610494600480360360208110156109c057600080fd5b50356001600160a01b0316611bc6565b610494611c19565b610494600480360360408110156109ee57600080fd5b506001600160a01b0381351690602001351515611c24565b61022d60048036036020811015610a1c57600080fd5b50356001600160a01b0316611d16565b61049460048036036040811015610a4257600080fd5b810190602081018135600160201b811115610a5c57600080fd5b820183602082011115610a6e57600080fd5b803590602001918460208302840111600160201b83111715610a8f57600080fd5b919350915035611d2f565b6101f460048036036020811015610ab057600080fd5b5035611d92565b61098660048036036020811015610acd57600080fd5b5035611da4565b61049460048036036060811015610aea57600080fd5b81359190810190604081016020820135600160201b811115610b0b57600080fd5b820183602082011115610b1d57600080fd5b803590602001918460208302840111600160201b83111715610b3e57600080fd5b9190808060200260200160405190810160405280939291908181526020018383602002808284376000920191909152509295949360208101935035915050600160201b811115610b8d57600080fd5b820183602082011115610b9f57600080fd5b803590602001918460208302840111600160201b83111715610bc057600080fd5b919080806020026020016040519081016040528093929190818152602001838360200280828437600092019190915250929550611dbf945050505050565b61049460048036036060811015610c1457600080fd5b6001600160a01b038235169190810190604081016020820135600160201b811115610c3e57600080fd5b820183602082011115610c5057600080fd5b803590602001918460208302840111600160201b83111715610c7157600080fd5b9190808060200260200160405190810160405280939291908181526020018383602002808284376000920191909152509295949360208101935035915050600160201b811115610cc057600080fd5b820183602082011115610cd257600080fd5b803590602001918460208302840111600160201b83111715610cf357600080fd5b919080806020026020016040519081016040528093929190818152602001838360200280828437600092019190915250929550611f0d945050505050565b61022d60048036036040811015610d4757600080fd5b506001600160a01b0381358116916020013516611ff4565b610494600480360360a0811015610d7557600080fd5b6001600160a01b03823581169260208101359091169160408201359160608101359181019060a081016080820135600160201b811115610db457600080fd5b820183602082011115610dc657600080fd5b803590602001918460018302840111600160201b83111715610de757600080fd5b91908080601f016020809104026020016040519081016040528093929190818152602001838380828437600092019190915250929550612022945050505050565b61049460048036036020811015610e3e57600080fd5b50356001600160a01b0316612237565b61049460048036036060811015610e6457600080fd5b506001600160a01b03813516906020810135906040013561228a565b60006001600160a01b038316610eca57604051600160e51b62461bcd028152600401808060200182810382526029815260200180613b1e6029913960400191505060405180910390fd5b5060009081526002602090815260408083206001600160a01b03949094168352929052205490565b6001600160e01b0319811660009081526001602052604090205460ff165b919050565b6060610f2082612301565b610f5e57604051600160e51b62461bcd02815260040180806020018281038252602e815260200180613a87602e913960400191505060405180910390fd5b60098054604080516020601f6002600019610100600188161502019095169490940493840181900481028201810190925282815260609390929091830182828015610fea5780601f10610fbf57610100808354040283529160200191610fea565b820191906000526020600020905b815481529060010190602001808311610fcd57829003601f168201915b5050600a805460408051602060026001851615610100026000190190941693909304601f8101849004840282018401909252818152969750606096879650945091925083018282801561107e5780601f106110535761010080835404028352916020019161107e565b820191906000526020600020905b81548152906001019060200180831161106157829003601f168201915b5050505050905060008590506110938161231e565b600954909350600260001961010060018416150201909116046110c557604051806020016040528060008152506111c1565b8383836040516020018084805190602001908083835b602083106110fa5780518252601f1990920191602091820191016110db565b51815160209384036101000a600019018019909216911617905286519190930192860191508083835b602083106111425780518252601f199092019160209182019101611123565b51815160209384036101000a600019018019909216911617905285519190930192850191508083835b6020831061118a5780518252601f19909201916020918201910161116b565b6001836020036101000a03801982511681845116808217855250505050505090500193505050506040516020818303038152906040525b9695505050505050565b815183511461120e57604051600160e51b62461bcd028152600401808060200182810382526026815260200180613b976026913960400191505060405180910390fd5b6001600160a01b03841661125657604051600160e51b62461bcd028152600401808060200182810382526023815260200180613d266023913960400191505060405180910390fd5b61125e6123ec565b6001600160a01b0316856001600160a01b031614806112895750611289856112846123ec565b611ff4565b6112c757604051600160e51b62461bcd028152600401808060200182810382526030815260200180613bbd6030913960400191505060405180910390fd5b60006112d16123ec565b90506112e181878787878761150d565b60005b84518110156113e75760008582815181106112fb57fe5b60200260200101519050600085838151811061131357fe5b6020026020010151905061138081604051806060016040528060288152602001613bed602891396002600086815260200190815260200160002060008d6001600160a01b03166001600160a01b03168152602001908152602001600020546123f09092919063ffffffff16565b60008381526002602090815260408083206001600160a01b038e811685529252808320939093558a16815220546113b7908261248a565b60009283526002602090815260408085206001600160a01b038c16865290915290922091909155506001016112e4565b50846001600160a01b0316866001600160a01b0316826001600160a01b03167f4a39dc06d4c0dbc64b70af90fd698a233a518aa5d07e595d983b8c0526c8f7fb8787604051808060200180602001838103835285818151815260200191508051906020019060200280838360005b8381101561146d578181015183820152602001611455565b50505050905001838103825284818151815260200191508051906020019060200280838360005b838110156114ac578181015183820152602001611494565b5050505090500194505050505060405180910390a46114cf8187878787876124e7565b61150d57604051600160e51b62461bcd028152600401808060200182810382526036815260200180613d496036913960400191505060405180910390fd5b505050505050565b600a805460408051602060026001851615610100026000190190941693909304601f8101849004840282018401909252818152929183018282801561159b5780601f106115705761010080835404028352916020019161159b565b820191906000526020600020905b81548152906001019060200180831161157e57829003601f168201915b505050505081565b60006115ae33611d16565b6115ec57604051600160e51b62461bcd028152600401808060200182810382526030815260200180613c156030913960400191505060405180910390fd5b6115f584612301565b1561164a5760408051600160e51b62461bcd02815260206004820152601c60248201527f4b495033373a20746f6b656e20616c7265616479206372656174656400000000604482015290519081900360640190fd5b600084815260076020908152604080832080546001600160a01b0319163390811790915581519283019091529181526116879190869086906129d8565b81511561174957600084815260086020908152604090912083516116ad928501906139c7565b50837f6bb7ff708619ba0610cba295a58592e0451dee2622938c8755667688daf3529b836040518080602001828103825283818151815260200191508051906020019080838360005b8381101561170e5781810151838201526020016116f6565b50505050905090810190601f16801561173b5780820380516001836020036101000a031916815260200191505b509250505060405180910390a25b9392505050565b611758611bb5565b61179a5760408051600160e51b62461bcd0281526020600482018190526024820152600080516020613c8d833981519152604482015290519081900360640190fd5b80516117ad90600a9060208401906139c7565b5050565b606081518351146117f657604051600160e51b62461bcd028152600401808060200182810382526027815260200180613a606027913960400191505060405180910390fd5b60608351604051908082528060200260200182016040528015611823578160200160208202803883390190505b50905060005b84518110156119165760006001600160a01b031685828151811061184957fe5b60200260200101516001600160a01b0316141561189a57604051600160e51b62461bcd02815260040180806020018281038252602f815260200180613d7f602f913960400191505060405180910390fd5b600260008583815181106118aa57fe5b6020026020010151815260200190815260200160002060008683815181106118ce57fe5b60200260200101516001600160a01b03166001600160a01b031681526020019081526020016000205482828151811061190357fe5b6020908102919091010152600101611829565b509392505050565b611926611bb5565b6119685760408051600160e51b62461bcd0281526020600482018190526024820152600080516020613c8d833981519152604482015290519081900360640190fd5b80516117ad9060099060208401906139c7565b6119836123ec565b6001600160a01b0316836001600160a01b031614806119a957506119a9836112846123ec565b6119e757604051600160e51b62461bcd028152600401808060200182810382526027815260200180613cff6027913960400191505060405180910390fd5b6119f2838383612b6e565b505050565b6009805460408051602060026001851615610100026000190190941693909304601f8101849004840282018401909252818152929183018282801561159b5780601f106115705761010080835404028352916020019161159b565b611a5a611bb5565b611a9c5760408051600160e51b62461bcd0281526020600482018190526024820152600080516020613c8d833981519152604482015290519081900360640190fd5b600080546040516001600160a01b03909116907f8be0079c531659141344cd1fd0a4f28419497f9722a3daafe3b4186f6b6457e0908390a3600080546001600160a01b0319169055565b611aef33611d16565b611b2d57604051600160e51b62461bcd028152600401808060200182810382526030815260200180613c156030913960400191505060405180910390fd5b611b3683612301565b611b8a5760408051600160e51b62461bcd02815260206004820152601860248201527f4b495033373a206e6f6e6578697374656e7420746f6b656e0000000000000000604482015290519081900360640190fd5b6119f2828483604051806020016040528060008152506129d8565b6000546001600160a01b03165b90565b6000546001600160a01b0316331490565b611bcf33611d16565b611c0d57604051600160e51b62461bcd028152600401808060200182810382526030815260200180613c156030913960400191505060405180910390fd5b611c1681612e7f565b50565b611c2233612ec7565b565b816001600160a01b0316611c366123ec565b6001600160a01b03161415611c7f57604051600160e51b62461bcd028152600401808060200182810382526027815260200180613c666027913960400191505060405180910390fd5b8060036000611c8c6123ec565b6001600160a01b03908116825260208083019390935260409182016000908120918716808252919093529120805460ff191692151592909217909155611cd06123ec565b60408051841515815290516001600160a01b0392909216917f17307eab39ab6107e8899845ad3d59bd9653f200f220920489ca2b5937696c319181900360200190a35050565b6000611d2960068363ffffffff612f0f16565b92915050565b8160005b81811015611d8b57611d7333868684818110611d4b57fe5b905060200201356001600160a01b031685600160405180602001604052806000815250612022565b611d8481600163ffffffff61248a16565b9050611d33565b5050505050565b60009081526004602052604090205490565b6007602052600090815260409020546001600160a01b031681565b611dc833611d16565b611e0657604051600160e51b62461bcd028152600401808060200182810382526030815260200180613c156030913960400191505060405180910390fd5b611e0f83612301565b611e635760408051600160e51b62461bcd02815260206004820152601860248201527f4b495033373a206e6f6e6578697374656e7420746f6b656e0000000000000000604482015290519081900360640190fd5b8051825114611ea657604051600160e51b62461bcd028152600401808060200182810382526029815260200180613b6e6029913960400191505060405180910390fd5b60005b8251811015611f07576000838281518110611ec057fe5b602002602001015190506000838381518110611ed857fe5b60200260200101519050611efd828783604051806020016040528060008152506129d8565b5050600101611ea9565b50505050565b611f1633611d16565b611f5457604051600160e51b62461bcd028152600401808060200182810382526030815260200180613c156030913960400191505060405180910390fd5b60005b8251811015611fd857611f7c838281518110611f6f57fe5b6020026020010151612301565b611fd05760408051600160e51b62461bcd02815260206004820152601860248201527f4b495033373a206e6f6e6578697374656e7420746f6b656e0000000000000000604482015290519081900360640190fd5b600101611f57565b506119f283838360405180602001604052806000815250612f79565b6001600160a01b03918216600090815260036020908152604080832093909416825291909152205460ff1690565b6001600160a01b03841661206a57604051600160e51b62461bcd028152600401808060200182810382526023815260200180613d266023913960400191505060405180910390fd5b6120726123ec565b6001600160a01b0316856001600160a01b031614806120985750612098856112846123ec565b6120d657604051600160e51b62461bcd028152600401808060200182810382526027815260200180613cff6027913960400191505060405180910390fd5b60006120e06123ec565b90506121008187876120f18861328e565b6120fa8861328e565b8761150d565b61214d83604051806060016040528060288152602001613bed6028913960008781526002602090815260408083206001600160a01b038d168452909152902054919063ffffffff6123f016565b60008581526002602090815260408083206001600160a01b038b81168552925280832093909355871681522054612184908461248a565b60008581526002602090815260408083206001600160a01b03808b168086529184529382902094909455805188815291820187905280518a8416938616927fc3d58168c5ae7397731d063d5bbf3d657854427343f4c083240f7aacaa2d0f6292908290030190a46121f98187878787876132d2565b61150d57604051600160e51b62461bcd028152600401808060200182810382526030815260200180613ccf6030913960400191505060405180910390fd5b61223f611bb5565b6122815760408051600160e51b62461bcd0281526020600482018190526024820152600080516020613c8d833981519152604482015290519081900360640190fd5b611c168161369e565b6122926123ec565b6001600160a01b0316836001600160a01b031614806122b857506122b8836112846123ec565b6122f657604051600160e51b62461bcd028152600401808060200182810382526027815260200180613cff6027913960400191505060405180910390fd5b6119f2838383613741565b6000908152600760205260409020546001600160a01b0316151590565b60608161234657506040805180820190915260018152600160fc1b6003026020820152610f10565b8160005b811561235e57600101600a8204915061234a565b6060816040519080825280601f01601f19166020018201604052801561238b576020820181803883390190505b509050815b85156123e357600019016000600a8704600a028703603001905060008160f81b9050808484815181106123bf57fe5b60200101906001600160f81b031916908160001a905350600a880497505050612390565b50949350505050565b3390565b6000818484111561248257604051600160e51b62461bcd0281526004018080602001828103825283818151815260200191508051906020019080838360005b8381101561244757818101518382015260200161242f565b50505050905090810190601f1680156124745780820380516001836020036101000a031916815260200191505b509250505060405180910390fd5b505050900390565b6000828201838110156117495760408051600160e51b62461bcd02815260206004820152601b60248201527f536166654d6174683a206164646974696f6e206f766572666c6f770000000000604482015290519081900360640190fd5b60008060606124fe876001600160a01b03166138d3565b61250d576001925050506111c1565b866001600160a01b031663bc197c8160e01b8a8a89898960405160240180866001600160a01b03166001600160a01b03168152602001856001600160a01b03166001600160a01b03168152602001806020018060200180602001848103845287818151815260200191508051906020019060200280838360005b8381101561259f578181015183820152602001612587565b50505050905001848103835286818151815260200191508051906020019060200280838360005b838110156125de5781810151838201526020016125c6565b50505050905001848103825285818151815260200191508051906020019080838360005b8381101561261a578181015183820152602001612602565b50505050905090810190601f1680156126475780820380516001836020036101000a031916815260200191505b5098505050505050505050604051602081830303815290604052906001600160e01b0319166020820180516001600160e01b0383818316178352505050506040518082805190602001908083835b602083106126b45780518252601f199092019160209182019101612695565b6001836020036101000a0380198251168184511680821785525050505050509050019150506000604051808303816000865af19150503d8060008114612716576040519150601f19603f3d011682016040523d82523d6000602084013e61271b565b606091505b50805191935091501580159061275b57508051600160e01b63bc197c8102906020808401919081101561274d57600080fd5b50516001600160e01b031916145b1561276b576001925050506111c1565b866001600160a01b0316639b49e33260e01b8a8a89898960405160240180866001600160a01b03166001600160a01b03168152602001856001600160a01b03166001600160a01b03168152602001806020018060200180602001848103845287818151815260200191508051906020019060200280838360005b838110156127fd5781810151838201526020016127e5565b50505050905001848103835286818151815260200191508051906020019060200280838360005b8381101561283c578181015183820152602001612824565b50505050905001848103825285818151815260200191508051906020019080838360005b83811015612878578181015183820152602001612860565b50505050905090810190601f1680156128a55780820380516001836020036101000a031916815260200191505b5098505050505050505050604051602081830303815290604052906001600160e01b0319166020820180516001600160e01b0383818316178352505050506040518082805190602001908083835b602083106129125780518252601f1990920191602091820191016128f3565b6001836020036101000a0380198251168184511680821785525050505050509050019150506000604051808303816000865af19150503d8060008114612974576040519150601f19603f3d011682016040523d82523d6000602084013e612979565b606091505b5080519193509150158015906129b957508051600160e11b634da4f1990290602080840191908110156129ab57600080fd5b50516001600160e01b031916145b156129c9576001925050506111c1565b50600098975050505050505050565b6001600160a01b038416612a365760408051600160e51b62461bcd02815260206004820152601f60248201527f4b495033373a206d696e7420746f20746865207a65726f206164647265737300604482015290519081900360640190fd5b6000612a406123ec565b9050612a52816000876120f18861328e565b60008481526002602090815260408083206001600160a01b0389168452909152902054612a85908463ffffffff61248a16565b60008581526002602090815260408083206001600160a01b038a168452825280832093909355868252600490522054612ac4908463ffffffff61248a16565b600085815260046020908152604080832093909355825187815290810186905282516001600160a01b03808a1694908616927fc3d58168c5ae7397731d063d5bbf3d657854427343f4c083240f7aacaa2d0f62929081900390910190a4612b30816000878787876132d2565b611d8b57604051600160e51b62461bcd028152600401808060200182810382526030815260200180613ccf6030913960400191505060405180910390fd5b6001600160a01b038316612bb657604051600160e51b62461bcd028152600401808060200182810382526021815260200180613afd6021913960400191505060405180910390fd5b8051825114612bf957604051600160e51b62461bcd028152600401808060200182810382526026815260200180613b976026913960400191505060405180910390fd5b6000612c036123ec565b9050612c238185600086866040518060200160405280600081525061150d565b60005b8351811015612d9e57612cb8838281518110612c3e57fe5b6020026020010151604051806060016040528060228152602001613adb6022913960026000888681518110612c6f57fe5b602002602001015181526020019081526020016000206000896001600160a01b03166001600160a01b03168152602001908152602001600020546123f09092919063ffffffff16565b60026000868481518110612cc857fe5b602002602001015181526020019081526020016000206000876001600160a01b03166001600160a01b0316815260200190815260200160002081905550612d6b838281518110612d1457fe5b6020026020010151604051806060016040528060278152602001613b476027913960046000888681518110612d4557fe5b60200260200101518152602001908152602001600020546123f09092919063ffffffff16565b60046000868481518110612d7b57fe5b602090810291909101810151825281019190915260400160002055600101612c26565b5060006001600160a01b0316846001600160a01b0316826001600160a01b03167f4a39dc06d4c0dbc64b70af90fd698a233a518aa5d07e595d983b8c0526c8f7fb8686604051808060200180602001838103835285818151815260200191508051906020019060200280838360005b83811015612e25578181015183820152602001612e0d565b50505050905001838103825284818151815260200191508051906020019060200280838360005b83811015612e64578181015183820152602001612e4c565b5050505090500194505050505060405180910390a450505050565b612e9060068263ffffffff6138d916565b6040516001600160a01b038216907f6ae172837ea30b801fbfcdd4108aa1d5bf8ff775444fd70256b44e6bf3dfc3f690600090a250565b612ed860068263ffffffff61395d16565b6040516001600160a01b038216907fe94479a9f7e1952cc78f2d6baab678adc1b772d936c6583def489e524cb6669290600090a250565b60006001600160a01b038216612f5957604051600160e51b62461bcd028152600401808060200182810382526022815260200180613cad6022913960400191505060405180910390fd5b506001600160a01b03166000908152602091909152604090205460ff1690565b6001600160a01b038416612fd75760408051600160e51b62461bcd02815260206004820152601f60248201527f4b495033373a206d696e7420746f20746865207a65726f206164647265737300604482015290519081900360640190fd5b815183511461301a57604051600160e51b62461bcd028152600401808060200182810382526026815260200180613b976026913960400191505060405180910390fd5b60006130246123ec565b90506130358160008787878761150d565b60005b8451811015613166576130b06002600087848151811061305457fe5b602002602001015181526020019081526020016000206000886001600160a01b03166001600160a01b031681526020019081526020016000205485838151811061309a57fe5b602002602001015161248a90919063ffffffff16565b600260008784815181106130c057fe5b602002602001015181526020019081526020016000206000886001600160a01b03166001600160a01b03168152602001908152602001600020819055506131336004600087848151811061311057fe5b602002602001015181526020019081526020016000205485838151811061309a57fe5b6004600087848151811061314357fe5b602090810291909101810151825281019190915260400160002055600101613038565b50846001600160a01b031660006001600160a01b0316826001600160a01b03167f4a39dc06d4c0dbc64b70af90fd698a233a518aa5d07e595d983b8c0526c8f7fb8787604051808060200180602001838103835285818151815260200191508051906020019060200280838360005b838110156131ed5781810151838201526020016131d5565b50505050905001838103825284818151815260200191508051906020019060200280838360005b8381101561322c578181015183820152602001613214565b5050505090500194505050505060405180910390a4613250816000878787876124e7565b611d8b57604051600160e51b62461bcd028152600401808060200182810382526036815260200180613d496036913960400191505060405180910390fd5b6040805160018082528183019092526060918291906020808301908038833901905050905082816000815181106132c157fe5b602090810291909101015292915050565b60008060606132e9876001600160a01b03166138d3565b6132f8576001925050506111c1565b866001600160a01b031663f23a6e6160e01b8a8a89898960405160240180866001600160a01b03166001600160a01b03168152602001856001600160a01b03166001600160a01b0316815260200184815260200183815260200180602001828103825283818151815260200191508051906020019080838360005b8381101561338b578181015183820152602001613373565b50505050905090810190601f1680156133b85780820380516001836020036101000a031916815260200191505b509650505050505050604051602081830303815290604052906001600160e01b0319166020820180516001600160e01b0383818316178352505050506040518082805190602001908083835b602083106134235780518252601f199092019160209182019101613404565b6001836020036101000a0380198251168184511680821785525050505050509050019150506000604051808303816000865af19150503d8060008114613485576040519150601f19603f3d011682016040523d82523d6000602084013e61348a565b606091505b5080519193509150158015906134ca57508051600160e01b63f23a6e610290602080840191908110156134bc57600080fd5b50516001600160e01b031916145b156134da576001925050506111c1565b866001600160a01b031663e78b332560e01b8a8a89898960405160240180866001600160a01b03166001600160a01b03168152602001856001600160a01b03166001600160a01b0316815260200184815260200183815260200180602001828103825283818151815260200191508051906020019080838360005b8381101561356d578181015183820152602001613555565b50505050905090810190601f16801561359a5780820380516001836020036101000a031916815260200191505b509650505050505050604051602081830303815290604052906001600160e01b0319166020820180516001600160e01b0383818316178352505050506040518082805190602001908083835b602083106136055780518252601f1990920191602091820191016135e6565b6001836020036101000a0380198251168184511680821785525050505050509050019150506000604051808303816000865af19150503d8060008114613667576040519150601f19603f3d011682016040523d82523d6000602084013e61366c565b606091505b5080519193509150158015906129b957508051600160e01b63e78b33250290602080840191908110156129ab57600080fd5b6001600160a01b0381166136e657604051600160e51b62461bcd028152600401808060200182810382526026815260200180613ab56026913960400191505060405180910390fd5b600080546040516001600160a01b03808516939216917f8be0079c531659141344cd1fd0a4f28419497f9722a3daafe3b4186f6b6457e091a3600080546001600160a01b0319166001600160a01b0392909216919091179055565b6001600160a01b03831661378957604051600160e51b62461bcd028152600401808060200182810382526021815260200180613afd6021913960400191505060405180910390fd5b60006137936123ec565b90506137c3818560006137a58761328e565b6137ae8761328e565b6040518060200160405280600081525061150d565b61381082604051806060016040528060228152602001613adb6022913960008681526002602090815260408083206001600160a01b038b168452909152902054919063ffffffff6123f016565b60008481526002602090815260408083206001600160a01b03891684528252918290209290925580516060810190915260278082526138709285929190613b4790830139600086815260046020526040902054919063ffffffff6123f016565b6000848152600460209081526040808320939093558251868152908101859052825191926001600160a01b0388811693908616927fc3d58168c5ae7397731d063d5bbf3d657854427343f4c083240f7aacaa2d0f6292908290030190a450505050565b3b151590565b6138e38282612f0f565b156139385760408051600160e51b62461bcd02815260206004820152601f60248201527f526f6c65733a206163636f756e7420616c72656164792068617320726f6c6500604482015290519081900360640190fd5b6001600160a01b0316600090815260209190915260409020805460ff19166001179055565b6139678282612f0f565b6139a557604051600160e51b62461bcd028152600401808060200182810382526021815260200180613c456021913960400191505060405180910390fd5b6001600160a01b0316600090815260209190915260409020805460ff19169055565b828054600181600116156101000203166002900490600052602060002090601f016020900481019282601f10613a0857805160ff1916838001178555613a35565b82800160010185558215613a35579182015b82811115613a35578251825591602001919060010190613a1a565b50613a41929150613a45565b5090565b611bb291905b80821115613a415760008155600101613a4b56fe4b495033373a206163636f756e747320616e6420696473206c656e677468206d69736d617463684b495031374d657461646174613a2055524920717565727920666f72206e6f6e6578697374656e7420746f6b656e4f776e61626c653a206e6577206f776e657220697320746865207a65726f20616464726573734b495033373a206275726e20616d6f756e7420657863656564732062616c616e63654b495033373a206275726e2066726f6d20746865207a65726f20616464726573734b495033373a2062616c616e636520717565727920666f7220746865207a65726f20616464726573734b495033373a206275726e20616d6f756e74206578636565647320746f74616c20737570706c794b495033373a20746f4c69737420616e64205f76616c756573206c656e677468206d69736d617463684b495033373a2069647320616e6420616d6f756e7473206c656e677468206d69736d617463684b495033373a207472616e736665722063616c6c6572206973206e6f74206f776e6572206e6f7220617070726f7665644b495033373a20696e73756666696369656e742062616c616e636520666f72207472616e736665724d696e746572526f6c653a2063616c6c657220646f6573206e6f74206861766520746865204d696e74657220726f6c65526f6c65733a206163636f756e7420646f6573206e6f74206861766520726f6c654b495033373a2073657474696e6720617070726f76616c2073746174757320666f722073656c664f776e61626c653a2063616c6c6572206973206e6f7420746865206f776e6572526f6c65733a206163636f756e7420697320746865207a65726f20616464726573734b495033373a207472616e7366657220746f206e6f6e204b49503337526563656976657220696d706c656d656e7465724b495033373a2063616c6c6572206973206e6f74206f776e6572206e6f7220617070726f7665644b495033373a207472616e7366657220746f20746865207a65726f20616464726573734b495033373a206261746368207472616e7366657220746f206e6f6e204b49503337526563656976657220696d706c656d656e7465724b495033373a2062617463682062616c616e636520717565727920666f7220746865207a65726f2061646472657373a165627a7a72305820b2c387b93ffdb336ed0d3bdd658c5cfc62f8478115bdce11b3500832092489d9002968747470733a2f2f6170692e6b6c6179636869636b656e2e636f6d2f6f726e616d656e742f6d6574612f68747470733a2f2f6170692e6b6c6179636869636b656e2e636f6d2f6f726e616d656e742f6d6574612f7b69647d2e6a736f6e526f6c65733a206163636f756e7420697320746865207a65726f2061646472657373",
  "source": "pragma solidity ^0.5.6;\r\n\r\nimport \"./token/KIP37/KIP37.sol\";\r\nimport \"./token/KIP37/KIP37Burnable.sol\";\r\nimport \"./token/KIP37/KIP37Mintable.sol\";\r\nimport \"./ownership/Ownable.sol\";\r\nimport \"./math/SafeMath.sol\";\r\n\r\ncontract Ornament is Ownable, KIP37, KIP37Burnable, KIP37Mintable {\r\n    using SafeMath for uint256;\r\n\r\n    constructor()\r\n        public\r\n        KIP37(\"https://api.klaychicken.com/ornament/meta/{id}.json\")\r\n    {}\r\n\r\n    string public baseURI = \"https://api.klaychicken.com/ornament/meta/\";\r\n    string public baseURIBack = \".json\";\r\n\r\n    function uint2str(uint256 _i)\r\n        internal\r\n        pure\r\n        returns (string memory _uintAsString)\r\n    {\r\n        if (_i == 0) {\r\n            return \"0\";\r\n        }\r\n        uint256 j = _i;\r\n        uint256 len;\r\n        while (j != 0) {\r\n            len++;\r\n            j /= 10;\r\n        }\r\n        bytes memory bstr = new bytes(len);\r\n        uint256 k = len;\r\n        while (_i != 0) {\r\n            k = k - 1;\r\n            uint8 temp = (48 + uint8(_i - (_i / 10) * 10));\r\n            bytes1 b1 = bytes1(temp);\r\n            bstr[k] = b1;\r\n            _i /= 10;\r\n        }\r\n        return string(bstr);\r\n    }\r\n\r\n    function uri(uint256 tokenId) public view returns (string memory) {\r\n        require(\r\n            _exists(tokenId),\r\n            \"KIP17Metadata: URI query for nonexistent token\"\r\n        );\r\n\r\n        string memory _baseURI = baseURI;\r\n        string memory idstr;\r\n        string memory _baseURIBack = baseURIBack;\r\n\r\n        uint256 temp = tokenId;\r\n        idstr = uint2str(temp);\r\n\r\n        return\r\n            bytes(baseURI).length > 0\r\n                ? string(abi.encodePacked(_baseURI, idstr, _baseURIBack))\r\n                : \"\";\r\n    }\r\n\r\n    function setBaseURI(string memory _baseURI) public onlyOwner {\r\n        baseURI = _baseURI;\r\n    }\r\n\r\n    function setBaseURIBack(string memory _baseURIBack) public onlyOwner {\r\n        baseURIBack = _baseURIBack;\r\n    }\r\n\r\n    function massTransfer(address[] calldata adrs, uint256 _id) external {\r\n        uint256 length = adrs.length;\r\n        for (uint256 i = 0; i < length; i = i.add(1)) {\r\n            safeTransferFrom(msg.sender, adrs[i], _id, 1, \"\");\r\n        }\r\n    }\r\n}\r\n",
  "sourcePath": "C:/klayContract/itemsV2/contracts/Ornament.sol",
  "compiler": {
    "name": "solc",
    "version": "0.5.6+commit.b259423e.Emscripten.clang"
  },
  "schemaVersion": "3.3.3",
  "updatedAt": "2022-02-01T14:02:16.474Z",
  "devdoc": {
    "methods": {
      "balanceOf(address,uint256)": {
        "details": "See {IKIP37-balanceOf}.     * Requirements:     * - `account` cannot be the zero address."
      },
      "balanceOfBatch(address[],uint256[])": {
        "details": "See {IKIP37-balanceOfBatch}.     * Requirements:     * - `accounts` and `ids` must have the same length."
      },
      "create(uint256,uint256,string)": {
        "details": "Throws if `msg.sender` is not allowed to create.   Throws if the token id is already used.",
        "params": {
          "_id": "The token id to create.",
          "_initialSupply": "The amount of tokens being minted.",
          "_uri": "The token URI of the created token."
        },
        "return": "A boolean that indicates if the operation was successful."
      },
      "isApprovedForAll(address,address)": {
        "details": "See {IKIP37-isApprovedForAll}."
      },
      "isOwner()": {
        "details": "Returns true if the caller is the current owner."
      },
      "mint(uint256,address,uint256)": {
        "details": "Throws if `msg.sender` is not allowed to mint.   MUST emit an event `TransferSingle`.",
        "params": {
          "_id": "The token id to mint.",
          "_to": "The address that will receive the minted tokens.",
          "_value": "The quantity of tokens being minted."
        }
      },
      "mint(uint256,address[],uint256[])": {
        "details": "Throws if `msg.sender` is not allowed to mint.   MUST emit one or more `TransferSingle` events.   MUST revert if the length of `_toList` is not the same as the length of `_values`.",
        "params": {
          "_id": "The token id to mint.",
          "_toList": "The list of addresses that will receive the minted tokens.",
          "_values": "The list of quantities of tokens being minted."
        }
      },
      "mintBatch(address,uint256[],uint256[])": {
        "details": "Throws if `msg.sender` is not allowed to mint.   MUST emit one or more `TransferSingle` events or a single `TransferBatch` event.   MUST revert if the length of `_ids` is not the same as the length of `_values`.",
        "params": {
          "_ids": "The list of the token ids to mint.",
          "_to": "The address that will receive the minted tokens.",
          "_values": "The list of quantities of tokens being minted."
        }
      },
      "owner()": {
        "details": "Returns the address of the current owner."
      },
      "renounceOwnership()": {
        "details": "Leaves the contract without owner. It will not be possible to call `onlyOwner` functions anymore. Can only be called by the current owner.     * > Note: Renouncing ownership will leave the contract without an owner, thereby removing any functionality that is only available to the owner."
      },
      "safeBatchTransferFrom(address,address,uint256[],uint256[],bytes)": {
        "details": "See {IKIP37-safeBatchTransferFrom}."
      },
      "safeTransferFrom(address,address,uint256,uint256,bytes)": {
        "details": "See {IKIP37-safeTransferFrom}."
      },
      "setApprovalForAll(address,bool)": {
        "details": "See {IKIP37-setApprovalForAll}."
      },
      "supportsInterface(bytes4)": {
        "details": "See `IKIP13.supportsInterface`.     * Time complexity O(1), guaranteed to always use less than 30 000 gas."
      },
      "transferOwnership(address)": {
        "details": "Transfers ownership of the contract to a new account (`newOwner`). Can only be called by the current owner."
      }
    }
  },
  "userdoc": {
    "methods": {
      "create(uint256,uint256,string)": {
        "notice": "Creates a new token type and assigns _initialSupply to the minter."
      },
      "mint(uint256,address,uint256)": {
        "notice": "Mints tokens of the specific token type `_id` and assigns the tokens according to the variables `_to` and `_value`."
      },
      "mint(uint256,address[],uint256[])": {
        "notice": "Mints tokens of the specific token type `_id` in a batch and assigns the tokens according to the variables `_toList` and `_values`."
      },
      "mintBatch(address,uint256[],uint256[])": {
        "notice": "Mints multiple KIP37 tokens of the specific token types `_ids` in a batch and assigns the tokens according to the variables `_to` and `_values`."
      }
    }
  }
}