{
  "contractName": "Pool",
  "abi": [
    {
      "constant": true,
      "inputs": [],
      "name": "name",
      "outputs": [
        {
          "name": "",
          "type": "string"
        }
      ],
      "payable": false,
      "stateMutability": "view",
      "type": "function"
    },
    {
      "constant": false,
      "inputs": [
        {
          "name": "spender",
          "type": "address"
        },
        {
          "name": "value",
          "type": "uint256"
        }
      ],
      "name": "approve",
      "outputs": [
        {
          "name": "",
          "type": "bool"
        }
      ],
      "payable": false,
      "stateMutability": "nonpayable",
      "type": "function"
    },
    {
      "constant": true,
      "inputs": [],
      "name": "totalSupply",
      "outputs": [
        {
          "name": "",
          "type": "uint256"
        }
      ],
      "payable": false,
      "stateMutability": "view",
      "type": "function"
    },
    {
      "constant": false,
      "inputs": [
        {
          "name": "from",
          "type": "address"
        },
        {
          "name": "to",
          "type": "address"
        },
        {
          "name": "value",
          "type": "uint256"
        }
      ],
      "name": "transferFrom",
      "outputs": [
        {
          "name": "",
          "type": "bool"
        }
      ],
      "payable": false,
      "stateMutability": "nonpayable",
      "type": "function"
    },
    {
      "constant": true,
      "inputs": [],
      "name": "decimals",
      "outputs": [
        {
          "name": "",
          "type": "uint8"
        }
      ],
      "payable": false,
      "stateMutability": "view",
      "type": "function"
    },
    {
      "constant": true,
      "inputs": [
        {
          "name": "",
          "type": "address"
        }
      ],
      "name": "balanceOf",
      "outputs": [
        {
          "name": "",
          "type": "uint256"
        }
      ],
      "payable": false,
      "stateMutability": "view",
      "type": "function"
    },
    {
      "constant": true,
      "inputs": [],
      "name": "kLast",
      "outputs": [
        {
          "name": "",
          "type": "uint256"
        }
      ],
      "payable": false,
      "stateMutability": "view",
      "type": "function"
    },
    {
      "constant": true,
      "inputs": [],
      "name": "Chick",
      "outputs": [
        {
          "name": "",
          "type": "address"
        }
      ],
      "payable": false,
      "stateMutability": "view",
      "type": "function"
    },
    {
      "constant": true,
      "inputs": [],
      "name": "symbol",
      "outputs": [
        {
          "name": "",
          "type": "string"
        }
      ],
      "payable": false,
      "stateMutability": "view",
      "type": "function"
    },
    {
      "constant": false,
      "inputs": [
        {
          "name": "to",
          "type": "address"
        },
        {
          "name": "value",
          "type": "uint256"
        }
      ],
      "name": "transfer",
      "outputs": [
        {
          "name": "",
          "type": "bool"
        }
      ],
      "payable": false,
      "stateMutability": "nonpayable",
      "type": "function"
    },
    {
      "constant": true,
      "inputs": [],
      "name": "MINIMUM_LIQUIDITY",
      "outputs": [
        {
          "name": "",
          "type": "uint256"
        }
      ],
      "payable": false,
      "stateMutability": "view",
      "type": "function"
    },
    {
      "constant": true,
      "inputs": [
        {
          "name": "",
          "type": "address"
        },
        {
          "name": "",
          "type": "address"
        }
      ],
      "name": "allowance",
      "outputs": [
        {
          "name": "",
          "type": "uint256"
        }
      ],
      "payable": false,
      "stateMutability": "view",
      "type": "function"
    },
    {
      "inputs": [
        {
          "name": "_Chick",
          "type": "address"
        }
      ],
      "payable": false,
      "stateMutability": "nonpayable",
      "type": "constructor"
    },
    {
      "payable": true,
      "stateMutability": "payable",
      "type": "fallback"
    },
    {
      "anonymous": false,
      "inputs": [
        {
          "indexed": true,
          "name": "sender",
          "type": "address"
        },
        {
          "indexed": false,
          "name": "klay",
          "type": "uint256"
        },
        {
          "indexed": false,
          "name": "chick",
          "type": "uint256"
        },
        {
          "indexed": true,
          "name": "to",
          "type": "address"
        }
      ],
      "name": "Mint",
      "type": "event"
    },
    {
      "anonymous": false,
      "inputs": [
        {
          "indexed": true,
          "name": "sender",
          "type": "address"
        },
        {
          "indexed": false,
          "name": "klay",
          "type": "uint256"
        },
        {
          "indexed": false,
          "name": "chick",
          "type": "uint256"
        },
        {
          "indexed": true,
          "name": "to",
          "type": "address"
        }
      ],
      "name": "Burn",
      "type": "event"
    },
    {
      "anonymous": false,
      "inputs": [
        {
          "indexed": true,
          "name": "sender",
          "type": "address"
        },
        {
          "indexed": false,
          "name": "klayIn",
          "type": "uint256"
        },
        {
          "indexed": false,
          "name": "chickIn",
          "type": "uint256"
        },
        {
          "indexed": false,
          "name": "klayOut",
          "type": "uint256"
        },
        {
          "indexed": false,
          "name": "chickOut",
          "type": "uint256"
        },
        {
          "indexed": true,
          "name": "to",
          "type": "address"
        }
      ],
      "name": "Swap",
      "type": "event"
    },
    {
      "anonymous": false,
      "inputs": [
        {
          "indexed": false,
          "name": "reserve_klay",
          "type": "uint112"
        },
        {
          "indexed": false,
          "name": "reserve_chick",
          "type": "uint112"
        }
      ],
      "name": "Sync",
      "type": "event"
    },
    {
      "anonymous": false,
      "inputs": [
        {
          "indexed": true,
          "name": "owner",
          "type": "address"
        },
        {
          "indexed": true,
          "name": "spender",
          "type": "address"
        },
        {
          "indexed": false,
          "name": "value",
          "type": "uint256"
        }
      ],
      "name": "Approval",
      "type": "event"
    },
    {
      "anonymous": false,
      "inputs": [
        {
          "indexed": true,
          "name": "from",
          "type": "address"
        },
        {
          "indexed": true,
          "name": "to",
          "type": "address"
        },
        {
          "indexed": false,
          "name": "value",
          "type": "uint256"
        }
      ],
      "name": "Transfer",
      "type": "event"
    },
    {
      "constant": true,
      "inputs": [],
      "name": "getReserves",
      "outputs": [
        {
          "name": "_reserve_klay",
          "type": "uint112"
        },
        {
          "name": "_reserve_chick",
          "type": "uint112"
        }
      ],
      "payable": false,
      "stateMutability": "view",
      "type": "function"
    },
    {
      "constant": false,
      "inputs": [
        {
          "name": "to",
          "type": "address"
        }
      ],
      "name": "mint",
      "outputs": [
        {
          "name": "liquidity",
          "type": "uint256"
        }
      ],
      "payable": true,
      "stateMutability": "payable",
      "type": "function"
    },
    {
      "constant": false,
      "inputs": [
        {
          "name": "to",
          "type": "address"
        }
      ],
      "name": "burn",
      "outputs": [
        {
          "name": "amount_klay",
          "type": "uint256"
        },
        {
          "name": "amount_chick",
          "type": "uint256"
        }
      ],
      "payable": true,
      "stateMutability": "payable",
      "type": "function"
    },
    {
      "constant": false,
      "inputs": [
        {
          "name": "amount_klay_out",
          "type": "uint256"
        },
        {
          "name": "amount_chick_out",
          "type": "uint256"
        },
        {
          "name": "to",
          "type": "address"
        }
      ],
      "name": "swap",
      "outputs": [],
      "payable": true,
      "stateMutability": "payable",
      "type": "function"
    },
    {
      "constant": false,
      "inputs": [
        {
          "name": "to",
          "type": "address"
        }
      ],
      "name": "skim",
      "outputs": [],
      "payable": false,
      "stateMutability": "nonpayable",
      "type": "function"
    },
    {
      "constant": false,
      "inputs": [],
      "name": "sync",
      "outputs": [],
      "payable": false,
      "stateMutability": "nonpayable",
      "type": "function"
    }
  ],
  "bytecode": "0x6080604052600160065534801561001557600080fd5b50604051602080611bac8339810180604052602081101561003557600080fd5b5051600380546001600160a01b0319166001600160a01b03909216919091179055611b47806100656000396000f3fe6080604052600436106101095760003560e01c80637464fc3d11610095578063a9059cbb11610064578063a9059cbb146103d7578063ba9a7a5614610410578063bc25cf7714610425578063dd62ed3e14610458578063fff6cae91461049357610109565b80637464fc3d1461033d57806389afcb4414610352578063923767bd1461039157806395d89b41146103c257610109565b806323b872dd116100dc57806323b872dd14610244578063313ce567146102875780636a627842146102b25780636d9a640a146102d857806370a082311461030a57610109565b806306fdde031461010b5780630902f1ac14610195578063095ea7b3146101d057806318160ddd1461021d575b005b34801561011757600080fd5b506101206104a8565b6040805160208082528351818301528351919283929083019185019080838360005b8381101561015a578181015183820152602001610142565b50505050905090810190601f1680156101875780820380516001836020036101000a031916815260200191505b509250505060405180910390f35b3480156101a157600080fd5b506101aa6104d0565b604080516001600160701b03938416815291909216602082015281519081900390910190f35b3480156101dc57600080fd5b50610209600480360360408110156101f357600080fd5b506001600160a01b0381351690602001356104eb565b604080519115158252519081900360200190f35b34801561022957600080fd5b50610232610502565b60408051918252519081900360200190f35b34801561025057600080fd5b506102096004803603606081101561026757600080fd5b506001600160a01b03813581169160208101359091169060400135610508565b34801561029357600080fd5b5061029c6105a2565b6040805160ff9092168252519081900360200190f35b610232600480360360208110156102c857600080fd5b50356001600160a01b03166105a7565b610109600480360360608110156102ee57600080fd5b50803590602081013590604001356001600160a01b031661083b565b34801561031657600080fd5b506102326004803603602081101561032d57600080fd5b50356001600160a01b0316610d60565b34801561034957600080fd5b50610232610d72565b6103786004803603602081101561036857600080fd5b50356001600160a01b0316610d78565b6040805192835260208301919091528051918290030190f35b34801561039d57600080fd5b506103a6611131565b604080516001600160a01b039092168252519081900360200190f35b3480156103ce57600080fd5b50610120611140565b3480156103e357600080fd5b50610209600480360360408110156103fa57600080fd5b506001600160a01b038135169060200135611168565b34801561041c57600080fd5b50610232611175565b34801561043157600080fd5b506101096004803603602081101561044857600080fd5b50356001600160a01b031661117b565b34801561046457600080fd5b506102326004803603604081101561047b57600080fd5b506001600160a01b03813581169160200135166113d4565b34801561049f57600080fd5b506101096113f1565b604051806040016040528060098152602001600160ba1b6815195cdd08141bdbdb0281525081565b6004546001600160701b0380821692600160701b9092041690565b60006104f83384846114dc565b5060015b92915050565b60005481565b6001600160a01b03831660009081526002602090815260408083203384529091528120546000191461058d576001600160a01b0384166000908152600260209081526040808320338452909152902054610568908363ffffffff61153e16565b6001600160a01b03851660009081526002602090815260408083203384529091529020555b610598848484611587565b5060019392505050565b601281565b60006006546001146105fa5760408051600160e51b62461bcd02815260206004820152601160248201526001607a1b7010da1a58dad41bdbdb0e881313d0d2d15102604482015290519081900360640190fd5b600060068190558061060a6104d0565b60035460408051600160e01b6370a082310281523060048201819052915194965092945031926000926001600160a01b03909216916370a08231916024808301926020929190829003018186803b15801561066457600080fd5b505afa158015610678573d6000803e3d6000fd5b505050506040513d602081101561068e57600080fd5b5051905060006106ad836001600160701b03871663ffffffff61153e16565b905060006106ca836001600160701b03871663ffffffff61153e16565b60005490915080610713576106ff6103e86106f36106ee868663ffffffff61164116565b61169d565b9063ffffffff61153e16565b975061070e60006103e86116ef565b610762565b61075f6001600160701b038816610730858463ffffffff61164116565b8161073757fe5b046001600160701b038816610752858563ffffffff61164116565b8161075957fe5b04611785565b97505b600088116107a457604051600160e51b62461bcd028152600401808060200182810382526028815260200180611a656028913960400191505060405180910390fd5b6107ae89896116ef565b6107b8858561179b565b6004546107de906001600160701b0380821691600160701b90041663ffffffff61164116565b600555604080518481526020810184905281516001600160a01b038c169233927fdbba30eb0402b389513e87f51f4db2db80bed454384ec6925a24097c3548a02a929081900390910190a350506001600655509395945050505050565b60065460011461088c5760408051600160e51b62461bcd02815260206004820152601160248201526001607a1b7010da1a58dad41bdbdb0e881313d0d2d15102604482015290519081900360640190fd5b60006006558215158061089f5750600082115b6108dd57604051600160e51b62461bcd028152600401808060200182810382526025815260200180611a8d6025913960400191505060405180910390fd5b6000806108e86104d0565b91509150816001600160701b03168510801561090c5750806001600160701b031684105b61094a57604051600160e51b62461bcd028152600401808060200182810382526021815260200180611ad36021913960400191505060405180910390fd5b60035460009081906001600160a01b03868116911614156109b55760408051600160e51b62461bcd02815260206004820152601560248201527f436869636b506f6f6c3a20494e56414c49445f544f0000000000000000000000604482015290519081900360640190fd5b8615610a66576040516000906001600160a01b0387169089908381818185875af1925050503d8060008114610a06576040519150601f19603f3d011682016040523d82523d6000602084013e610a0b565b606091505b5050905080610a645760408051600160e51b62461bcd02815260206004820152601f60248201527f436869636b506f6f6c3a204b6c6179205472616e73666572204661696c656400604482015290519081900360640190fd5b505b8515610af25760035460408051600160e01b63a9059cbb0281526001600160a01b038881166004830152602482018a90529151919092169163a9059cbb9160448083019260209291908290030181600087803b158015610ac557600080fd5b505af1158015610ad9573d6000803e3d6000fd5b505050506040513d6020811015610aef57600080fd5b50505b60035460408051600160e01b6370a0823102815230600482018190529151913194506001600160a01b03909216916370a08231916024808301926020929190829003018186803b158015610b4557600080fd5b505afa158015610b59573d6000803e3d6000fd5b505050506040513d6020811015610b6f57600080fd5b5051905060006001600160701b0385168890038311610b8f576000610b9e565b87856001600160701b03160383035b9050600087856001600160701b0316038311610bbb576000610bca565b87856001600160701b03160383035b90506000821180610bdb5750600081115b610c1957604051600160e51b62461bcd028152600401808060200182810382526024815260200180611a416024913960400191505060405180910390fd5b6000610c41610c2f84600363ffffffff61164116565b6106f3876103e863ffffffff61164116565b90506000610c59610c2f84600363ffffffff61164116565b9050610c8a620f4240610c7e6001600160701b038b8116908b1663ffffffff61164116565b9063ffffffff61164116565b610c9a838363ffffffff61164116565b1015610cf05760408051600160e51b62461bcd02815260206004820152601860248201527f556e697377617056323a204b206e6f74206d6174636865640000000000000000604482015290519081900360640190fd5b5050610cfc848461179b565b60408051838152602081018390528082018b9052606081018a905290516001600160a01b0389169133917fd78ad95fa46c994b6551d0da85fc275fe613ce37657fb8d5e3d130840159d8229181900360800190a35050600160065550505050505050565b60016020526000908152604090205481565b60055481565b600080600654600114610dcc5760408051600160e51b62461bcd02815260206004820152601160248201526001607a1b7010da1a58dad41bdbdb0e881313d0d2d15102604482015290519081900360640190fd5b6000600681905560035460408051600160e01b6370a0823102815230600482018190529151913193926001600160a01b0316916370a0823191602480820192602092909190829003018186803b158015610e2557600080fd5b505afa158015610e39573d6000803e3d6000fd5b505050506040513d6020811015610e4f57600080fd5b50513060009081526001602052604081205490549192509080610e78838663ffffffff61164116565b81610e7f57fe5b04955080610e93838563ffffffff61164116565b81610e9a57fe5b049450600086118015610ead5750600085115b610eeb57604051600160e51b62461bcd028152600401808060200182810382526028815260200180611af46028913960400191505060405180910390fd5b610ef530836118ab565b6040516000906001600160a01b0389169088908381818185875af1925050503d8060008114610f40576040519150601f19603f3d011682016040523d82523d6000602084013e610f45565b606091505b5050905080610f9e5760408051600160e51b62461bcd02815260206004820152601f60248201527f436869636b506f6f6c3a204b6c6179205472616e73666572204661696c656400604482015290519081900360640190fd5b60035460408051600160e01b63a9059cbb0281526001600160a01b038b81166004830152602482018a90529151919092169163a9059cbb9160448083019260209291908290030181600087803b158015610ff757600080fd5b505af115801561100b573d6000803e3d6000fd5b505050506040513d602081101561102157600080fd5b505060035460408051600160e01b6370a0823102815230600482018190529151913197506001600160a01b03909216916370a08231916024808301926020929190829003018186803b15801561107657600080fd5b505afa15801561108a573d6000803e3d6000fd5b505050506040513d60208110156110a057600080fd5b505193506110ae858561179b565b6004546110d4906001600160701b0380821691600160701b90041663ffffffff61164116565b600555604080518881526020810188905281516001600160a01b038b169233927fdccd412f0b1252819cb1fd330b93224ca42612892bb3f4f789976e6d81936496929081900390910190a350505050506001600681905550915091565b6003546001600160a01b031681565b604051806040016040528060098152602001600160ba1b68141bdbdb17d51154d50281525081565b60006104f8338484611587565b6103e881565b6006546001146111cc5760408051600160e51b62461bcd02815260206004820152601160248201526001607a1b7010da1a58dad41bdbdb0e881313d0d2d15102604482015290519081900360640190fd5b6000600681905560035460408051600160e01b6370a0823102815230600482018190529151913193926001600160a01b0316916370a0823191602480820192602092909190829003018186803b15801561122557600080fd5b505afa158015611239573d6000803e3d6000fd5b505050506040513d602081101561124f57600080fd5b50516004549091506000906001600160a01b0385169061127f9085906001600160701b031663ffffffff61153e16565b604051600081818185875af1925050503d80600081146112bb576040519150601f19603f3d011682016040523d82523d6000602084013e6112c0565b606091505b50509050806113195760408051600160e51b62461bcd02815260206004820152601f60248201527f436869636b506f6f6c3a204b6c6179205472616e73666572204661696c656400604482015290519081900360640190fd5b6003546004546001600160a01b039091169063a9059cbb90869061134e908690600160701b90046001600160701b031661153e565b6040518363ffffffff1660e01b815260040180836001600160a01b03166001600160a01b0316815260200182815260200192505050602060405180830381600087803b15801561139d57600080fd5b505af11580156113b1573d6000803e3d6000fd5b505050506040513d60208110156113c757600080fd5b5050600160065550505050565b600260209081526000928352604080842090915290825290205481565b6006546001146114425760408051600160e51b62461bcd02815260206004820152601160248201526001607a1b7010da1a58dad41bdbdb0e881313d0d2d15102604482015290519081900360640190fd5b6000600681905560035460408051600160e01b6370a0823102815230600482018190529151913193926001600160a01b0316916370a0823191602480820192602092909190829003018186803b15801561149b57600080fd5b505afa1580156114af573d6000803e3d6000fd5b505050506040513d60208110156114c557600080fd5b505190506114d3828261179b565b50506001600655565b6001600160a01b03808416600081815260026020908152604080832094871680845294825291829020859055815185815291517f8c5be1e5ebec7d5bd14f71427d1e84f3dd0314c0f7b2291e5b200ac8c7c3b9259281900390910190a3505050565b600061158083836040518060400160405280601e81526020017f536166654d6174683a207375627472616374696f6e206f766572666c6f770000815250611949565b9392505050565b6001600160a01b0383166000908152600160205260409020546115b0908263ffffffff61153e16565b6001600160a01b0380851660009081526001602052604080822093909355908416815220546115e5908263ffffffff6119e316565b6001600160a01b0380841660008181526001602090815260409182902094909455805185815290519193928716927fddf252ad1be2c89b69c2b068fc378daa952ba7f163c4a11628f55a4df523b3ef92918290030190a3505050565b600082611650575060006104fc565b8282028284828161165d57fe5b041461158057604051600160e51b62461bcd028152600401808060200182810382526021815260200180611ab26021913960400191505060405180910390fd5b600060038211156116e0575080600160028204015b818110156116da578091506002818285816116c957fe5b0401816116d257fe5b0490506116b2565b506116ea565b81156116ea575060015b919050565b600054611702908263ffffffff6119e316565b60009081556001600160a01b03831681526001602052604090205461172d908263ffffffff6119e316565b6001600160a01b03831660008181526001602090815260408083209490945583518581529351929391927fddf252ad1be2c89b69c2b068fc378daa952ba7f163c4a11628f55a4df523b3ef9281900390910190a35050565b60008183106117945781611580565b5090919050565b6001600160701b0382118015906117b957506001600160701b038111155b61180d5760408051600160e51b62461bcd02815260206004820152601360248201527f436869636b506f6f6c3a204f564552464c4f5700000000000000000000000000604482015290519081900360640190fd5b600480546dffffffffffffffffffffffffffff19166001600160701b03848116919091177fffffffff0000000000000000000000000000ffffffffffffffffffffffffffff16600160701b8483168102919091179283905560408051848416815291909304909116602082015281517f1c411e9a96e071241c2f21f7726b17ae89e3cab4c78be50e062b03a9fffbbad1929181900390910190a15050565b6001600160a01b0382166000908152600160205260409020546118d4908263ffffffff61153e16565b6001600160a01b03831660009081526001602052604081209190915554611901908263ffffffff61153e16565b60009081556040805183815290516001600160a01b038516917fddf252ad1be2c89b69c2b068fc378daa952ba7f163c4a11628f55a4df523b3ef919081900360200190a35050565b600081848411156119db57604051600160e51b62461bcd0281526004018080602001828103825283818151815260200191508051906020019080838360005b838110156119a0578181015183820152602001611988565b50505050905090810190601f1680156119cd5780820380516001836020036101000a031916815260200191505b509250505060405180910390fd5b505050900390565b6000828201838110156115805760408051600160e51b62461bcd02815260206004820152601b60248201527f536166654d6174683a206164646974696f6e206f766572666c6f770000000000604482015290519081900360640190fdfe556e697377617056323a20494e53554646494349454e545f494e5055545f414d4f554e54436869636b506f6f6c3a20494e53554646494349454e545f4c49515549444954595f4d494e544544436869636b506f6f6c3a20494e53554646494349454e545f4f55545055545f414d4f554e54536166654d6174683a206d756c7469706c69636174696f6e206f766572666c6f77436869636b506f6f6c3a20494e53554646494349454e545f4c4951554944495459436869636b506f6f6c3a20494e53554646494349454e545f4c49515549444954595f4255524e4544a165627a7a723058203f39a3663d13553e78877afdfc55fd6f32823ac0156e92219897d487f241e9e90029",
  "source": "// SPDX-License-Identifier: MIT\r\npragma solidity ^0.5.6;\r\n\r\nimport \"./PoolToken.sol\";\r\nimport \"./klaytn-contracts/token/KIP7/IKIP7.sol\";\r\nimport \"./klaytn-contracts/math/SafeMath.sol\";\r\nimport \"./klaytn-contracts/math/Math.sol\";\r\n\r\ncontract Pool is PoolToken {\r\n    IKIP7 public Chick;\r\n    using SafeMath for uint256;\r\n\r\n    constructor(IKIP7 _Chick) public {\r\n        Chick = _Chick;\r\n    }\r\n\r\n    // for receiving KLAY\r\n    function() external payable {}\r\n\r\n    uint256 public constant MINIMUM_LIQUIDITY = 10**3;\r\n\r\n    uint112 private reserve_klay; // uses single storage slot, accessible via getReserves\r\n    uint112 private reserve_chick; // uses single storage slot, accessible via getReserves\r\n\r\n    uint256 public kLast;\r\n\r\n    // lock\r\n    uint256 private unlocked = 1;\r\n\r\n    modifier lock() {\r\n        require(unlocked == 1, \"ChickPool: LOCKED\");\r\n        unlocked = 0;\r\n        _;\r\n        unlocked = 1;\r\n    }\r\n\r\n    function getReserves()\r\n        public\r\n        view\r\n        returns (uint112 _reserve_klay, uint112 _reserve_chick)\r\n    {\r\n        _reserve_klay = reserve_klay;\r\n        _reserve_chick = reserve_chick;\r\n    }\r\n\r\n    // event\r\n    event Mint(\r\n        address indexed sender,\r\n        uint256 klay,\r\n        uint256 chick,\r\n        address indexed to\r\n    );\r\n    event Burn(\r\n        address indexed sender,\r\n        uint256 klay,\r\n        uint256 chick,\r\n        address indexed to\r\n    );\r\n    event Swap(\r\n        address indexed sender,\r\n        uint256 klayIn,\r\n        uint256 chickIn,\r\n        uint256 klayOut,\r\n        uint256 chickOut,\r\n        address indexed to\r\n    );\r\n    event Sync(uint112 reserve_klay, uint112 reserve_chick);\r\n\r\n    function _update(uint256 bal_klay, uint256 bal_chick) private {\r\n        require(\r\n            bal_klay <= uint112(-1) && bal_chick <= uint112(-1),\r\n            \"ChickPool: OVERFLOW\"\r\n        );\r\n\r\n        reserve_klay = uint112(bal_klay);\r\n        reserve_chick = uint112(bal_chick);\r\n\r\n        emit Sync(reserve_klay, reserve_chick);\r\n    }\r\n\r\n    // low-level function; should be called from BANK\r\n    function mint(address to)\r\n        external\r\n        payable\r\n        lock\r\n        returns (uint256 liquidity)\r\n    {\r\n        (uint112 _reserve_klay, uint112 _reserve_chick) = getReserves(); // gas savings\r\n        uint256 bal_klay = address(this).balance;\r\n        uint256 bal_chick = Chick.balanceOf(address(this));\r\n        uint256 amount_klay = bal_klay.sub(_reserve_klay);\r\n        uint256 amount_chick = bal_chick.sub(_reserve_chick);\r\n\r\n        uint256 _totalSupply = totalSupply; // gas savings\r\n\r\n        if (_totalSupply == 0) {\r\n            liquidity = Math.sqrt(amount_klay.mul(amount_chick)).sub(\r\n                MINIMUM_LIQUIDITY\r\n            );\r\n            _mint(address(0), MINIMUM_LIQUIDITY); // permanently lock the first MINIMUM_LIQUIDITY tokens\r\n        } else {\r\n            liquidity = Math.min(\r\n                amount_klay.mul(_totalSupply) / _reserve_klay,\r\n                amount_chick.mul(_totalSupply) / _reserve_chick\r\n            );\r\n        }\r\n        require(liquidity > 0, \"ChickPool: INSUFFICIENT_LIQUIDITY_MINTED\");\r\n        _mint(to, liquidity);\r\n\r\n        _update(bal_klay, bal_chick);\r\n        kLast = uint256(reserve_klay).mul(reserve_chick); // reserve0 and reserve1 are up-to-date\r\n        emit Mint(msg.sender, amount_klay, amount_chick, to);\r\n    }\r\n\r\n    // low-level function; should be called from BANK\r\n    function burn(address payable to)\r\n        external\r\n        payable\r\n        lock\r\n        returns (uint256 amount_klay, uint256 amount_chick)\r\n    {\r\n        uint256 bal_klay = address(this).balance;\r\n        uint256 bal_chick = Chick.balanceOf(address(this));\r\n        uint256 liquidity = balanceOf[address(this)];\r\n\r\n        uint256 _totalSupply = totalSupply; // gas savings, must be defined here since totalSupply can update in _mintFee\r\n        amount_klay = liquidity.mul(bal_klay) / _totalSupply; // using balances ensures pro-rata distribution\r\n        amount_chick = liquidity.mul(bal_chick) / _totalSupply; // using balances ensures pro-rata distribution\r\n        require(\r\n            amount_klay > 0 && amount_chick > 0,\r\n            \"ChickPool: INSUFFICIENT_LIQUIDITY_BURNED\"\r\n        );\r\n        _burn(address(this), liquidity);\r\n\r\n        //(bool success, ) = to.call{value: amount_klay}(\"\"); //same as to.transfer(amount_klay);\r\n        (bool success, ) = to.call.value(amount_klay)(\"\"); //same as to.transfer(amount_klay);\r\n        require(success, \"ChickPool: Klay Transfer Failed\"); // because of gas issue\r\n        Chick.transfer(to, amount_chick);\r\n\r\n        bal_klay = address(this).balance;\r\n        bal_chick = Chick.balanceOf(address(this));\r\n\r\n        _update(bal_klay, bal_chick);\r\n        kLast = uint256(reserve_klay).mul(reserve_chick); // reserve0 and reserve1 are up-to-date\r\n        emit Burn(msg.sender, amount_klay, amount_chick, to);\r\n    }\r\n\r\n    // low-level function; should be called from BANK\r\n    function swap(\r\n        uint256 amount_klay_out,\r\n        uint256 amount_chick_out,\r\n        address payable to\r\n    ) external payable lock {\r\n        require(\r\n            amount_klay_out > 0 || amount_chick_out > 0,\r\n            \"ChickPool: INSUFFICIENT_OUTPUT_AMOUNT\"\r\n        );\r\n        (uint112 _reserve_klay, uint112 _reserve_chick) = getReserves(); // gas savings\r\n        require(\r\n            amount_klay_out < _reserve_klay &&\r\n                amount_chick_out < _reserve_chick,\r\n            \"ChickPool: INSUFFICIENT_LIQUIDITY\"\r\n        );\r\n\r\n        uint256 bal_klay;\r\n        uint256 bal_chick;\r\n\r\n        {\r\n            // avoids stack too deep errors\r\n            require(address(to) != address(Chick), \"ChickPool: INVALID_TO\");\r\n            if (amount_klay_out > 0) {\r\n                (bool success, ) = to.call.value(amount_klay_out)(\"\"); //same as to.transfer(amount_klay);\r\n                require(success, \"ChickPool: Klay Transfer Failed\"); // because of gas issue\r\n            }\r\n            if (amount_chick_out > 0) {\r\n                Chick.transfer(to, amount_chick_out);\r\n            }\r\n\r\n            bal_klay = address(this).balance;\r\n            bal_chick = Chick.balanceOf(address(this));\r\n        }\r\n\r\n        uint256 amount_klay_in = bal_klay > _reserve_klay - amount_klay_out\r\n            ? bal_klay - (_reserve_klay - amount_klay_out)\r\n            : 0;\r\n        uint256 amount_chick_in = bal_chick > _reserve_chick - amount_chick_out\r\n            ? bal_chick - (_reserve_chick - amount_chick_out)\r\n            : 0;\r\n        require(\r\n            amount_klay_in > 0 || amount_chick_in > 0,\r\n            \"UniswapV2: INSUFFICIENT_INPUT_AMOUNT\"\r\n        );\r\n\r\n        {\r\n            // scope for reserve{0,1}Adjusted, avoids stack too deep errors\r\n            uint256 bal_klay_adjusted = bal_klay.mul(1000).sub(\r\n                amount_klay_in.mul(3)\r\n            );\r\n            uint256 bal_chick_adjusted = bal_chick.mul(1000).sub(\r\n                amount_chick_in.mul(3)\r\n            );\r\n            require(\r\n                bal_klay_adjusted.mul(bal_chick_adjusted) >=\r\n                    uint256(_reserve_klay).mul(_reserve_chick).mul(1000**2),\r\n                \"UniswapV2: K not matched\"\r\n            );\r\n        }\r\n\r\n        _update(bal_klay, bal_chick);\r\n        emit Swap(\r\n            msg.sender,\r\n            amount_klay_in,\r\n            amount_chick_in,\r\n            amount_klay_out,\r\n            amount_chick_out,\r\n            to\r\n        );\r\n    }\r\n\r\n    // force balances to match reserves\r\n    function skim(address to) external lock {\r\n        uint256 bal_klay = address(this).balance;\r\n        uint256 bal_chick = Chick.balanceOf(address(this));\r\n\r\n        (bool success, ) = to.call.value(bal_klay.sub(reserve_klay))(\"\"); //same as to.transfer(amount_klay);\r\n        require(success, \"ChickPool: Klay Transfer Failed\"); // because of gas issue\r\n        Chick.transfer(to, bal_chick.sub(reserve_chick));\r\n    }\r\n\r\n    // force reserves to match balances\r\n    function sync() external lock {\r\n        uint256 bal_klay = address(this).balance;\r\n        uint256 bal_chick = Chick.balanceOf(address(this));\r\n\r\n        _update(bal_klay, bal_chick);\r\n    }\r\n}\r\n",
  "sourcePath": "C:\\Users\\kwonj\\contract_klaytn\\chick_test\\contracts\\Pool.sol",
  "compiler": {
    "name": "solc",
    "version": "0.5.6+commit.b259423e.Emscripten.clang"
  },
  "schemaVersion": "3.3.3",
  "updatedAt": "2022-09-04T10:01:27.318Z",
  "devdoc": {
    "methods": {}
  },
  "userdoc": {
    "methods": {}
  }
}