{
  "contractName": "Raffle",
  "abi": [
    {
      "constant": true,
      "inputs": [],
      "name": "raffler_minimun_chickizQuan",
      "outputs": [
        {
          "name": "",
          "type": "uint256"
        }
      ],
      "payable": false,
      "stateMutability": "view",
      "type": "function"
    },
    {
      "constant": true,
      "inputs": [],
      "name": "minRafflePeriod",
      "outputs": [
        {
          "name": "",
          "type": "uint256"
        }
      ],
      "payable": false,
      "stateMutability": "view",
      "type": "function"
    },
    {
      "constant": true,
      "inputs": [
        {
          "name": "",
          "type": "uint256"
        }
      ],
      "name": "RaffleList",
      "outputs": [
        {
          "name": "raffleNum",
          "type": "uint256"
        },
        {
          "name": "raffler",
          "type": "address"
        },
        {
          "name": "rafflerStatus",
          "type": "uint8"
        },
        {
          "name": "nft",
          "type": "address"
        },
        {
          "name": "nft_tokenId",
          "type": "uint256"
        },
        {
          "name": "startBlock",
          "type": "uint256"
        },
        {
          "name": "rafflePeriod",
          "type": "uint256"
        },
        {
          "name": "paymentMethod",
          "type": "uint8"
        },
        {
          "name": "ticketPrice",
          "type": "uint256"
        },
        {
          "name": "ticketQuan",
          "type": "uint256"
        }
      ],
      "payable": false,
      "stateMutability": "view",
      "type": "function"
    },
    {
      "constant": true,
      "inputs": [
        {
          "name": "",
          "type": "uint256"
        },
        {
          "name": "",
          "type": "address"
        }
      ],
      "name": "participants_ticket",
      "outputs": [
        {
          "name": "",
          "type": "uint256"
        }
      ],
      "payable": false,
      "stateMutability": "view",
      "type": "function"
    },
    {
      "constant": true,
      "inputs": [
        {
          "name": "",
          "type": "uint256"
        },
        {
          "name": "",
          "type": "uint256"
        }
      ],
      "name": "ticketnumber_participants",
      "outputs": [
        {
          "name": "",
          "type": "address"
        }
      ],
      "payable": false,
      "stateMutability": "view",
      "type": "function"
    },
    {
      "constant": true,
      "inputs": [
        {
          "name": "",
          "type": "uint256"
        }
      ],
      "name": "claimByRaffler_done",
      "outputs": [
        {
          "name": "",
          "type": "bool"
        }
      ],
      "payable": false,
      "stateMutability": "view",
      "type": "function"
    },
    {
      "constant": true,
      "inputs": [],
      "name": "maxRafflePeriod",
      "outputs": [
        {
          "name": "",
          "type": "uint256"
        }
      ],
      "payable": false,
      "stateMutability": "view",
      "type": "function"
    },
    {
      "constant": true,
      "inputs": [],
      "name": "ticket_max_price",
      "outputs": [
        {
          "name": "",
          "type": "uint256"
        }
      ],
      "payable": false,
      "stateMutability": "view",
      "type": "function"
    },
    {
      "constant": true,
      "inputs": [],
      "name": "ticket_min",
      "outputs": [
        {
          "name": "",
          "type": "uint256"
        }
      ],
      "payable": false,
      "stateMutability": "view",
      "type": "function"
    },
    {
      "constant": true,
      "inputs": [
        {
          "name": "",
          "type": "uint256"
        }
      ],
      "name": "claimByWinner_done",
      "outputs": [
        {
          "name": "",
          "type": "bool"
        }
      ],
      "payable": false,
      "stateMutability": "view",
      "type": "function"
    },
    {
      "constant": true,
      "inputs": [],
      "name": "Treasury",
      "outputs": [
        {
          "name": "",
          "type": "address"
        }
      ],
      "payable": false,
      "stateMutability": "view",
      "type": "function"
    },
    {
      "constant": true,
      "inputs": [],
      "name": "raffler_discount_chickizQuan",
      "outputs": [
        {
          "name": "",
          "type": "uint256"
        }
      ],
      "payable": false,
      "stateMutability": "view",
      "type": "function"
    },
    {
      "constant": true,
      "inputs": [],
      "name": "raffle_fee_dividend",
      "outputs": [
        {
          "name": "",
          "type": "uint256"
        }
      ],
      "payable": false,
      "stateMutability": "view",
      "type": "function"
    },
    {
      "constant": false,
      "inputs": [],
      "name": "renounceOwnership",
      "outputs": [],
      "payable": false,
      "stateMutability": "nonpayable",
      "type": "function"
    },
    {
      "constant": true,
      "inputs": [
        {
          "name": "",
          "type": "uint256"
        }
      ],
      "name": "soldTickets",
      "outputs": [
        {
          "name": "",
          "type": "uint256"
        }
      ],
      "payable": false,
      "stateMutability": "view",
      "type": "function"
    },
    {
      "constant": true,
      "inputs": [
        {
          "name": "",
          "type": "uint256"
        }
      ],
      "name": "raffleResult",
      "outputs": [
        {
          "name": "winner",
          "type": "address"
        },
        {
          "name": "ticketQuan",
          "type": "uint256"
        }
      ],
      "payable": false,
      "stateMutability": "view",
      "type": "function"
    },
    {
      "constant": true,
      "inputs": [],
      "name": "Chickiz",
      "outputs": [
        {
          "name": "",
          "type": "address"
        }
      ],
      "payable": false,
      "stateMutability": "view",
      "type": "function"
    },
    {
      "constant": true,
      "inputs": [],
      "name": "owner",
      "outputs": [
        {
          "name": "",
          "type": "address"
        }
      ],
      "payable": false,
      "stateMutability": "view",
      "type": "function"
    },
    {
      "constant": true,
      "inputs": [],
      "name": "isOwner",
      "outputs": [
        {
          "name": "",
          "type": "bool"
        }
      ],
      "payable": false,
      "stateMutability": "view",
      "type": "function"
    },
    {
      "constant": true,
      "inputs": [],
      "name": "Chick",
      "outputs": [
        {
          "name": "",
          "type": "address"
        }
      ],
      "payable": false,
      "stateMutability": "view",
      "type": "function"
    },
    {
      "constant": true,
      "inputs": [],
      "name": "ticket_max",
      "outputs": [
        {
          "name": "",
          "type": "uint256"
        }
      ],
      "payable": false,
      "stateMutability": "view",
      "type": "function"
    },
    {
      "constant": true,
      "inputs": [
        {
          "name": "",
          "type": "uint256"
        }
      ],
      "name": "rafflingDone",
      "outputs": [
        {
          "name": "",
          "type": "bool"
        }
      ],
      "payable": false,
      "stateMutability": "view",
      "type": "function"
    },
    {
      "constant": true,
      "inputs": [],
      "name": "raffle_fee_discount",
      "outputs": [
        {
          "name": "",
          "type": "uint256"
        }
      ],
      "payable": false,
      "stateMutability": "view",
      "type": "function"
    },
    {
      "constant": true,
      "inputs": [],
      "name": "raffle_fee",
      "outputs": [
        {
          "name": "",
          "type": "uint256"
        }
      ],
      "payable": false,
      "stateMutability": "view",
      "type": "function"
    },
    {
      "constant": false,
      "inputs": [
        {
          "name": "newOwner",
          "type": "address"
        }
      ],
      "name": "transferOwnership",
      "outputs": [],
      "payable": false,
      "stateMutability": "nonpayable",
      "type": "function"
    },
    {
      "inputs": [],
      "payable": false,
      "stateMutability": "nonpayable",
      "type": "constructor"
    },
    {
      "anonymous": false,
      "inputs": [
        {
          "indexed": true,
          "name": "raffleNum",
          "type": "uint256"
        },
        {
          "indexed": true,
          "name": "raffler",
          "type": "address"
        },
        {
          "indexed": true,
          "name": "nft",
          "type": "address"
        },
        {
          "indexed": false,
          "name": "tokenId",
          "type": "uint256"
        }
      ],
      "name": "RaffleCreate",
      "type": "event"
    },
    {
      "anonymous": false,
      "inputs": [
        {
          "indexed": true,
          "name": "raffleNum",
          "type": "uint256"
        },
        {
          "indexed": true,
          "name": "buyer",
          "type": "address"
        },
        {
          "indexed": true,
          "name": "ticketQuan",
          "type": "uint256"
        },
        {
          "indexed": false,
          "name": "ticketBalance",
          "type": "uint256"
        }
      ],
      "name": "TicketBuy",
      "type": "event"
    },
    {
      "anonymous": false,
      "inputs": [
        {
          "indexed": true,
          "name": "raffleNum",
          "type": "uint256"
        },
        {
          "indexed": true,
          "name": "winner",
          "type": "address"
        },
        {
          "indexed": true,
          "name": "winnerTicketQuan",
          "type": "uint256"
        }
      ],
      "name": "WinnerSelect",
      "type": "event"
    },
    {
      "anonymous": false,
      "inputs": [
        {
          "indexed": true,
          "name": "raffleNum",
          "type": "uint256"
        },
        {
          "indexed": true,
          "name": "claimer",
          "type": "address"
        }
      ],
      "name": "RafflerClaim",
      "type": "event"
    },
    {
      "anonymous": false,
      "inputs": [
        {
          "indexed": true,
          "name": "raffleNum",
          "type": "uint256"
        },
        {
          "indexed": true,
          "name": "claimer",
          "type": "address"
        }
      ],
      "name": "WinnerClaim",
      "type": "event"
    },
    {
      "anonymous": false,
      "inputs": [
        {
          "indexed": true,
          "name": "raffleNum",
          "type": "uint256"
        },
        {
          "indexed": true,
          "name": "claimer",
          "type": "address"
        }
      ],
      "name": "RefundClaim",
      "type": "event"
    },
    {
      "anonymous": false,
      "inputs": [
        {
          "indexed": true,
          "name": "previousOwner",
          "type": "address"
        },
        {
          "indexed": true,
          "name": "newOwner",
          "type": "address"
        }
      ],
      "name": "OwnershipTransferred",
      "type": "event"
    },
    {
      "constant": false,
      "inputs": [
        {
          "name": "_token",
          "type": "address"
        }
      ],
      "name": "setChick",
      "outputs": [],
      "payable": false,
      "stateMutability": "nonpayable",
      "type": "function"
    },
    {
      "constant": false,
      "inputs": [
        {
          "name": "_nft",
          "type": "address"
        }
      ],
      "name": "setChickiz",
      "outputs": [],
      "payable": false,
      "stateMutability": "nonpayable",
      "type": "function"
    },
    {
      "constant": false,
      "inputs": [
        {
          "name": "_treasury",
          "type": "address"
        }
      ],
      "name": "setTreasury",
      "outputs": [],
      "payable": false,
      "stateMutability": "nonpayable",
      "type": "function"
    },
    {
      "constant": false,
      "inputs": [
        {
          "name": "_min",
          "type": "uint256"
        },
        {
          "name": "_max",
          "type": "uint256"
        }
      ],
      "name": "setRafflePeriod",
      "outputs": [],
      "payable": false,
      "stateMutability": "nonpayable",
      "type": "function"
    },
    {
      "constant": false,
      "inputs": [
        {
          "name": "_fee",
          "type": "uint256"
        },
        {
          "name": "_fee_discount",
          "type": "uint256"
        }
      ],
      "name": "setRaffleFee",
      "outputs": [],
      "payable": false,
      "stateMutability": "nonpayable",
      "type": "function"
    },
    {
      "constant": false,
      "inputs": [
        {
          "name": "_minimum",
          "type": "uint256"
        },
        {
          "name": "_discount",
          "type": "uint256"
        }
      ],
      "name": "setRafflerQuan",
      "outputs": [],
      "payable": false,
      "stateMutability": "nonpayable",
      "type": "function"
    },
    {
      "constant": false,
      "inputs": [
        {
          "name": "_minimum",
          "type": "uint256"
        },
        {
          "name": "_maximum",
          "type": "uint256"
        }
      ],
      "name": "setTicketQuan",
      "outputs": [],
      "payable": false,
      "stateMutability": "nonpayable",
      "type": "function"
    },
    {
      "constant": false,
      "inputs": [
        {
          "name": "_price",
          "type": "uint256"
        }
      ],
      "name": "setTicketMaxPrice",
      "outputs": [],
      "payable": false,
      "stateMutability": "nonpayable",
      "type": "function"
    },
    {
      "constant": true,
      "inputs": [],
      "name": "totalRaffles",
      "outputs": [
        {
          "name": "",
          "type": "uint256"
        }
      ],
      "payable": false,
      "stateMutability": "view",
      "type": "function"
    },
    {
      "constant": true,
      "inputs": [
        {
          "name": "_raffleNum",
          "type": "uint256"
        }
      ],
      "name": "raffleStatus",
      "outputs": [
        {
          "name": "",
          "type": "uint256"
        }
      ],
      "payable": false,
      "stateMutability": "view",
      "type": "function"
    },
    {
      "constant": false,
      "inputs": [
        {
          "name": "_nft",
          "type": "address"
        },
        {
          "name": "_tokenId",
          "type": "uint256"
        },
        {
          "name": "_period",
          "type": "uint256"
        },
        {
          "name": "_paymentMehtod",
          "type": "uint8"
        },
        {
          "name": "_ticketPrice",
          "type": "uint256"
        },
        {
          "name": "_ticketQuan",
          "type": "uint256"
        }
      ],
      "name": "createRaffle",
      "outputs": [],
      "payable": false,
      "stateMutability": "nonpayable",
      "type": "function"
    },
    {
      "constant": false,
      "inputs": [
        {
          "name": "_raffleNum",
          "type": "uint256"
        },
        {
          "name": "_ticketQuan",
          "type": "uint256"
        }
      ],
      "name": "buyTicketsWithKlay",
      "outputs": [],
      "payable": true,
      "stateMutability": "payable",
      "type": "function"
    },
    {
      "constant": false,
      "inputs": [
        {
          "name": "_raffleNum",
          "type": "uint256"
        },
        {
          "name": "_ticketQuan",
          "type": "uint256"
        }
      ],
      "name": "buyTicketsWithChick",
      "outputs": [],
      "payable": false,
      "stateMutability": "nonpayable",
      "type": "function"
    },
    {
      "constant": false,
      "inputs": [
        {
          "name": "_raffleNum",
          "type": "uint256"
        },
        {
          "name": "_rnd",
          "type": "uint256"
        }
      ],
      "name": "selectWinner",
      "outputs": [],
      "payable": false,
      "stateMutability": "nonpayable",
      "type": "function"
    },
    {
      "constant": false,
      "inputs": [
        {
          "name": "_raffleNum",
          "type": "uint256"
        }
      ],
      "name": "claimByRaffler",
      "outputs": [],
      "payable": false,
      "stateMutability": "nonpayable",
      "type": "function"
    },
    {
      "constant": false,
      "inputs": [
        {
          "name": "_raffleNum",
          "type": "uint256"
        }
      ],
      "name": "claimByWinner",
      "outputs": [],
      "payable": false,
      "stateMutability": "nonpayable",
      "type": "function"
    },
    {
      "constant": false,
      "inputs": [
        {
          "name": "_raffleNum",
          "type": "uint256"
        }
      ],
      "name": "refund",
      "outputs": [],
      "payable": false,
      "stateMutability": "nonpayable",
      "type": "function"
    },
    {
      "constant": false,
      "inputs": [
        {
          "name": "_nft",
          "type": "address"
        },
        {
          "name": "_tokenId",
          "type": "uint256"
        }
      ],
      "name": "withdrawNFT",
      "outputs": [],
      "payable": false,
      "stateMutability": "nonpayable",
      "type": "function"
    },
    {
      "constant": false,
      "inputs": [
        {
          "name": "amount",
          "type": "uint256"
        }
      ],
      "name": "withdrawKlay",
      "outputs": [],
      "payable": false,
      "stateMutability": "nonpayable",
      "type": "function"
    },
    {
      "constant": false,
      "inputs": [
        {
          "name": "amount",
          "type": "uint256"
        }
      ],
      "name": "withdrawChick",
      "outputs": [],
      "payable": false,
      "stateMutability": "nonpayable",
      "type": "function"
    }
  ],
  "bytecode": "0x608060405260006005556003600655603c600755601e6008556103e8600955600a805561012c600b556b033b2e3c9fd0803ce8000000600c55615460600d556202a300600e5534801561005157600080fd5b50600080546001600160a01b03191633178082556040516001600160a01b039190911691907f8be0079c531659141344cd1fd0a4f28419497f9722a3daafe3b4186f6b6457e0908290a360018055613247806100ae6000396000f3fe6080604052600436106102725760003560e01c80636f71de131161014f578063b64ecfbd116100c1578063e22069de1161007a578063e22069de146108c3578063e67a9201146108f3578063e6fa020914610923578063ed174af514610953578063f0f4426014610968578063f2fde38b1461099b57610272565b8063b64ecfbd146107da578063bdf1483c14610804578063cec0596e14610837578063d5bf46f01461085a578063dbc75e4614610884578063dede7b7f146108ae57610272565b80638da5cb5b116101135780638da5cb5b146107325780638f32d59b14610747578063923767bd1461075c5780639f1f265e14610771578063abee9e051461079b578063b44faa34146107b057610272565b80636f71de131461067c578063715018a61461069157806371c889d5146106a6578063723dfc9e146106d05780638c6186481461071d57610272565b8063295a6ff6116101e8578063563df32f116101ac578063563df32f1461058f57806358c6887f146105a457806359ae2185146105d45780636088e93a1461060457806362a4030a1461063d578063682efefd1461066757610272565b8063295a6ff6146104fc578063316e5a90146105115780633748312f146105265780634abfd92c1461053b5780634b70212c1461056557610272565b806319c8049f1161023a57806319c8049f146103ca578063229c93cf14610403578063278ecde11461044f57806327c454311461047957806327ce2a49146104b757806328337143146104cc57610272565b806303b459b414610277578063107c4e581461029e57806313f4244e146102d3578063141ac97114610327578063154c461f1461033c575b600080fd5b34801561028357600080fd5b5061028c6109ce565b60408051918252519081900360200190f35b3480156102aa57600080fd5b506102d1600480360360208110156102c157600080fd5b50356001600160a01b03166109d4565b005b3480156102df57600080fd5b506102d1600480360360c08110156102f657600080fd5b506001600160a01b038135169060208101359060408101359060ff6060820135169060808101359060a00135610a40565b34801561033357600080fd5b5061028c610e8f565b34801561034857600080fd5b506103666004803603602081101561035f57600080fd5b5035610e95565b604080519a8b526001600160a01b03998a1660208c015260ff9889168b8201529690981660608a0152608089019490945260a088019290925260c087015290921660e085015261010084019190915261012083019190915251908190036101400190f35b3480156103d657600080fd5b5061028c600480360360408110156103ed57600080fd5b50803590602001356001600160a01b0316610f0d565b34801561040f57600080fd5b506104336004803603604081101561042657600080fd5b5080359060200135610f2a565b604080516001600160a01b039092168252519081900360200190f35b34801561045b57600080fd5b506102d16004803603602081101561047257600080fd5b5035610f50565b34801561048557600080fd5b506104a36004803603602081101561049c57600080fd5b5035611249565b604080519115158252519081900360200190f35b3480156104c357600080fd5b5061028c61125e565b3480156104d857600080fd5b506102d1600480360360408110156104ef57600080fd5b5080359060200135611264565b34801561050857600080fd5b5061028c611669565b34801561051d57600080fd5b5061028c61166f565b34801561053257600080fd5b5061028c611675565b34801561054757600080fd5b506104a36004803603602081101561055e57600080fd5b503561167b565b34801561057157600080fd5b506102d16004803603602081101561058857600080fd5b5035611690565b34801561059b57600080fd5b5061043361170b565b3480156105b057600080fd5b506102d1600480360360408110156105c757600080fd5b508035906020013561171a565b3480156105e057600080fd5b506102d1600480360360408110156105f757600080fd5b508035906020013561176f565b34801561061057600080fd5b506102d16004803603604081101561062757600080fd5b506001600160a01b0381351690602001356117c4565b34801561064957600080fd5b506102d16004803603602081101561066057600080fd5b5035611881565b34801561067357600080fd5b5061028c6118d0565b34801561068857600080fd5b5061028c6118d6565b34801561069d57600080fd5b506102d16118dc565b3480156106b257600080fd5b5061028c600480360360208110156106c957600080fd5b5035611970565b3480156106dc57600080fd5b506106fa600480360360208110156106f357600080fd5b5035611982565b604080516001600160a01b03909316835260208301919091528051918290030190f35b34801561072957600080fd5b506104336119a7565b34801561073e57600080fd5b506104336119b6565b34801561075357600080fd5b506104a36119c5565b34801561076857600080fd5b506104336119d6565b34801561077d57600080fd5b5061028c6004803603602081101561079457600080fd5b50356119e5565b3480156107a757600080fd5b5061028c611b07565b3480156107bc57600080fd5b506102d1600480360360208110156107d357600080fd5b5035611b0d565b3480156107e657600080fd5b506102d1600480360360208110156107fd57600080fd5b5035611e21565b34801561081057600080fd5b506102d16004803603602081101561082757600080fd5b50356001600160a01b03166125ae565b6102d16004803603604081101561084d57600080fd5b508035906020013561261a565b34801561086657600080fd5b506102d16004803603602081101561087d57600080fd5b503561292e565b34801561089057600080fd5b506104a3600480360360208110156108a757600080fd5b50356129fe565b3480156108ba57600080fd5b5061028c612a13565b3480156108cf57600080fd5b506102d1600480360360408110156108e657600080fd5b5080359060200135612a19565b3480156108ff57600080fd5b506102d16004803603604081101561091657600080fd5b5080359060200135612a6e565b34801561092f57600080fd5b506102d16004803603604081101561094657600080fd5b5080359060200135612ac3565b34801561095f57600080fd5b5061028c612c92565b34801561097457600080fd5b506102d16004803603602081101561098b57600080fd5b50356001600160a01b0316612c98565b3480156109a757600080fd5b506102d1600480360360208110156109be57600080fd5b50356001600160a01b0316612d04565b60055481565b6109dc6119c5565b610a1e5760408051600160e51b62461bcd02815260206004820181905260248201526000805160206131fc833981519152604482015290519081900360640190fd5b600380546001600160a01b0319166001600160a01b0392909216919091179055565b60035460408051600160e01b6370a0823102815233600482015290516000926001600160a01b0316916370a08231916024808301926020929190829003018186803b158015610a8e57600080fd5b505afa158015610aa2573d6000803e3d6000fd5b505050506040513d6020811015610ab857600080fd5b50519050610ac587612d5a565b610b195760408051600160e51b62461bcd02815260206004820152600f60248201527f69742773206e6f7420616e204e46540000000000000000000000000000000000604482015290519081900360640190fd5b600554811015610b735760408051600160e51b62461bcd02815260206004820152601260248201527f6e6f7420656e6f75676820636869636b697a0000000000000000000000000000604482015290519081900360640190fd5b84600d5411158015610b875750600e548511155b610bdb5760408051600160e51b62461bcd02815260206004820152601260248201527f6e6f7420636f727265637420706572696f640000000000000000000000000000604482015290519081900360640190fd5b81600a5411158015610bef5750600b548211155b610c435760408051600160e51b62461bcd02815260206004820152601660248201527f6e6f7420636f7272656374207469636b65745175616e00000000000000000000604482015290519081900360640190fd5b60408051600160e01b6323b872dd0281523360048201523060248201526044810188905290516001600160a01b038916916323b872dd91606480830192600092919082900301818387803b158015610c9a57600080fd5b505af1158015610cae573d6000803e3d6000fd5b505050506000610cbc611675565b9050600f604051806101400160405280838152602001336001600160a01b03168152602001600654851015610cf2576001610cf5565b60005b60ff1681526020018a6001600160a01b031681526020018981526020014381526020018881526020018760ff16815260200186815260200185815250908060018154018082558091505090600182039060005260206000209060090201600090919290919091506000820151816000015560208201518160010160006101000a8154816001600160a01b0302191690836001600160a01b0316021790555060408201518160010160146101000a81548160ff021916908360ff16021790555060608201518160020160006101000a8154816001600160a01b0302191690836001600160a01b031602179055506080820151816003015560a0820151816004015560c0820151816005015560e08201518160060160006101000a81548160ff021916908360ff16021790555061010082015181600701556101208201518160080155505050876001600160a01b0316336001600160a01b0316827f1f0009e4bc7cdf501d942910af29c57461ff055e1d87cb8ab01c4d5b8db140038a6040518082815260200191505060405180910390a45050505050505050565b600d5481565b600f8181548110610ea257fe5b60009182526020909120600990910201805460018201546002830154600384015460048501546005860154600687015460078801546008909801549698506001600160a01b038087169860ff600160a01b90980488169896909116969495939492939190921691908a565b601060209081526000928352604080842090915290825290205481565b60126020908152600092835260408084209091529082529020546001600160a01b031681565b60026001541415610f995760408051600160e51b62461bcd02815260206004820152601f6024820152600080516020613195833981519152604482015290519081900360640190fd5b6002600155610fa6613112565b600f8281548110610fb357fe5b600091825260209182902060408051610140810182526009909302909101805483526001808201546001600160a01b038082169686019690965260ff600160a01b9091048116938501939093526002820154909416606084015260038101546080840152600481015460a0840152600581015460c0840152600681015490911660e08301526007810154610100830152600801546101208201529150611058836119e5565b146110ad5760408051600160e51b62461bcd02815260206004820152601360248201527f69742773206e6f7420666f7220726566756e6400000000000000000000000000604482015290519081900360640190fd5b60008281526015602052604090205460ff16156111095760408051600160e51b62461bcd02815260206004820152600f60248201526001608a1b6e185b1c9958591e4818db185a5b595902604482015290519081900360640190fd5b60208101516001600160a01b0316331461116d5760408051600160e51b62461bcd02815260206004820152601460248201527f796f75277265206e6f74206120726166666c6572000000000000000000000000604482015290519081900360640190fd5b6060810151608082015160408051600160e01b6323b872dd0281523060048201523360248201526044810192909252516001600160a01b03909216916323b872dd9160648082019260009290919082900301818387803b1580156111d057600080fd5b505af11580156111e4573d6000803e3d6000fd5b50505060008381526015602090815260408083208054600160ff19918216811790925560169093528184208054909316179091555133925084917f4c993e2998b76e98551f924d5d3baca95897eadb55380f0be27b410b954bfdbc91a3505060018055565b60156020526000908152604090205460ff1681565b600e5481565b61126c613112565b600f838154811061127957fe5b60009182526020808320604080516101408101825260099094029091018054845260018101546001600160a01b038082169486019490945260ff600160a01b9091048116928501929092526002810154909216606084015260038201546080840152600482015460a0840152600582015460c084015260068201541660e0830152600781015461010083015260080154610120820152915061131a846119e5565b1461136f5760408051600160e51b62461bcd02815260206004820152601960248201527f726166666c65206973206e6f7420696e2070726f677265737300000000000000604482015290519081900360640190fd5b60e081015160ff166001146113ce5760408051600160e51b62461bcd02815260206004820152601a60248201527f627579207469636b6574732077697468204b6c61792c20706c7a000000000000604482015290519081900360640190fd5b6101208101516000848152601160205260409020546113f3908463ffffffff612de316565b11156114405760408051600160e51b62461bcd02815260206004820152601160248201526001607a1b701b9bdd08195b9bdd59da08151250d2d15502604482015290519081900360640190fd5b60208101516001600160a01b03163314156114a55760408051600160e51b62461bcd02815260206004820152601960248201527f726166666c65722063616e277420627579207469636b65747300000000000000604482015290519081900360640190fd5b6002546101008201516001600160a01b03909116906323b872dd90339030906114d590879063ffffffff612e4916565b6040805163ffffffff861660e01b81526001600160a01b0394851660048201529290931660248301526044820152905160648083019260209291908290030181600087803b15801561152657600080fd5b505af115801561153a573d6000803e3d6000fd5b505050506040513d602081101561155057600080fd5b50506000838152601160205260409020545b600084815260116020526040902054611581908463ffffffff612de316565b8110156115b9576000848152601260209081526040808320848452909152902080546001600160a01b03191633179055600101611562565b506000838152601160205260409020546115d9908363ffffffff612de316565b6000848152601160209081526040808320939093556010815282822033835290529081205461160e908463ffffffff612de316565b6000858152601060209081526040808320338085529083529281902084905580518481529051939450869388927fcf0bab43139e8e40cbf4c518c5230a7770c1ca0e3a44a11093fb6ec27fbb9e6c928290030190a450505050565b600c5481565b600a5481565b600f5490565b60166020526000908152604090205460ff1681565b6116986119c5565b6116da5760408051600160e51b62461bcd02815260206004820181905260248201526000805160206131fc833981519152604482015290519081900360640190fd5b604051339082156108fc029083906000818181858888f19350505050158015611707573d6000803e3d6000fd5b5050565b6004546001600160a01b031681565b6117226119c5565b6117645760408051600160e51b62461bcd02815260206004820181905260248201526000805160206131fc833981519152604482015290519081900360640190fd5b600791909155600855565b6117776119c5565b6117b95760408051600160e51b62461bcd02815260206004820181905260248201526000805160206131fc833981519152604482015290519081900360640190fd5b600d91909155600e55565b6117cc6119c5565b61180e5760408051600160e51b62461bcd02815260206004820181905260248201526000805160206131fc833981519152604482015290519081900360640190fd5b60408051600160e01b6323b872dd0281523060048201523360248201526044810183905290516001600160a01b038416916323b872dd91606480830192600092919082900301818387803b15801561186557600080fd5b505af1158015611879573d6000803e3d6000fd5b505050505050565b6118896119c5565b6118cb5760408051600160e51b62461bcd02815260206004820181905260248201526000805160206131fc833981519152604482015290519081900360640190fd5b600c55565b60065481565b60095481565b6118e46119c5565b6119265760408051600160e51b62461bcd02815260206004820181905260248201526000805160206131fc833981519152604482015290519081900360640190fd5b600080546040516001600160a01b03909116907f8be0079c531659141344cd1fd0a4f28419497f9722a3daafe3b4186f6b6457e0908390a3600080546001600160a01b0319169055565b60116020526000908152604090205481565b601460205260009081526040902080546001909101546001600160a01b039091169082565b6003546001600160a01b031681565b6000546001600160a01b031690565b6000546001600160a01b0316331490565b6002546001600160a01b031681565b60006119ef613112565b600f83815481106119fc57fe5b6000918252602091829020604080516101408101825260099093029091018054835260018101546001600160a01b038082169585019590955260ff600160a01b9091048116928401929092526002810154909316606083015260038301546080830152600483015460a08301819052600584015460c08401819052600685015490921660e084015260078401546101008401526008909301546101208301529092504391611aaf9163ffffffff612de316565b10611abe575060009050611b02565b600083815260116020526040902054611adb575060019050611b02565b60008381526013602052604090205460ff16611af8576002611afb565b60035b60ff169150505b919050565b600b5481565b60026001541415611b565760408051600160e51b62461bcd02815260206004820152601f6024820152600080516020613195833981519152604482015290519081900360640190fd5b6002600155611b63613112565b600f8281548110611b7057fe5b6000918252602091829020604080516101408101825260099093029091018054835260018101546001600160a01b038082169585019590955260ff600160a01b9091048116928401929092526002810154909316606083015260038301546080830152600483015460a0830152600583015460c083015260068301541660e082015260078201546101008201526008909101546101208201529050611c1361317d565b50600082815260146020908152604091829020825180840190935280546001600160a01b0316835260010154908201526003611c4e846119e5565b14611c9e5760408051600160e51b62461bcd02815260206004820152601560248201526001605a1b741c9859999b1949dcc81b9bdd081bdd995c881e595d02604482015290519081900360640190fd5b60008381526016602052604090205460ff1615611cfa5760408051600160e51b62461bcd02815260206004820152600f60248201526001608a1b6e185b1c9958591e4818db185a5b595902604482015290519081900360640190fd5b80516001600160a01b03163314611d5b5760408051600160e51b62461bcd02815260206004820152601360248201527f796f75277265206e6f7420612077696e6e657200000000000000000000000000604482015290519081900360640190fd5b6060820151608083015160408051600160e01b6323b872dd0281523060048201523360248201526044810192909252516001600160a01b03909216916323b872dd9160648082019260009290919082900301818387803b158015611dbe57600080fd5b505af1158015611dd2573d6000803e3d6000fd5b505050600084815260166020526040808220805460ff191660011790555133925085917fb23f8e496a58387705b1679e5e07534281d92457994370cd7864a21f4ad8686691a350506001805550565b60026001541415611e6a5760408051600160e51b62461bcd02815260206004820152601f6024820152600080516020613195833981519152604482015290519081900360640190fd5b6002600155611e77613112565b600f8281548110611e8457fe5b6000918252602091829020604080516101408101825260099093029091018054835260018101546001600160a01b038082169585019590955260ff600160a01b909104811692840192909252600281015490931660608301526003808401546080840152600484015460a0840152600584015460c0840152600684015490911660e083015260078301546101008301526008909201546101208201529150611f2b836119e5565b14611f7b5760408051600160e51b62461bcd02815260206004820152601560248201526001605a1b741c9859999b1949dcc81b9bdd081bdd995c881e595d02604482015290519081900360640190fd5b60008281526015602052604090205460ff1615611fd75760408051600160e51b62461bcd02815260206004820152600f60248201526001608a1b6e185b1c9958591e4818db185a5b595902604482015290519081900360640190fd5b60208101516001600160a01b0316331461203b5760408051600160e51b62461bcd02815260206004820152601460248201527f796f75277265206e6f74206120726166666c6572000000000000000000000000604482015290519081900360640190fd5b60e081015160ff1661222657604081015160ff1661215a57336001600160a01b03166108fc6120bc6009546120b0612080600854600954612ea590919063ffffffff16565b6101008701516000898152601160205260409020546120a49163ffffffff612e4916565b9063ffffffff612e4916565b9063ffffffff612ee716565b6040518115909202916000818181858888f193505050501580156120e4573d6000803e3d6000fd5b506004546009546008546101008401516000868152601160205260409020546001600160a01b03909416936108fc9361212c9390926120b0926120a49163ffffffff612e4916565b6040518115909202916000818181858888f19350505050158015612154573d6000803e3d6000fd5b50612221565b336001600160a01b03166108fc6121876009546120b0612080600754600954612ea590919063ffffffff16565b6040518115909202916000818181858888f193505050501580156121af573d6000803e3d6000fd5b506004546009546007546101008401516000868152601160205260409020546001600160a01b03909416936108fc936121f79390926120b0926120a49163ffffffff612e4916565b6040518115909202916000818181858888f1935050505015801561221f573d6000803e3d6000fd5b505b612563565b60e081015160ff166001141561256357604081015160ff166123e7576002546009546008546001600160a01b039092169163a9059cbb91339161229d91906120b09061227990839063ffffffff612ea516565b61010088015160008a8152601160205260409020546120a49163ffffffff612e4916565b6040518363ffffffff1660e01b815260040180836001600160a01b03166001600160a01b0316815260200182815260200192505050602060405180830381600087803b1580156122ec57600080fd5b505af1158015612300573d6000803e3d6000fd5b505050506040513d602081101561231657600080fd5b50506002546004546009546008546101008501516000878152601160205260409020546001600160a01b039586169563a9059cbb9516936123669390926120b0926120a49163ffffffff612e4916565b6040518363ffffffff1660e01b815260040180836001600160a01b03166001600160a01b0316815260200182815260200192505050602060405180830381600087803b1580156123b557600080fd5b505af11580156123c9573d6000803e3d6000fd5b505050506040513d60208110156123df57600080fd5b506125639050565b6002546009546007546001600160a01b039092169163a9059cbb91339161241e91906120b09061227990839063ffffffff612ea516565b6040518363ffffffff1660e01b815260040180836001600160a01b03166001600160a01b0316815260200182815260200192505050602060405180830381600087803b15801561246d57600080fd5b505af1158015612481573d6000803e3d6000fd5b505050506040513d602081101561249757600080fd5b50506002546004546009546007546101008501516000878152601160205260409020546001600160a01b039586169563a9059cbb9516936124e79390926120b0926120a49163ffffffff612e4916565b6040518363ffffffff1660e01b815260040180836001600160a01b03166001600160a01b0316815260200182815260200192505050602060405180830381600087803b15801561253657600080fd5b505af115801561254a573d6000803e3d6000fd5b505050506040513d602081101561256057600080fd5b50505b600082815260156020526040808220805460ff1916600117905551339184917f169bf96c0f779bceb94b1edad1fd12480213fc56caf25d385f48206cf7c825939190a3505060018055565b6125b66119c5565b6125f85760408051600160e51b62461bcd02815260206004820181905260248201526000805160206131fc833981519152604482015290519081900360640190fd5b600280546001600160a01b0319166001600160a01b0392909216919091179055565b612622613112565b600f838154811061262f57fe5b60009182526020808320604080516101408101825260099094029091018054845260018101546001600160a01b038082169486019490945260ff600160a01b9091048116928501929092526002810154909216606084015260038201546080840152600482015460a0840152600582015460c084015260068201541660e083015260078101546101008301526008015461012082015291506126d0846119e5565b146127255760408051600160e51b62461bcd02815260206004820152601960248201527f726166666c65206973206e6f7420696e2070726f677265737300000000000000604482015290519081900360640190fd5b60e081015160ff16156127825760408051600160e51b62461bcd02815260206004820152601b60248201527f627579207469636b657473207769746820436869636b2c20706c7a0000000000604482015290519081900360640190fd5b61010081015161279990839063ffffffff612e4916565b3410156127f05760408051600160e51b62461bcd02815260206004820152600f60248201527f6e6f7420656e6f756768204b4c41590000000000000000000000000000000000604482015290519081900360640190fd5b610120810151600084815260116020526040902054612815908463ffffffff612de316565b11156128625760408051600160e51b62461bcd02815260206004820152601160248201526001607a1b701b9bdd08195b9bdd59da08151250d2d15502604482015290519081900360640190fd5b60208101516001600160a01b03163314156128c75760408051600160e51b62461bcd02815260206004820152601960248201527f726166666c65722063616e277420627579207469636b65747300000000000000604482015290519081900360640190fd5b6000838152601160205260409020545b6000848152601160205260409020546128f6908463ffffffff612de316565b8110156115b9576000848152601260209081526040808320848452909152902080546001600160a01b031916331790556001016128d7565b6129366119c5565b6129785760408051600160e51b62461bcd02815260206004820181905260248201526000805160206131fc833981519152604482015290519081900360640190fd5b60025460408051600160e01b63a9059cbb0281523360048201526024810184905290516001600160a01b039092169163a9059cbb916044808201926020929091908290030181600087803b1580156129cf57600080fd5b505af11580156129e3573d6000803e3d6000fd5b505050506040513d60208110156129f957600080fd5b505050565b60136020526000908152604090205460ff1681565b60085481565b612a216119c5565b612a635760408051600160e51b62461bcd02815260206004820181905260248201526000805160206131fc833981519152604482015290519081900360640190fd5b600591909155600655565b612a766119c5565b612ab85760408051600160e51b62461bcd02815260206004820181905260248201526000805160206131fc833981519152604482015290519081900360640190fd5b600a91909155600b55565b612acb6119c5565b612b0d5760408051600160e51b62461bcd02815260206004820181905260248201526000805160206131fc833981519152604482015290519081900360640190fd5b60026001541415612b565760408051600160e51b62461bcd02815260206004820152601f6024820152600080516020613195833981519152604482015290519081900360640190fd5b60026001819055612b66836119e5565b14612bb65760408051600160e51b62461bcd02815260206004820152601560248201526001605a1b741c9859999b1949dcc81b9bdd081bdd995c881e595d02604482015290519081900360640190fd5b600082815260116020526040812054612bd0908390612f29565b6000848152601260209081526040808320848452825280832054878452601083528184206001600160a01b0391821680865290845282852054835180850185528281528086018281528b885260148752858820915182546001600160a01b031916951694909417815592516001938401556013909452828520805460ff191690921790915590519394509290918291849188917fd56a6e1ca38940603710488428fc3d5e021da2c607c7d5255efeb654d8ea9c469190a4505060018055505050565b60075481565b612ca06119c5565b612ce25760408051600160e51b62461bcd02815260206004820181905260248201526000805160206131fc833981519152604482015290519081900360640190fd5b600480546001600160a01b0319166001600160a01b0392909216919091179055565b612d0c6119c5565b612d4e5760408051600160e51b62461bcd02815260206004820181905260248201526000805160206131fc833981519152604482015290519081900360640190fd5b612d5781612f6d565b50565b60408051600160e01b6301ffc9a7028152600160e01b6380ac58cd02600482015290516000916001600160a01b038416916301ffc9a791602480820192602092909190829003018186803b158015612db157600080fd5b505afa158015612dc5573d6000803e3d6000fd5b505050506040513d6020811015612ddb57600080fd5b505192915050565b600082820183811015612e405760408051600160e51b62461bcd02815260206004820152601b60248201527f536166654d6174683a206164646974696f6e206f766572666c6f770000000000604482015290519081900360640190fd5b90505b92915050565b600082612e5857506000612e43565b82820282848281612e6557fe5b0414612e4057604051600160e51b62461bcd0281526004018080602001828103825260218152602001806131db6021913960400191505060405180910390fd5b6000612e4083836040518060400160405280601e81526020017f536166654d6174683a207375627472616374696f6e206f766572666c6f770000815250613010565b6000612e4083836040518060400160405280601a81526020017f536166654d6174683a206469766973696f6e206279207a65726f0000000000008152506130aa565b600081428460405160200180838152602001828152602001925050506040516020818303038152906040528051906020012060001c81612f6557fe5b069392505050565b6001600160a01b038116612fb557604051600160e51b62461bcd0281526004018080602001828103825260268152602001806131b56026913960400191505060405180910390fd5b600080546040516001600160a01b03808516939216917f8be0079c531659141344cd1fd0a4f28419497f9722a3daafe3b4186f6b6457e091a3600080546001600160a01b0319166001600160a01b0392909216919091179055565b600081848411156130a257604051600160e51b62461bcd0281526004018080602001828103825283818151815260200191508051906020019080838360005b8381101561306757818101518382015260200161304f565b50505050905090810190601f1680156130945780820380516001836020036101000a031916815260200191505b509250505060405180910390fd5b505050900390565b600081836130fc57604051600160e51b62461bcd02815260206004820181815283516024840152835190928392604490910191908501908083836000831561306757818101518382015260200161304f565b50600083858161310857fe5b0495945050505050565b6040518061014001604052806000815260200160006001600160a01b03168152602001600060ff16815260200160006001600160a01b03168152602001600081526020016000815260200160008152602001600060ff16815260200160008152602001600081525090565b60408051808201909152600080825260208201529056fe5265656e7472616e637947756172643a207265656e7472616e742063616c6c004f776e61626c653a206e6577206f776e657220697320746865207a65726f2061646472657373536166654d6174683a206d756c7469706c69636174696f6e206f766572666c6f774f776e61626c653a2063616c6c6572206973206e6f7420746865206f776e6572a165627a7a72305820b86db08f09249c69db9aa1040f5418f60472e5375527ff47980d2c806a9086230029",
  "source": "pragma solidity ^0.5.6;\r\n\r\nimport \"./interface/IRaffle.sol\";\r\nimport \"./klaytn-contracts/token/KIP17/IKIP17.sol\";\r\nimport \"./klaytn-contracts/token/KIP7/IKIP7.sol\";\r\nimport \"./klaytn-contracts/ownership/Ownable.sol\";\r\nimport \"./klaytn-contracts/math/SafeMath.sol\";\r\nimport \"./ReentrancyGuard.sol\";\r\n\r\n/*\r\n                                        @@@@@@@                                                      \r\n                                     @@@@@@@@@@@@#                                                   \r\n                                   (@@@@@@@@@@@@@@                                                   \r\n                               ,@@ @@@@@@@@@@@@@@@@@@                                                \r\n                            @@@@@@@@@@@@@@@@@@,@@@@@@@@,                                             \r\n                            @@@@@@&%@@@@@@@@ @@@@@@@@@@                                              \r\n                             @@@@              (@@@@@                                                \r\n                                *@@@@@@@@@@@@@@%                                                     \r\n                          ,@@@@@@@@@@@@@@@@@@@@@@@@@@,                                               \r\n                        *@@@@@@@@@@@@@@@@@@@@@@@@@@@@@@@                                             \r\n                      @@@@@@@@@@@@@@@@@@@@@@@@@@@@@@@@@@@@#                                          \r\n                   @@@@@@@@@@@@@@@@@@@@@@@@@@@@@@@@@@@@@@@@@@@                                       \r\n                @@@@@@@@@@@@@@@@@@@@@@@@@@@@@@@@@@@@@@@@@@@@@@@@                                     \r\n               @@@@@@@@@@@@@@@@@@@@@@@@@@@@@@@@@@@@@@@@@@@@@@@@@@                                    \r\n              @@@@@@@@@@@@@@@@@@@@@@@@@@@@@@@@@@@@@@@@@@@@@@@@@@@@.                                  \r\n           @@@@@@@@@@@@@@@@@@@@@@@@@@@@@@@@@@@@@@@@@@@@@@@@@@@@@@@@@@                                \r\n           @%                                                      @@                                \r\n          %@%  @@@%      @@@@@@@@@@         @@@&      @@@@@@@@@@   @@@                               \r\n          @@%  @@@     @@@@@@@@@@@@#  @@@   @@@     %@@@@@@@@@@@   @@@                               \r\n         @@@%  @@/    @@@@@@@@@@@@@#  @@@   @@%    @@@@@@@@@@@@@   @@@@                              \r\n       &@@@@@  %@@   #@@@@@@@@@@@@@  ,@@@@  @@%   *@@@@@@@@@@@@@  (@@@@@@  @@@@@@@@&                 \r\n       @@@@@@@  ,@@  @@@@@@@@@@@@@           @@@  @@@@@@@@@@@@(  ,@@@@@@ *@@@@@@@@@                  \r\n      @@@@@@@@@(   @@ @@@@@@@@@&   @@@@@@@@@.  *@@ @@@@@@@@@*   @@@@@@@ .@@@@@@@@@@                  \r\n      @@@@@@@@@@@@              #@@@@@@@@@@@@@@              @@@@@@@@@* @@@@@@@@@@                   \r\n       @@@@@@@@@@@@@@@@@@@@@@@@@@@@@@@@@@@@@@@@@@@@@@@@@@@@@@@@@@@@@@@  @@@@@@@@@@                   \r\n        @@@@@@@@@@@@@@@@@@@@@@@@@@@@@@@@@@@@@@@@@@@@@@@@@@@@@*,        (@@@@@@@@@@                   \r\n         @@@@@@@@@@@@@@@@@@@@@@@@@@@@@@@@@@@@@@@@@@@@@@@@  %@@@@@@@@@@@@@@@@@@@@@@*                  \r\n            @@@@@@@@@@@@@@@@@@@@@@@@@@@@@@@@@@@@@@@@@@@@ .@@@@@@@@@@@@@@@@@@@@@@@@@@                 \r\n              @@@@@@@@@@@@@@@@@@@@@@@@@@@@@@@@@@@@@@@@@@  //@@@@@@@@@@@@@@@@@@@@@@@@@                \r\n                  @@@@@@@@@@@@@@@@@@@@@@@@@@@@@@@@@@@@( @@@@@@@@@@@@@@@@@@@@@@@@@@@@@                \r\n                         @      @@   &@@@@@    @@       @@@@@@@@@@@@@@@@@@@@@@@@@@@@@                \r\n                           (@@@@@@@@@@@@@@@@@@@@@@@@@         @@@@@@@@@@@@@@@@@@@@@@                 \r\n                               @@@@@@@@@@@@@@@@@@#       *@@@@@@@@@@@@@@@@@@@@@@@@%                  \r\n                                   .@@@@@@@@.             /@@@@@@@@@@@@@@@@@@@@@                     \r\n                                                                 (@@@@@@@/.                          \r\n\r\n      @@@@@@     @@@@     @@@  @@@@     @@@@@@    *@@@       % %@@@ @@@@@@@@@@@@                     \r\n   &@@@@@@@@@@@  @@@@     @@@  @@@@  @@@@@@@@@@@# *@@@  (@@@@% %@@@        @@@@/                     \r\n   @@@@          @@@@     @@@  @@@@ #@@@,         *@@@@@@@@    %@@@      @@@@&                       \r\n   @@@@          @@@@@@@@@@@@  @@@@ #@@@          *@@@@@@      %@@@     @@@@                         \r\n   @@@@          @@@@     @@@  @@@@ #@@@          *@@@@@@@@@   %@@@   @@@@                           \r\n   @@@@@,,@@@@@  @@@@     @@@  @@@@  @@@@@,,@@@@@ *@@@   &@@@@ %@@@ @@@@@@@@@@@@                     \r\n     @@@@@@@@    @@@@     @@@  @@@@   .@@@@@@@%   *@@@      .@ %@@@ @@@@@@@@@@@@         \r\n*/\r\n\r\ncontract Raffle is Ownable, ReentrancyGuard, IRaffle {\r\n    using SafeMath for uint256;\r\n\r\n    IKIP7 public Chick;\r\n    IKIP17 public Chickiz;\r\n    address payable public Treasury;\r\n\r\n    /*\r\n        -- CONSTANT VALUES --\r\n        \r\n        PAYMENT METHOD 0,1\r\n\r\n        RAFFLER STATUS 0,1\r\n        - status with 0 will get discount, status with 1 won't.\r\n        - it depends on chickiz balance and raffler_discount_chickizQuan.\r\n\r\n        RAFFLE STATUS 0,1,2\r\n    */\r\n\r\n    uint8 private constant _PAYMENT_METHOD_KLAY = 0;\r\n    uint8 private constant _PAYMENT_METHOD_CHICK = 1;\r\n\r\n    uint8 private constant _RAFFLER_STATUS_DISCOUNT = 0;\r\n    uint8 private constant _RAFFLER_STATUS_NODISCOUNT = 1;\r\n\r\n    uint8 private constant _RAFFLE_STATUS_ING = 0; // \r\n    uint8 private constant _RAFFLE_STATUS_REFUND = 1; // \r\n    uint8 private constant _RAFFLE_STATUS_ED = 2; // ,  \r\n    uint8 private constant _RAFFLE_STATUS_DONE = 3; //  \r\n\r\n    // for checking rafflerStatus\r\n    uint256 public raffler_minimun_chickizQuan = 0;\r\n    uint256 public raffler_discount_chickizQuan = 3;\r\n\r\n    uint256 public raffle_fee = 60; // divided by 1000\r\n    uint256 public raffle_fee_discount = 30;\r\n    uint256 public raffle_fee_dividend = 1000;\r\n\r\n    // ticket\r\n    uint256 public ticket_min = 10;\r\n    uint256 public ticket_max = 300;\r\n    uint256 public ticket_max_price = 1e27;\r\n\r\n    // interface\r\n    bytes4 private constant _INTERFACE_ID_KIP17 = 0x80ac58cd;\r\n\r\n    // period\r\n    uint256 public minRafflePeriod = 21600;\r\n    uint256 public maxRafflePeriod = 172800;\r\n\r\n    // raffle info\r\n    struct RaffleStruct {\r\n        uint256 raffleNum;\r\n        address raffler;\r\n        uint8 rafflerStatus; // 0 - chickiz holder => discount, 1 - not holder => no discount\r\n        IKIP17 nft;\r\n        uint256 nft_tokenId;\r\n        uint256 startBlock;\r\n        uint256 rafflePeriod;\r\n        uint8 paymentMethod; // 0 - klay, 1 - chick\r\n        uint256 ticketPrice;\r\n        uint256 ticketQuan;\r\n    }\r\n\r\n    struct WinnerStruct {\r\n        address winner;\r\n        uint256 ticketQuan;\r\n    }\r\n\r\n    RaffleStruct[] public RaffleList;\r\n    mapping(uint256 => mapping(address => uint256)) public participants_ticket;\r\n    mapping(uint256 => uint256) public soldTickets;\r\n    mapping(uint256 => mapping(uint256 => address))\r\n        public ticketnumber_participants;\r\n    mapping(uint256 => bool) public rafflingDone; //  \r\n    mapping(uint256 => WinnerStruct) public raffleResult;\r\n\r\n    mapping(uint256 => bool) public claimByRaffler_done;\r\n    mapping(uint256 => bool) public claimByWinner_done;\r\n\r\n    constructor() public {}\r\n\r\n    // settings\r\n    function setChick(IKIP7 _token) external onlyOwner {\r\n        Chick = _token;\r\n    }\r\n\r\n    function setChickiz(IKIP17 _nft) external onlyOwner {\r\n        Chickiz = _nft;\r\n    }\r\n\r\n    function setTreasury(address payable _treasury) external onlyOwner {\r\n        Treasury = _treasury;\r\n    }\r\n\r\n    function setRafflePeriod(uint256 _min, uint256 _max) external onlyOwner {\r\n        minRafflePeriod = _min;\r\n        maxRafflePeriod = _max;\r\n    }\r\n\r\n    function setRaffleFee(uint256 _fee, uint256 _fee_discount)\r\n        external\r\n        onlyOwner\r\n    {\r\n        raffle_fee = _fee;\r\n        raffle_fee_discount = _fee_discount;\r\n    }\r\n\r\n    function setRafflerQuan(uint256 _minimum, uint256 _discount)\r\n        external\r\n        onlyOwner\r\n    {\r\n        raffler_minimun_chickizQuan = _minimum;\r\n        raffler_discount_chickizQuan = _discount;\r\n    }\r\n\r\n    function setTicketQuan(uint256 _minimum, uint256 _maximum)\r\n        external\r\n        onlyOwner\r\n    {\r\n        ticket_min = _minimum;\r\n        ticket_max = _maximum;\r\n    }\r\n\r\n    function setTicketMaxPrice(uint256 _price) external onlyOwner {\r\n        ticket_max_price = _price;\r\n    }\r\n\r\n    // raffle view\r\n    function totalRaffles() public view returns (uint256) {\r\n        return RaffleList.length;\r\n    }\r\n\r\n    function raffleStatus(uint256 _raffleNum) public view returns (uint256) {\r\n        RaffleStruct memory _raffle = RaffleList[_raffleNum];\r\n\r\n        if (_raffle.startBlock.add(_raffle.rafflePeriod) >= block.number) {\r\n            return _RAFFLE_STATUS_ING;\r\n        } else if (soldTickets[_raffleNum] == 0) {\r\n            return _RAFFLE_STATUS_REFUND;\r\n        } else {\r\n            return\r\n                rafflingDone[_raffleNum]\r\n                    ? _RAFFLE_STATUS_DONE\r\n                    : _RAFFLE_STATUS_ED;\r\n        }\r\n    }\r\n\r\n    // raffle\r\n    function createRaffle(\r\n        IKIP17 _nft,\r\n        uint256 _tokenId,\r\n        uint256 _period,\r\n        uint8 _paymentMehtod,\r\n        uint256 _ticketPrice,\r\n        uint256 _ticketQuan\r\n    ) external {\r\n        uint256 chickizBalance = Chickiz.balanceOf(msg.sender);\r\n        require(_checkKIP17(_nft), \"it's not an NFT\");\r\n        require(\r\n            chickizBalance >= raffler_minimun_chickizQuan,\r\n            \"not enough chickiz\"\r\n        );\r\n        require(\r\n            minRafflePeriod <= _period && _period <= maxRafflePeriod,\r\n            \"not correct period\"\r\n        );\r\n        require(\r\n            ticket_min <= _ticketQuan && _ticketQuan <= ticket_max,\r\n            \"not correct ticketQuan\"\r\n        );\r\n\r\n        _nft.transferFrom(msg.sender, address(this), _tokenId);\r\n\r\n        uint256 _raffleNum = totalRaffles();\r\n\r\n        RaffleList.push(\r\n            RaffleStruct({\r\n                raffleNum: _raffleNum,\r\n                raffler: msg.sender,\r\n                rafflerStatus: chickizBalance >= raffler_discount_chickizQuan\r\n                    ? _RAFFLER_STATUS_DISCOUNT\r\n                    : _RAFFLER_STATUS_NODISCOUNT,\r\n                nft: _nft,\r\n                nft_tokenId: _tokenId,\r\n                startBlock: block.number,\r\n                rafflePeriod: _period,\r\n                paymentMethod: _paymentMehtod,\r\n                ticketPrice: _ticketPrice,\r\n                ticketQuan: _ticketQuan\r\n            })\r\n        );\r\n\r\n        emit RaffleCreate(_raffleNum, msg.sender, _nft, _tokenId);\r\n    }\r\n\r\n    function buyTicketsWithKlay(uint256 _raffleNum, uint256 _ticketQuan)\r\n        external\r\n        payable\r\n    {\r\n        RaffleStruct memory _raffle = RaffleList[_raffleNum];\r\n        require(\r\n            raffleStatus(_raffleNum) == _RAFFLE_STATUS_ING,\r\n            \"raffle is not in progress\"\r\n        );\r\n        require(\r\n            _raffle.paymentMethod == _PAYMENT_METHOD_KLAY,\r\n            \"buy tickets with Chick, plz\"\r\n        );\r\n        require(\r\n            msg.value >= _ticketQuan.mul(_raffle.ticketPrice),\r\n            \"not enough KLAY\"\r\n        );\r\n        require(\r\n            soldTickets[_raffleNum].add(_ticketQuan) <= _raffle.ticketQuan,\r\n            \"not enough TICKET\"\r\n        );\r\n        require(_raffle.raffler != msg.sender, \"raffler can't buy tickets\");\r\n\r\n        for (\r\n            uint256 i = soldTickets[_raffleNum];\r\n            i < soldTickets[_raffleNum].add(_ticketQuan);\r\n            i++\r\n        ) {\r\n            ticketnumber_participants[_raffleNum][i] = msg.sender;\r\n        }\r\n\r\n        soldTickets[_raffleNum] = soldTickets[_raffleNum].add(_ticketQuan);\r\n\r\n        uint256 _now_ticket_quan = participants_ticket[_raffleNum][msg.sender]\r\n            .add(_ticketQuan);\r\n\r\n        participants_ticket[_raffleNum][msg.sender] = _now_ticket_quan;\r\n\r\n        emit TicketBuy(_raffleNum, msg.sender, _ticketQuan, _now_ticket_quan);\r\n    }\r\n\r\n    function buyTicketsWithChick(uint256 _raffleNum, uint256 _ticketQuan)\r\n        external\r\n    {\r\n        RaffleStruct memory _raffle = RaffleList[_raffleNum];\r\n        require(\r\n            raffleStatus(_raffleNum) == _RAFFLE_STATUS_ING,\r\n            \"raffle is not in progress\"\r\n        );\r\n        require(\r\n            _raffle.paymentMethod == _PAYMENT_METHOD_CHICK,\r\n            \"buy tickets with Klay, plz\"\r\n        );\r\n        require(\r\n            soldTickets[_raffleNum].add(_ticketQuan) <= _raffle.ticketQuan,\r\n            \"not enough TICKET\"\r\n        );\r\n        require(_raffle.raffler != msg.sender, \"raffler can't buy tickets\");\r\n\r\n        Chick.transferFrom(\r\n            msg.sender,\r\n            address(this),\r\n            _ticketQuan.mul(_raffle.ticketPrice)\r\n        );\r\n\r\n        for (\r\n            uint256 i = soldTickets[_raffleNum];\r\n            i < soldTickets[_raffleNum].add(_ticketQuan);\r\n            i++\r\n        ) {\r\n            ticketnumber_participants[_raffleNum][i] = msg.sender;\r\n        }\r\n\r\n        soldTickets[_raffleNum] = soldTickets[_raffleNum].add(_ticketQuan);\r\n\r\n        uint256 _now_ticket_quan = participants_ticket[_raffleNum][msg.sender]\r\n            .add(_ticketQuan);\r\n\r\n        participants_ticket[_raffleNum][msg.sender] = _now_ticket_quan;\r\n\r\n        emit TicketBuy(_raffleNum, msg.sender, _ticketQuan, _now_ticket_quan);\r\n    }\r\n\r\n    function selectWinner(uint256 _raffleNum, uint256 _rnd)\r\n        external\r\n        onlyOwner\r\n        nonReentrant\r\n    {\r\n        require(\r\n            raffleStatus(_raffleNum) == _RAFFLE_STATUS_ED,\r\n            \"raffle's not over yet\"\r\n        );\r\n\r\n        uint256 selectedTicket = _randomNumber(_rnd, soldTickets[_raffleNum]);\r\n        address _winner = ticketnumber_participants[_raffleNum][selectedTicket];\r\n        uint256 _winner_ticketQuan = participants_ticket[_raffleNum][_winner];\r\n\r\n        raffleResult[_raffleNum] = WinnerStruct({\r\n            winner: _winner,\r\n            ticketQuan: _winner_ticketQuan\r\n        });\r\n\r\n        rafflingDone[_raffleNum] = true;\r\n\r\n        emit WinnerSelect(_raffleNum, _winner, _winner_ticketQuan);\r\n    }\r\n\r\n    function claimByRaffler(uint256 _raffleNum) external nonReentrant {\r\n        RaffleStruct memory _raffle = RaffleList[_raffleNum];\r\n        require(\r\n            raffleStatus(_raffleNum) == _RAFFLE_STATUS_DONE,\r\n            \"raffle's not over yet\"\r\n        );\r\n        require(claimByRaffler_done[_raffleNum] == false, \"already claimed\");\r\n        require(_raffle.raffler == msg.sender, \"you're not a raffler\");\r\n\r\n        if (_raffle.paymentMethod == _PAYMENT_METHOD_KLAY) {\r\n            if (_raffle.rafflerStatus == _RAFFLER_STATUS_DISCOUNT) {\r\n                msg.sender.transfer(\r\n                    soldTickets[_raffleNum]\r\n                        .mul(_raffle.ticketPrice)\r\n                        .mul(raffle_fee_dividend.sub(raffle_fee_discount))\r\n                        .div(raffle_fee_dividend)\r\n                );\r\n                Treasury.transfer(\r\n                    soldTickets[_raffleNum]\r\n                        .mul(_raffle.ticketPrice)\r\n                        .mul(raffle_fee_discount)\r\n                        .div(raffle_fee_dividend)\r\n                );\r\n            } else {\r\n                msg.sender.transfer(\r\n                    soldTickets[_raffleNum]\r\n                        .mul(_raffle.ticketPrice)\r\n                        .mul(raffle_fee_dividend.sub(raffle_fee))\r\n                        .div(raffle_fee_dividend)\r\n                );\r\n                Treasury.transfer(\r\n                    soldTickets[_raffleNum]\r\n                        .mul(_raffle.ticketPrice)\r\n                        .mul(raffle_fee)\r\n                        .div(raffle_fee_dividend)\r\n                );\r\n            }\r\n        } else if (_raffle.paymentMethod == _PAYMENT_METHOD_CHICK) {\r\n            if (_raffle.rafflerStatus == _RAFFLER_STATUS_DISCOUNT) {\r\n                Chick.transfer(\r\n                    msg.sender,\r\n                    soldTickets[_raffleNum]\r\n                        .mul(_raffle.ticketPrice)\r\n                        .mul(raffle_fee_dividend.sub(raffle_fee_discount))\r\n                        .div(raffle_fee_dividend)\r\n                );\r\n                Chick.transfer(\r\n                    Treasury,\r\n                    soldTickets[_raffleNum]\r\n                        .mul(_raffle.ticketPrice)\r\n                        .mul(raffle_fee_discount)\r\n                        .div(raffle_fee_dividend)\r\n                );\r\n            } else {\r\n                Chick.transfer(\r\n                    msg.sender,\r\n                    soldTickets[_raffleNum]\r\n                        .mul(_raffle.ticketPrice)\r\n                        .mul(raffle_fee_dividend.sub(raffle_fee))\r\n                        .div(raffle_fee_dividend)\r\n                );\r\n                Chick.transfer(\r\n                    Treasury,\r\n                    soldTickets[_raffleNum]\r\n                        .mul(_raffle.ticketPrice)\r\n                        .mul(raffle_fee)\r\n                        .div(raffle_fee_dividend)\r\n                );\r\n            }\r\n        }\r\n\r\n        claimByRaffler_done[_raffleNum] = true;\r\n\r\n        emit RafflerClaim(_raffleNum, msg.sender);\r\n    }\r\n\r\n    function claimByWinner(uint256 _raffleNum) external nonReentrant {\r\n        RaffleStruct memory _raffle = RaffleList[_raffleNum];\r\n        WinnerStruct memory _winner = raffleResult[_raffleNum];\r\n\r\n        require(\r\n            raffleStatus(_raffleNum) == _RAFFLE_STATUS_DONE,\r\n            \"raffle's not over yet\"\r\n        );\r\n        require(claimByWinner_done[_raffleNum] == false, \"already claimed\");\r\n        require(_winner.winner == msg.sender, \"you're not a winner\"); // winner\r\n\r\n        _raffle.nft.transferFrom(\r\n            address(this),\r\n            msg.sender,\r\n            _raffle.nft_tokenId\r\n        );\r\n\r\n        claimByWinner_done[_raffleNum] = true;\r\n\r\n        emit WinnerClaim(_raffleNum, msg.sender);\r\n    }\r\n\r\n    function refund(uint256 _raffleNum) external nonReentrant {\r\n        RaffleStruct memory _raffle = RaffleList[_raffleNum];\r\n        require(\r\n            raffleStatus(_raffleNum) == _RAFFLE_STATUS_REFUND,\r\n            \"it's not for refund\"\r\n        );\r\n        require(claimByRaffler_done[_raffleNum] == false, \"already claimed\");\r\n        require(_raffle.raffler == msg.sender, \"you're not a raffler\");\r\n\r\n        _raffle.nft.transferFrom(\r\n            address(this),\r\n            msg.sender,\r\n            _raffle.nft_tokenId\r\n        );\r\n\r\n        claimByRaffler_done[_raffleNum] = true;\r\n        claimByWinner_done[_raffleNum] = true;\r\n\r\n        emit RefundClaim(_raffleNum, msg.sender);\r\n    }\r\n\r\n    // random\r\n\r\n    function _randomNumber(uint256 _rnd, uint256 max)\r\n        internal\r\n        view\r\n        returns (uint256)\r\n    {\r\n        return\r\n            uint256(\r\n                uint256(keccak256(abi.encodePacked(block.timestamp, _rnd))) %\r\n                    max\r\n            );\r\n    }\r\n\r\n    // check nft raffle possible\r\n    function _checkKIP17(IKIP17 _raffleNFT) internal view returns (bool) {\r\n        return _raffleNFT.supportsInterface(_INTERFACE_ID_KIP17);\r\n    }\r\n\r\n    // for emergencies\r\n    function withdrawNFT(IKIP17 _nft, uint256 _tokenId) external onlyOwner {\r\n        _nft.transferFrom(address(this), msg.sender, _tokenId);\r\n    }\r\n\r\n    function withdrawKlay(uint256 amount) external onlyOwner {\r\n        msg.sender.transfer(amount);\r\n    }\r\n\r\n    function withdrawChick(uint256 amount) external onlyOwner {\r\n        Chick.transfer(msg.sender, amount);\r\n    }\r\n}\r\n",
  "sourcePath": "C:/Users/kwonj/contract_klaytn/raffle/contracts/Raffle.sol",
  "compiler": {
    "name": "solc",
    "version": "0.5.6+commit.b259423e.Emscripten.clang"
  },
  "schemaVersion": "3.3.3",
  "updatedAt": "2022-07-06T12:10:46.347Z",
  "networkType": "ethereum",
  "devdoc": {
    "methods": {
      "isOwner()": {
        "details": "Returns true if the caller is the current owner."
      },
      "owner()": {
        "details": "Returns the address of the current owner."
      },
      "renounceOwnership()": {
        "details": "Leaves the contract without owner. It will not be possible to call `onlyOwner` functions anymore. Can only be called by the current owner.     * > Note: Renouncing ownership will leave the contract without an owner, thereby removing any functionality that is only available to the owner."
      },
      "transferOwnership(address)": {
        "details": "Transfers ownership of the contract to a new account (`newOwner`). Can only be called by the current owner."
      }
    }
  },
  "userdoc": {
    "methods": {}
  }
}