{
  "contractName": "Chick_Mining",
  "abi": [
    {
      "constant": true,
      "inputs": [
        {
          "name": "",
          "type": "uint256"
        }
      ],
      "name": "cp",
      "outputs": [
        {
          "name": "",
          "type": "uint8"
        }
      ],
      "payable": false,
      "stateMutability": "view",
      "type": "function"
    },
    {
      "constant": true,
      "inputs": [],
      "name": "Bone",
      "outputs": [
        {
          "name": "",
          "type": "address"
        }
      ],
      "payable": false,
      "stateMutability": "view",
      "type": "function"
    },
    {
      "constant": true,
      "inputs": [
        {
          "name": "",
          "type": "uint256"
        }
      ],
      "name": "mentor",
      "outputs": [
        {
          "name": "",
          "type": "uint256"
        }
      ],
      "payable": false,
      "stateMutability": "view",
      "type": "function"
    },
    {
      "constant": true,
      "inputs": [],
      "name": "Sunsal",
      "outputs": [
        {
          "name": "",
          "type": "address"
        }
      ],
      "payable": false,
      "stateMutability": "view",
      "type": "function"
    },
    {
      "constant": false,
      "inputs": [],
      "name": "renounceOwnership",
      "outputs": [],
      "payable": false,
      "stateMutability": "nonpayable",
      "type": "function"
    },
    {
      "constant": true,
      "inputs": [],
      "name": "Chickiz",
      "outputs": [
        {
          "name": "",
          "type": "address"
        }
      ],
      "payable": false,
      "stateMutability": "view",
      "type": "function"
    },
    {
      "constant": true,
      "inputs": [],
      "name": "owner",
      "outputs": [
        {
          "name": "",
          "type": "address"
        }
      ],
      "payable": false,
      "stateMutability": "view",
      "type": "function"
    },
    {
      "constant": true,
      "inputs": [],
      "name": "isOwner",
      "outputs": [
        {
          "name": "",
          "type": "bool"
        }
      ],
      "payable": false,
      "stateMutability": "view",
      "type": "function"
    },
    {
      "constant": true,
      "inputs": [],
      "name": "Chick",
      "outputs": [
        {
          "name": "",
          "type": "address"
        }
      ],
      "payable": false,
      "stateMutability": "view",
      "type": "function"
    },
    {
      "constant": true,
      "inputs": [
        {
          "name": "",
          "type": "uint256"
        }
      ],
      "name": "oilCharged",
      "outputs": [
        {
          "name": "",
          "type": "uint256"
        }
      ],
      "payable": false,
      "stateMutability": "view",
      "type": "function"
    },
    {
      "constant": true,
      "inputs": [],
      "name": "Oil",
      "outputs": [
        {
          "name": "",
          "type": "address"
        }
      ],
      "payable": false,
      "stateMutability": "view",
      "type": "function"
    },
    {
      "constant": true,
      "inputs": [
        {
          "name": "",
          "type": "uint256"
        }
      ],
      "name": "mentorKind",
      "outputs": [
        {
          "name": "",
          "type": "uint8"
        }
      ],
      "payable": false,
      "stateMutability": "view",
      "type": "function"
    },
    {
      "constant": true,
      "inputs": [
        {
          "name": "",
          "type": "uint256"
        }
      ],
      "name": "lastMined",
      "outputs": [
        {
          "name": "",
          "type": "uint256"
        }
      ],
      "payable": false,
      "stateMutability": "view",
      "type": "function"
    },
    {
      "constant": false,
      "inputs": [
        {
          "name": "newOwner",
          "type": "address"
        }
      ],
      "name": "transferOwnership",
      "outputs": [],
      "payable": false,
      "stateMutability": "nonpayable",
      "type": "function"
    },
    {
      "inputs": [
        {
          "name": "_Chick",
          "type": "address"
        },
        {
          "name": "_Chickiz",
          "type": "address"
        },
        {
          "name": "_Bone",
          "type": "address"
        },
        {
          "name": "_Sunsal",
          "type": "address"
        },
        {
          "name": "_Oil",
          "type": "address"
        }
      ],
      "payable": false,
      "stateMutability": "nonpayable",
      "type": "constructor"
    },
    {
      "anonymous": false,
      "inputs": [
        {
          "indexed": true,
          "name": "id",
          "type": "uint256"
        },
        {
          "indexed": true,
          "name": "chef",
          "type": "address"
        }
      ],
      "name": "SuperChickiz",
      "type": "event"
    },
    {
      "anonymous": false,
      "inputs": [
        {
          "indexed": true,
          "name": "id",
          "type": "uint256"
        },
        {
          "indexed": true,
          "name": "chef",
          "type": "address"
        },
        {
          "indexed": true,
          "name": "mentorId",
          "type": "uint256"
        }
      ],
      "name": "EquipMentor",
      "type": "event"
    },
    {
      "anonymous": false,
      "inputs": [
        {
          "indexed": true,
          "name": "id",
          "type": "uint256"
        },
        {
          "indexed": true,
          "name": "chef",
          "type": "address"
        },
        {
          "indexed": true,
          "name": "mentorId",
          "type": "uint256"
        }
      ],
      "name": "UnEquipMentor",
      "type": "event"
    },
    {
      "anonymous": false,
      "inputs": [
        {
          "indexed": true,
          "name": "previousOwner",
          "type": "address"
        },
        {
          "indexed": true,
          "name": "newOwner",
          "type": "address"
        }
      ],
      "name": "OwnershipTransferred",
      "type": "event"
    },
    {
      "constant": false,
      "inputs": [
        {
          "name": "_id",
          "type": "uint256"
        },
        {
          "name": "_cp",
          "type": "uint8"
        }
      ],
      "name": "setCP",
      "outputs": [],
      "payable": false,
      "stateMutability": "nonpayable",
      "type": "function"
    },
    {
      "constant": false,
      "inputs": [
        {
          "name": "id",
          "type": "uint256"
        }
      ],
      "name": "makeSuperChickiz",
      "outputs": [],
      "payable": false,
      "stateMutability": "nonpayable",
      "type": "function"
    },
    {
      "constant": false,
      "inputs": [
        {
          "name": "_chickizId",
          "type": "uint256"
        },
        {
          "name": "_mentorId",
          "type": "uint256"
        },
        {
          "name": "_mentorKind",
          "type": "uint8"
        }
      ],
      "name": "equipMentor",
      "outputs": [],
      "payable": false,
      "stateMutability": "nonpayable",
      "type": "function"
    },
    {
      "constant": false,
      "inputs": [
        {
          "name": "id",
          "type": "uint256"
        }
      ],
      "name": "unEquipMentor",
      "outputs": [],
      "payable": false,
      "stateMutability": "nonpayable",
      "type": "function"
    },
    {
      "constant": true,
      "inputs": [
        {
          "name": "id",
          "type": "uint256"
        }
      ],
      "name": "minable",
      "outputs": [
        {
          "name": "",
          "type": "uint256"
        }
      ],
      "payable": false,
      "stateMutability": "view",
      "type": "function"
    },
    {
      "constant": false,
      "inputs": [
        {
          "name": "ids",
          "type": "uint256[]"
        }
      ],
      "name": "mine",
      "outputs": [],
      "payable": false,
      "stateMutability": "nonpayable",
      "type": "function"
    },
    {
      "constant": false,
      "inputs": [
        {
          "name": "ids",
          "type": "uint256[]"
        }
      ],
      "name": "charge",
      "outputs": [],
      "payable": false,
      "stateMutability": "nonpayable",
      "type": "function"
    },
    {
      "constant": true,
      "inputs": [
        {
          "name": "id",
          "type": "uint256"
        }
      ],
      "name": "chickizInfo",
      "outputs": [
        {
          "name": "_cp",
          "type": "uint8"
        },
        {
          "name": "_mentor",
          "type": "uint256"
        },
        {
          "name": "_mentorKind",
          "type": "uint8"
        },
        {
          "name": "_oilCharged",
          "type": "uint256"
        },
        {
          "name": "_lastMined",
          "type": "uint256"
        }
      ],
      "payable": false,
      "stateMutability": "view",
      "type": "function"
    }
  ],
  "bytecode": "0x608060405234801561001057600080fd5b5060405160a080611de0833981018060405260a081101561003057600080fd5b50805160208201516040808401516060850151608090950151600080546001600160a01b031916331780825593519596949592949391926001600160a01b0392909216917f8be0079c531659141344cd1fd0a4f28419497f9722a3daafe3b4186f6b6457e0908290a360018055600280546001600160a01b03199081166001600160a01b03978816179091556003805482169587169590951790945560048054851693861693909317909255600580548416918516919091179055600680549092169216919091179055611cd7806101096000396000f3fe608060405234801561001057600080fd5b50600436106101425760003560e01c80638da5cb5b116100b85780639bf8dd311161007c5780639bf8dd3114610436578063c4cb10a51461043e578063cfb2849f1461045b578063e2c0e47214610478578063e343737114610495578063f2fde38b146104b257610142565b80638da5cb5b1461034a5780638f32d59b1461035257806391e083c31461036e578063923767bd146104115780639575b01c1461041957610142565b806333c3f0de1161010a57806333c3f0de146102ba57806343920197146102d75780634a0b0a59146103035780635f14aca414610332578063715018a61461033a5780638c6186481461034257610142565b80630fd2cd4f146101475780631db53d9c1461016f57806326bcc3bf146101c0578063287ba51a146101f357806329e6c5fa14610296575b600080fd5b61016d6004803603604081101561015d57600080fd5b508035906020013560ff166104d8565b005b61018c6004803603602081101561018557600080fd5b5035610556565b6040805160ff9687168152602081019590955292909416838301526060830152608082019290925290519081900360a00190f35b6101dd600480360360208110156101d657600080fd5b5035610599565b6040805160ff9092168252519081900360200190f35b61016d6004803603602081101561020957600080fd5b81019060208101813564010000000081111561022457600080fd5b82018360208201111561023657600080fd5b8035906020019184602083028401116401000000008311171561025857600080fd5b9190808060200260200160405190810160405280939291908181526020018383602002808284376000920191909152509295506105ae945050505050565b61029e61065a565b604080516001600160a01b039092168252519081900360200190f35b61016d600480360360208110156102d057600080fd5b5035610669565b61016d600480360360608110156102ed57600080fd5b508035906020810135906040013560ff16610890565b6103206004803603602081101561031957600080fd5b5035610c19565b60408051918252519081900360200190f35b61029e610c2b565b61016d610c3a565b61029e610ce0565b61029e610cef565b61035a610cfe565b604080519115158252519081900360200190f35b61016d6004803603602081101561038457600080fd5b81019060208101813564010000000081111561039f57600080fd5b8201836020820111156103b157600080fd5b803590602001918460208302840111640100000000831117156103d357600080fd5b919080806020026020016040519081016040528093929190818152602001838360200280828437600092019190915250929550610d0f945050505050565b61029e610da9565b6103206004803603602081101561042f57600080fd5b5035610db8565b61029e610dca565b6103206004803603602081101561045457600080fd5b5035610dd9565b6101dd6004803603602081101561047157600080fd5b50356112c3565b6103206004803603602081101561048e57600080fd5b50356112d8565b61016d600480360360208110156104ab57600080fd5b50356112ea565b61016d600480360360208110156104c857600080fd5b50356001600160a01b03166115b5565b6104e0610cfe565b6105345760408051600160e51b62461bcd02815260206004820181905260248201527f4f776e61626c653a2063616c6c6572206973206e6f7420746865206f776e6572604482015290519081900360640190fd5b600091825260076020526040909120805460ff191660ff909216919091179055565b60009081526007602090815260408083205460088352818420546009845282852054600a855283862054600b909552929094205460ff9182169591909216929190565b60076020526000908152604090205460ff1681565b805160065460408051600160e11b637a94c565028152336004820152600160248201526044810184905290516001600160a01b039092169163f5298aca9160648082019260009290919082900301818387803b15801561060d57600080fd5b505af1158015610621573d6000803e3d6000fd5b506000925050505b818110156106555761064d83828151811061064057fe5b602002602001015161161d565b600101610629565b505050565b6004546001600160a01b031681565b60035460408051600160e11b6331a9108f02815260048101849052905133926001600160a01b031691636352211e916024808301926020929190829003018186803b1580156106b757600080fd5b505afa1580156106cb573d6000803e3d6000fd5b505050506040513d60208110156106e157600080fd5b50516001600160a01b0316146107305760408051600160e51b62461bcd0281526020600482015260096024820152600160b91b683737ba1037bbb732b902604482015290519081900360640190fd5b600081815260076020526040902054600360ff9091161061079b5760408051600160e51b62461bcd02815260206004820152600d60248201527f616c726561647920737570657200000000000000000000000000000000000000604482015290519081900360640190fd5b60006107a682610dd9565b11156107ba576107b5816117a9565b6107cc565b6000818152600b602052604090204290555b60065460408051600160e11b637a94c565028152336004820152600260248201526001604482015290516001600160a01b039092169163f5298aca9160648082019260009290919082900301818387803b15801561082957600080fd5b505af115801561083d573d6000803e3d6000fd5b505050600082815260076020526040808220805460ff19811660ff9182166003019091161790555133925083917f799789b609956731d85c2d20ae7816464e5efd067923e33b114cddb1ed1fd98791a350565b60035460408051600160e11b6331a9108f02815260048101869052905133926001600160a01b031691636352211e916024808301926020929190829003018186803b1580156108de57600080fd5b505afa1580156108f2573d6000803e3d6000fd5b505050506040513d602081101561090857600080fd5b50516001600160a01b0316146109575760408051600160e51b62461bcd0281526020600482015260096024820152600160b91b683737ba1037bbb732b902604482015290519081900360640190fd5b600083815260076020526040902054600360ff909116106109c25760408051600160e51b62461bcd02815260206004820152601860248201527f73757065722063616e2774206571756970206d656e746f720000000000000000604482015290519081900360640190fd5b60008381526008602052604090205415610a265760408051600160e51b62461bcd02815260206004820152600f60248201527f616c726561647920657175697065640000000000000000000000000000000000604482015290519081900360640190fd5b60ff81161580610a3957508060ff166001145b610a8d5760408051600160e51b62461bcd02815260206004820152601b60248201527f69742073686f756c6420626520626f6e65206f722073756e73616c0000000000604482015290519081900360640190fd5b6000610a9884610dd9565b1115610aac57610aa7836117a9565b610abe565b6000838152600b602052604090204290555b60ff8116610b40576004805460408051600160e01b6323b872dd028152339381019390935230602484015260448301859052516001600160a01b03909116916323b872dd91606480830192600092919082900301818387803b158015610b2357600080fd5b505af1158015610b37573d6000803e3d6000fd5b50505050610bc1565b8060ff1660011415610bc15760055460408051600160e01b6323b872dd0281523360048201523060248201526044810185905290516001600160a01b03909216916323b872dd9160648082019260009290919082900301818387803b158015610ba857600080fd5b505af1158015610bbc573d6000803e3d6000fd5b505050505b6000838152600960209081526040808320805460ff191660ff86161790556008909152808220849055518391339186917f9bdddd384b96ed11d2b900662e0a1813f7406ffa9625c01b2c606ed6fc3343dd91a4505050565b60086020526000908152604090205481565b6005546001600160a01b031681565b610c42610cfe565b610c965760408051600160e51b62461bcd02815260206004820181905260248201527f4f776e61626c653a2063616c6c6572206973206e6f7420746865206f776e6572604482015290519081900360640190fd5b600080546040516001600160a01b03909116907f8be0079c531659141344cd1fd0a4f28419497f9722a3daafe3b4186f6b6457e0908390a3600080546001600160a01b0319169055565b6003546001600160a01b031681565b6000546001600160a01b031690565b6000546001600160a01b0316331490565b60026001541415610d6a5760408051600160e51b62461bcd02815260206004820152601f60248201527f5265656e7472616e637947756172643a207265656e7472616e742063616c6c00604482015290519081900360640190fd5b6002600155805160005b81811015610da057610d98838281518110610d8b57fe5b60200260200101516117a9565b600101610d74565b50506001805550565b6002546001600160a01b031681565b600a6020526000908152604090205481565b6006546001600160a01b031681565b6000818152600760205260408120548190600360ff90911610610e1d576000838152600b6020526040902054610e1690429063ffffffff61197916565b9050610ff7565b6000838152600b6020908152604080832054600a90925290912054610e4a9061070863ffffffff6119c416565b111580610e6357506000838152600a6020526040902054155b15610e7057506000610ff7565b6000838152600a6020908152604080832054600b9092529091205411610ee2576000838152600a602052604090205461070890610eb490429063ffffffff61197916565b1115610ec257610708610e16565b6000838152600a6020526040902054610e1690429063ffffffff61197916565b6000838152600a6020908152604080832054600b90925290912054118015610f3457506000838152600b6020908152604080832054600a90925290912054610f329061070863ffffffff6119c416565b115b15610ff7576000838152600b6020908152604080832054600a90925290912054610f779190610f6b9061070863ffffffff6119c416565b9063ffffffff61197916565b6000848152600b6020526040902054610f9790429063ffffffff61197916565b1115610fd4576000838152600b6020908152604080832054600a90925290912054610fcf9190610f6b9061070863ffffffff6119c416565b610ff4565b6000838152600b6020526040902054610ff490429063ffffffff61197916565b90505b60008381526007602052604090205460ff166110bd5760008381526008602052604090205461038310156110675761105f603c6110536002611047678ac7230489e800008663ffffffff611a2116565b9063ffffffff611a2116565b9063ffffffff611a7d16565b9150506112be565b600083815260086020526040902054156110a05761105f603c6110536005816006611047678ac7230489e800008863ffffffff611a2116565b61105f603c611053678ac7230489e800008463ffffffff611a2116565b60008381526007602052604090205460ff16600114156111675760008381526008602052604090205461038310156111115761105f603c611053600261104767d02ab486cedc00008663ffffffff611a2116565b6000838152600860205260409020541561114a5761105f603c611053600581600661104767d02ab486cedc00008863ffffffff611a2116565b61105f603c61105367d02ab486cedc00008463ffffffff611a2116565b60008381526007602052604090205460ff16600214156112145760008381526008602052604090205461038310156111bc5761105f603c61105360026110476801158e460913d000008663ffffffff611a2116565b600083815260086020526040902054156111f65761105f603c61105360058160066110476801158e460913d000008863ffffffff611a2116565b61105f603c6110536801158e460913d000008463ffffffff611a2116565b60008381526007602052604090205460ff166003141561124c5761105f603c6110536801a055690d9db800008463ffffffff611a2116565b60008381526007602052604090205460ff16600414156112845761105f603c611053680270801d946c9400008463ffffffff611a2116565b60008381526007602052604090205460ff16600514156112bc5761105f603c611053680340aad21b3b7000008463ffffffff611a2116565b505b919050565b60096020526000908152604090205460ff1681565b600b6020526000908152604090205481565b60035460408051600160e11b6331a9108f02815260048101849052905133926001600160a01b031691636352211e916024808301926020929190829003018186803b15801561133857600080fd5b505afa15801561134c573d6000803e3d6000fd5b505050506040513d602081101561136257600080fd5b50516001600160a01b0316146113b15760408051600160e51b62461bcd0281526020600482015260096024820152600160b91b683737ba1037bbb732b902604482015290519081900360640190fd5b6000818152600860205260409020546114055760408051600160e51b62461bcd02815260206004820152600b6024820152600160aa1b6a1b9bdd08195c5d5a5c195902604482015290519081900360640190fd5b600061141082610dd9565b11156114245761141f816117a9565b611436565b6000818152600b602052604090204290555b60008181526008602090815260408083205460099092529091205460ff166114da5760048054600084815260086020526040808220548151600160e01b6323b872dd02815230958101959095523360248601526044850152516001600160a01b03909216926323b872dd926064808301939282900301818387803b1580156114bd57600080fd5b505af11580156114d1573d6000803e3d6000fd5b50505050611575565b60008281526009602052604090205460ff166001141561157557600554600083815260086020526040808220548151600160e01b6323b872dd028152306004820152336024820152604481019190915290516001600160a01b03909316926323b872dd9260648084019391929182900301818387803b15801561155c57600080fd5b505af1158015611570573d6000803e3d6000fd5b505050505b600082815260086020526040808220829055518291339185917f1bdcc2ecbd43157bd775a3160f583b7cb3e4c60f48813ce982366d615b17d75c91a45050565b6115bd610cfe565b6116115760408051600160e51b62461bcd02815260206004820181905260248201527f4f776e61626c653a2063616c6c6572206973206e6f7420746865206f776e6572604482015290519081900360640190fd5b61161a81611abf565b50565b600081815260076020526040902054600360ff909116106116885760408051600160e51b62461bcd02815260206004820152601660248201527f73757065722063616e2774206265206368617267656400000000000000000000604482015290519081900360640190fd5b60035460408051600160e11b6331a9108f02815260048101849052905133926001600160a01b031691636352211e916024808301926020929190829003018186803b1580156116d657600080fd5b505afa1580156116ea573d6000803e3d6000fd5b505050506040513d602081101561170057600080fd5b50516001600160a01b03161461174f5760408051600160e51b62461bcd0281526020600482015260096024820152600160b91b683737ba1037bbb732b902604482015290519081900360640190fd5b6000818152600a602052604090205442906117729061070863ffffffff6119c416565b1061177c57600080fd5b600061178782610dd9565b111561179657611796816117a9565b6000908152600a60205260409020429055565b60035460408051600160e11b6331a9108f02815260048101849052905133926001600160a01b031691636352211e916024808301926020929190829003018186803b1580156117f757600080fd5b505afa15801561180b573d6000803e3d6000fd5b505050506040513d602081101561182157600080fd5b50516001600160a01b0316146118705760408051600160e51b62461bcd0281526020600482015260096024820152600160b91b683737ba1037bbb732b902604482015290519081900360640190fd5b600061187b82610dd9565b116118d05760408051600160e51b62461bcd02815260206004820152601760248201527f54686572652773206e6f7468696e6720746f206d696e65000000000000000000604482015290519081900360640190fd5b6002546001600160a01b031663a9059cbb336118eb84610dd9565b6040518363ffffffff1660e01b815260040180836001600160a01b03166001600160a01b0316815260200182815260200192505050602060405180830381600087803b15801561193a57600080fd5b505af115801561194e573d6000803e3d6000fd5b505050506040513d602081101561196457600080fd5b50506000908152600b60205260409020429055565b60006119bb83836040518060400160405280601e81526020017f536166654d6174683a207375627472616374696f6e206f766572666c6f770000815250611b62565b90505b92915050565b6000828201838110156119bb5760408051600160e51b62461bcd02815260206004820152601b60248201527f536166654d6174683a206164646974696f6e206f766572666c6f770000000000604482015290519081900360640190fd5b600082611a30575060006119be565b82820282848281611a3d57fe5b04146119bb57604051600160e51b62461bcd028152600401808060200182810382526021815260200180611c8b6021913960400191505060405180910390fd5b60006119bb83836040518060400160405280601a81526020017f536166654d6174683a206469766973696f6e206279207a65726f000000000000815250611bfc565b6001600160a01b038116611b0757604051600160e51b62461bcd028152600401808060200182810382526026815260200180611c656026913960400191505060405180910390fd5b600080546040516001600160a01b03808516939216917f8be0079c531659141344cd1fd0a4f28419497f9722a3daafe3b4186f6b6457e091a3600080546001600160a01b0319166001600160a01b0392909216919091179055565b60008184841115611bf457604051600160e51b62461bcd0281526004018080602001828103825283818151815260200191508051906020019080838360005b83811015611bb9578181015183820152602001611ba1565b50505050905090810190601f168015611be65780820380516001836020036101000a031916815260200191505b509250505060405180910390fd5b505050900390565b60008183611c4e57604051600160e51b62461bcd028152602060048201818152835160248401528351909283926044909101919085019080838360008315611bb9578181015183820152602001611ba1565b506000838581611c5a57fe5b049594505050505056fe4f776e61626c653a206e6577206f776e657220697320746865207a65726f2061646472657373536166654d6174683a206d756c7469706c69636174696f6e206f766572666c6f77a165627a7a723058205e6bd5bc4ebad6985dbc95061de745efd5c6d6edfd3a1cf2f2a1c898337770fd0029",
  "source": "// SPDX-License-Identifier: MIT\r\npragma solidity ^0.5.6;\r\n\r\nimport \"../contracts/klaytn-contracts/token/KIP7/IKIP7.sol\";\r\nimport \"../contracts/klaytn-contracts/token/KIP17/IKIP17Enumerable.sol\";\r\nimport \"../contracts/klaytn-contracts/token/KIP37/KIP37Burnable.sol\";\r\nimport \"../contracts/klaytn-contracts/math/SafeMath.sol\";\r\nimport \"../contracts/klaytn-contracts/ownership/Ownable.sol\";\r\nimport \"./ReentrancyGuard.sol\";\r\n\r\ncontract Chick_Mining is Ownable, ReentrancyGuard {\r\n    using SafeMath for uint256;\r\n\r\n    event SuperChickiz(uint256 indexed id, address indexed chef);\r\n\r\n    event EquipMentor(\r\n        uint256 indexed id,\r\n        address indexed chef,\r\n        uint256 indexed mentorId\r\n    );\r\n\r\n    event UnEquipMentor(\r\n        uint256 indexed id,\r\n        address indexed chef,\r\n        uint256 indexed mentorId\r\n    );\r\n\r\n    IKIP7 public Chick;\r\n    IKIP17Enumerable public Chickiz;\r\n    IKIP17Enumerable public Bone;\r\n    IKIP17Enumerable public Sunsal;\r\n    KIP37Burnable public Oil; // #1 - basic / #2 - olive\r\n\r\n    constructor(\r\n        IKIP7 _Chick,\r\n        IKIP17Enumerable _Chickiz,\r\n        IKIP17Enumerable _Bone,\r\n        IKIP17Enumerable _Sunsal,\r\n        KIP37Burnable _Oil\r\n    ) public {\r\n        Chick = _Chick;\r\n        Chickiz = _Chickiz;\r\n        Bone = _Bone;\r\n        Sunsal = _Sunsal;\r\n        Oil = _Oil;\r\n    }\r\n\r\n    /*\r\n        cp(crunch power) 0,1,2,3,4,5\r\n        - used to check crunch power and Super Chickiz Status\r\n        => * 3\r\n\r\n        mentor 0,1\r\n        - used to check whether fitted or not\r\n        - #1 ~ #899 => normal => * 1.2\r\n            **IMPORTANT** #0 should be never used. It's default value.\r\n        - #900 ~ #999 => special => * 2\r\n    */\r\n\r\n    uint8 private constant _CHICKIZ_BASAK = 0;\r\n    uint8 private constant _CHICKIZ_BBASAK = 1;\r\n    uint8 private constant _CHICKIZ_BBBASAK = 2;\r\n    uint8 private constant _CHICKIZ_BASAK_SUPER = 3;\r\n    uint8 private constant _CHICKIZ_BBASAK_SUPER = 4;\r\n    uint8 private constant _CHICKIZ_BBBASAK_SUPER = 5;\r\n\r\n    uint256 private constant _BASAK_CP = 10 * 1e18;\r\n    uint256 private constant _BBASAK_CP = 15 * 1e18;\r\n    uint256 private constant _BBBASAK_CP = 20 * 1e18;\r\n    uint256 private constant _BASAK_SUPER_CP = 30 * 1e18;\r\n    uint256 private constant _BBASAK_SUPER_CP = 45 * 1e18;\r\n    uint256 private constant _BBBASAK_SUPER_CP = 60 * 1e18;\r\n\r\n    /* uint256 private constant _OIL_DURATION = 2592000; /* 86400 * 30 */\r\n    uint256 private constant _OIL_DURATION = 1800; /* 60 * 30 */\r\n\r\n    uint8 private constant _MENTOR_BONE = 0;\r\n    uint8 private constant _MENTOR_SUNSAL = 1;\r\n\r\n    mapping(uint256 => uint8) public cp;\r\n    mapping(uint256 => uint256) public mentor;\r\n    mapping(uint256 => uint8) public mentorKind;\r\n    mapping(uint256 => uint256) public oilCharged; // timestamp\r\n    mapping(uint256 => uint256) public lastMined; // timestamp\r\n\r\n    function setCP(uint256 _id, uint8 _cp) external onlyOwner {\r\n        cp[_id] = _cp;\r\n    }\r\n\r\n    function makeSuperChickiz(uint256 id) public {\r\n        require(Chickiz.ownerOf(id) == msg.sender, \"not owner\");\r\n        require(cp[id] < 3, \"already super\");\r\n        //require(mentor[id] == 0, \"you have to unequip mentor\");\r\n\r\n        if (minable(id) > 0) {\r\n            _mine(id);\r\n        } else {\r\n            lastMined[id] = block.timestamp;\r\n        }\r\n\r\n        Oil.burn(msg.sender, 2, 1); // \r\n        cp[id] = cp[id] + 3;\r\n\r\n        emit SuperChickiz(id, msg.sender);\r\n    }\r\n\r\n    function equipMentor(\r\n        uint256 _chickizId,\r\n        uint256 _mentorId,\r\n        uint8 _mentorKind\r\n    ) public {\r\n        require(Chickiz.ownerOf(_chickizId) == msg.sender, \"not owner\");\r\n        require(cp[_chickizId] < 3, \"super can't equip mentor\");\r\n        require(mentor[_chickizId] == 0, \"already equiped\");\r\n        require(\r\n            _mentorKind == 0 || _mentorKind == 1,\r\n            \"it should be bone or sunsal\"\r\n        );\r\n\r\n        if (minable(_chickizId) > 0) {\r\n            _mine(_chickizId);\r\n        } else {\r\n            lastMined[_chickizId] = block.timestamp;\r\n        }\r\n\r\n        if (_mentorKind == 0) {\r\n            Bone.transferFrom(msg.sender, address(this), _mentorId);\r\n        } else if (_mentorKind == 1) {\r\n            Sunsal.transferFrom(msg.sender, address(this), _mentorId);\r\n        }\r\n\r\n        mentorKind[_chickizId] = _mentorKind;\r\n        mentor[_chickizId] = _mentorId;\r\n\r\n        emit EquipMentor(_chickizId, msg.sender, _mentorId);\r\n    }\r\n\r\n    function unEquipMentor(uint256 id) public {\r\n        require(Chickiz.ownerOf(id) == msg.sender, \"not owner\");\r\n        require(mentor[id] != 0, \"not equiped\");\r\n\r\n        if (minable(id) > 0) {\r\n            _mine(id);\r\n        } else {\r\n            lastMined[id] = block.timestamp;\r\n        }\r\n\r\n        uint256 _mentor = mentor[id];\r\n\r\n        if (mentorKind[id] == 0) {\r\n            Bone.transferFrom(address(this), msg.sender, mentor[id]);\r\n        } else if (mentorKind[id] == 1) {\r\n            Sunsal.transferFrom(address(this), msg.sender, mentor[id]);\r\n        }\r\n\r\n        mentor[id] = 0;\r\n\r\n        emit UnEquipMentor(id, msg.sender, _mentor);\r\n    }\r\n\r\n    function minable(uint256 id) public view returns (uint256) {\r\n        uint256 minablePeriods;\r\n\r\n        if (cp[id] >= 3) {\r\n            minablePeriods = block.timestamp.sub(lastMined[id]);\r\n        } else {\r\n            if (\r\n                oilCharged[id].add(_OIL_DURATION) <= lastMined[id] ||\r\n                oilCharged[id] == 0\r\n            ) {\r\n                minablePeriods = 0;\r\n            } else if (lastMined[id] <= oilCharged[id]) {\r\n                minablePeriods = block.timestamp.sub(oilCharged[id]) <=\r\n                    _OIL_DURATION\r\n                    ? block.timestamp.sub(oilCharged[id])\r\n                    : _OIL_DURATION;\r\n            } else if (\r\n                lastMined[id] > oilCharged[id] &&\r\n                oilCharged[id].add(_OIL_DURATION) > lastMined[id]\r\n            ) {\r\n                minablePeriods = block.timestamp.sub(lastMined[id]) <=\r\n                    oilCharged[id].add(_OIL_DURATION).sub(lastMined[id])\r\n                    ? block.timestamp.sub(lastMined[id])\r\n                    : oilCharged[id].add(_OIL_DURATION).sub(lastMined[id]);\r\n            }\r\n        }\r\n\r\n        if (cp[id] == _CHICKIZ_BASAK) {\r\n            if (mentor[id] > 899) {\r\n                return _BASAK_CP.mul(minablePeriods).mul(2).div(60);\r\n            } else if (mentor[id] > 0) {\r\n                return _BASAK_CP.mul(minablePeriods).mul(6).div(5).div(60);\r\n            } else {\r\n                return _BASAK_CP.mul(minablePeriods).div(60);\r\n            }\r\n        } else if (cp[id] == _CHICKIZ_BBASAK) {\r\n            if (mentor[id] > 899) {\r\n                return _BBASAK_CP.mul(minablePeriods).mul(2).div(60);\r\n            } else if (mentor[id] > 0) {\r\n                return _BBASAK_CP.mul(minablePeriods).mul(6).div(5).div(60);\r\n            } else {\r\n                return _BBASAK_CP.mul(minablePeriods).div(60);\r\n            }\r\n        } else if (cp[id] == _CHICKIZ_BBBASAK) {\r\n            if (mentor[id] > 899) {\r\n                return _BBBASAK_CP.mul(minablePeriods).mul(2).div(60);\r\n            } else if (mentor[id] > 0) {\r\n                return _BBBASAK_CP.mul(minablePeriods).mul(6).div(5).div(60);\r\n            } else {\r\n                return _BBBASAK_CP.mul(minablePeriods).div(60);\r\n            }\r\n        } else if (cp[id] == _CHICKIZ_BASAK_SUPER) {\r\n            return _BASAK_SUPER_CP.mul(minablePeriods).div(60);\r\n        } else if (cp[id] == _CHICKIZ_BBASAK_SUPER) {\r\n            return _BBASAK_SUPER_CP.mul(minablePeriods).div(60);\r\n        } else if (cp[id] == _CHICKIZ_BBBASAK_SUPER) {\r\n            return _BBBASAK_SUPER_CP.mul(minablePeriods).div(60);\r\n        }\r\n    }\r\n\r\n    function _mine(uint256 id) internal {\r\n        require(Chickiz.ownerOf(id) == msg.sender, \"not owner\");\r\n        require(minable(id) > 0, \"There's nothing to mine\");\r\n        Chick.transfer(msg.sender, minable(id));\r\n        lastMined[id] = block.timestamp;\r\n    }\r\n\r\n    function _charge_withoutburn(uint256 id) internal {\r\n        require(cp[id] < 3, \"super can't be charged\");\r\n        require(Chickiz.ownerOf(id) == msg.sender, \"not owner\");\r\n        require(oilCharged[id].add(_OIL_DURATION) < block.timestamp);\r\n\r\n        if (minable(id) > 0) {\r\n            _mine(id);\r\n        }\r\n\r\n        oilCharged[id] = block.timestamp;\r\n    }\r\n\r\n    function mine(uint256[] memory ids) public nonReentrant {\r\n        uint256 len = ids.length;\r\n        for (uint256 i = 0; i < len; i++) {\r\n            _mine(ids[i]);\r\n        }\r\n    }\r\n\r\n    function charge(uint256[] memory ids) public {\r\n        uint256 len = ids.length;\r\n        Oil.burn(msg.sender, 1, len); // \r\n        for (uint256 i = 0; i < len; i++) {\r\n            _charge_withoutburn(ids[i]);\r\n        }\r\n    }\r\n\r\n    function chickizInfo(uint256 id)\r\n        public\r\n        view\r\n        returns (\r\n            uint8 _cp,\r\n            uint256 _mentor,\r\n            uint8 _mentorKind,\r\n            uint256 _oilCharged,\r\n            uint256 _lastMined\r\n        )\r\n    {\r\n        _cp = cp[id];\r\n        _mentor = mentor[id];\r\n        _mentorKind = mentorKind[id];\r\n        _oilCharged = oilCharged[id];\r\n        _lastMined = lastMined[id];\r\n\r\n        return (_cp, _mentor, _mentorKind, _oilCharged, _lastMined);\r\n    }\r\n}\r\n",
  "sourcePath": "C:/Users/kwonj/contract_klaytn/chick_test/contracts/Chick_Mining.sol",
  "compiler": {
    "name": "solc",
    "version": "0.5.6+commit.b259423e.Emscripten.clang"
  },
  "schemaVersion": "3.3.3",
  "updatedAt": "2022-09-04T10:01:27.294Z",
  "devdoc": {
    "methods": {
      "isOwner()": {
        "details": "Returns true if the caller is the current owner."
      },
      "owner()": {
        "details": "Returns the address of the current owner."
      },
      "renounceOwnership()": {
        "details": "Leaves the contract without owner. It will not be possible to call `onlyOwner` functions anymore. Can only be called by the current owner.     * > Note: Renouncing ownership will leave the contract without an owner, thereby removing any functionality that is only available to the owner."
      },
      "transferOwnership(address)": {
        "details": "Transfers ownership of the contract to a new account (`newOwner`). Can only be called by the current owner."
      }
    }
  },
  "userdoc": {
    "methods": {}
  }
}