{
  "contractName": "ChickStore",
  "abi": [
    {
      "constant": false,
      "inputs": [],
      "name": "renounceOwnership",
      "outputs": [],
      "payable": false,
      "stateMutability": "nonpayable",
      "type": "function"
    },
    {
      "constant": true,
      "inputs": [
        {
          "name": "",
          "type": "uint256"
        }
      ],
      "name": "ProductList",
      "outputs": [
        {
          "name": "id",
          "type": "uint256"
        },
        {
          "name": "item",
          "type": "address"
        },
        {
          "name": "tokenId",
          "type": "uint256"
        },
        {
          "name": "price",
          "type": "uint256"
        }
      ],
      "payable": false,
      "stateMutability": "view",
      "type": "function"
    },
    {
      "constant": true,
      "inputs": [],
      "name": "owner",
      "outputs": [
        {
          "name": "",
          "type": "address"
        }
      ],
      "payable": false,
      "stateMutability": "view",
      "type": "function"
    },
    {
      "constant": true,
      "inputs": [],
      "name": "isOwner",
      "outputs": [
        {
          "name": "",
          "type": "bool"
        }
      ],
      "payable": false,
      "stateMutability": "view",
      "type": "function"
    },
    {
      "constant": true,
      "inputs": [],
      "name": "Chick",
      "outputs": [
        {
          "name": "",
          "type": "address"
        }
      ],
      "payable": false,
      "stateMutability": "view",
      "type": "function"
    },
    {
      "constant": false,
      "inputs": [
        {
          "name": "newOwner",
          "type": "address"
        }
      ],
      "name": "transferOwnership",
      "outputs": [],
      "payable": false,
      "stateMutability": "nonpayable",
      "type": "function"
    },
    {
      "inputs": [
        {
          "name": "_Chick",
          "type": "address"
        }
      ],
      "payable": false,
      "stateMutability": "nonpayable",
      "type": "constructor"
    },
    {
      "anonymous": false,
      "inputs": [
        {
          "indexed": true,
          "name": "previousOwner",
          "type": "address"
        },
        {
          "indexed": true,
          "name": "newOwner",
          "type": "address"
        }
      ],
      "name": "OwnershipTransferred",
      "type": "event"
    },
    {
      "constant": true,
      "inputs": [],
      "name": "totalProducts",
      "outputs": [
        {
          "name": "",
          "type": "uint256"
        }
      ],
      "payable": false,
      "stateMutability": "view",
      "type": "function"
    },
    {
      "constant": false,
      "inputs": [
        {
          "name": "_item",
          "type": "address"
        },
        {
          "name": "_tokenId",
          "type": "uint256"
        },
        {
          "name": "_price",
          "type": "uint256"
        }
      ],
      "name": "addProduct",
      "outputs": [],
      "payable": false,
      "stateMutability": "nonpayable",
      "type": "function"
    },
    {
      "constant": false,
      "inputs": [
        {
          "name": "_id",
          "type": "uint256"
        },
        {
          "name": "_price",
          "type": "uint256"
        }
      ],
      "name": "modifyProductPrice",
      "outputs": [],
      "payable": false,
      "stateMutability": "nonpayable",
      "type": "function"
    },
    {
      "constant": false,
      "inputs": [
        {
          "name": "_id",
          "type": "uint256"
        },
        {
          "name": "_quan",
          "type": "uint256"
        }
      ],
      "name": "buyProduct",
      "outputs": [],
      "payable": false,
      "stateMutability": "nonpayable",
      "type": "function"
    },
    {
      "constant": false,
      "inputs": [],
      "name": "withdrawChick",
      "outputs": [],
      "payable": false,
      "stateMutability": "nonpayable",
      "type": "function"
    }
  ],
  "bytecode": "0x608060405234801561001057600080fd5b50604051602080610a5a8339810180604052602081101561003057600080fd5b5051600080546001600160a01b03191633178082556040516001600160a01b039190911691907f8be0079c531659141344cd1fd0a4f28419497f9722a3daafe3b4186f6b6457e0908290a360018055600280546001600160a01b0319166001600160a01b03929092169190911790556109ac806100ae6000396000f3fe608060405234801561001057600080fd5b50600436106100a95760003560e01c80638f32d59b116100715780638f32d59b1461017c578063923767bd146101985780639b9d326d146101a0578063a63ff707146101ba578063c0bd2c29146101c2578063f2fde38b146101e5576100a9565b80631b78c08e146100ae57806353b62866146100e2578063715018a614610105578063805dd9e91461010d5780638da5cb5b14610158575b600080fd5b6100e0600480360360608110156100c457600080fd5b506001600160a01b03813516906020810135906040013561020b565b005b6100e0600480360360408110156100f857600080fd5b50803590602001356102e1565b6100e06104c8565b61012a6004803603602081101561012357600080fd5b503561055c565b604080519485526001600160a01b039093166020850152838301919091526060830152519081900360800190f35b61016061059c565b604080516001600160a01b039092168252519081900360200190f35b6101846105ab565b604080519115158252519081900360200190f35b6101606105bc565b6101a86105cb565b60408051918252519081900360200190f35b6100e06105d1565b6100e0600480360360408110156101d857600080fd5b5080359060200135610716565b6100e0600480360360208110156101fb57600080fd5b50356001600160a01b031661078a565b6102136105ab565b6102555760408051600160e51b62461bcd0281526020600482018190526024820152600080516020610961833981519152604482015290519081900360640190fd5b6003604051806080016040528061026a6105cb565b81526001600160a01b0395861660208083019190915260408083019690965260609182019490945282546001808201855560009485529385902083516004909202019081559382015192840180546001600160a01b0319169390961692909217909455918301516002820155910151600390910155565b6002600154141561033c5760408051600160e51b62461bcd02815260206004820152601f60248201527f5265656e7472616e637947756172643a207265656e7472616e742063616c6c00604482015290519081900360640190fd5b60026001556103496108e8565b6003838154811061035657fe5b60009182526020918290206040805160808101825260049093029091018054835260018101546001600160a01b039081169484018590526002808301549385019390935260039091015460608401819052915492945091909116906323b872dd90339030906103cc90889063ffffffff6107e016565b6040805163ffffffff861660e01b81526001600160a01b0394851660048201529290931660248301526044820152905160648083019260209291908290030181600087803b15801561041d57600080fd5b505af1158015610431573d6000803e3d6000fd5b505050506040513d602081101561044757600080fd5b50506040808301518151600160e61b63020da84102815260048101919091523360248201526044810185905290516001600160a01b0383169163836a104091606480830192600092919082900301818387803b1580156104a657600080fd5b505af11580156104ba573d6000803e3d6000fd5b505060018055505050505050565b6104d06105ab565b6105125760408051600160e51b62461bcd0281526020600482018190526024820152600080516020610961833981519152604482015290519081900360640190fd5b600080546040516001600160a01b03909116907f8be0079c531659141344cd1fd0a4f28419497f9722a3daafe3b4186f6b6457e0908390a3600080546001600160a01b0319169055565b6003818154811061056957fe5b600091825260209091206004909102018054600182015460028301546003909301549193506001600160a01b0316919084565b6000546001600160a01b031690565b6000546001600160a01b0316331490565b6002546001600160a01b031681565b60035490565b6105d96105ab565b61061b5760408051600160e51b62461bcd0281526020600482018190526024820152600080516020610961833981519152604482015290519081900360640190fd5b60025460408051600160e01b6370a0823102815230600482015290516001600160a01b039092169163a9059cbb91339184916370a08231916024808301926020929190829003018186803b15801561067257600080fd5b505afa158015610686573d6000803e3d6000fd5b505050506040513d602081101561069c57600080fd5b50516040805163ffffffff851660e01b81526001600160a01b03909316600484015260248301919091525160448083019260209291908290030181600087803b1580156106e857600080fd5b505af11580156106fc573d6000803e3d6000fd5b505050506040513d602081101561071257600080fd5b5050565b61071e6105ab565b6107605760408051600160e51b62461bcd0281526020600482018190526024820152600080516020610961833981519152604482015290519081900360640190fd5b60006003838154811061076f57fe5b60009182526020909120600360049092020101919091555050565b6107926105ab565b6107d45760408051600160e51b62461bcd0281526020600482018190526024820152600080516020610961833981519152604482015290519081900360640190fd5b6107dd81610845565b50565b6000826107ef5750600061083f565b828202828482816107fc57fe5b041461083c57604051600160e51b62461bcd0281526004018080602001828103825260218152602001806109406021913960400191505060405180910390fd5b90505b92915050565b6001600160a01b03811661088d57604051600160e51b62461bcd02815260040180806020018281038252602681526020018061091a6026913960400191505060405180910390fd5b600080546040516001600160a01b03808516939216917f8be0079c531659141344cd1fd0a4f28419497f9722a3daafe3b4186f6b6457e091a3600080546001600160a01b0319166001600160a01b0392909216919091179055565b60405180608001604052806000815260200160006001600160a01b031681526020016000815260200160008152509056fe4f776e61626c653a206e6577206f776e657220697320746865207a65726f2061646472657373536166654d6174683a206d756c7469706c69636174696f6e206f766572666c6f774f776e61626c653a2063616c6c6572206973206e6f7420746865206f776e6572a165627a7a723058200e168fd1b9e843b6cdd49d95c2dac38046d6780732dc714a15df7e9e86aadce00029",
  "source": "// SPDX-License-Identifier: MIT\r\npragma solidity ^0.5.6;\r\n\r\nimport \"../contracts/klaytn-contracts/token/KIP7/IKIP7.sol\";\r\nimport \"../contracts/klaytn-contracts/token/KIP37/KIP37Mintable.sol\";\r\nimport \"../contracts/klaytn-contracts/math/SafeMath.sol\";\r\nimport \"../contracts/klaytn-contracts/ownership/Ownable.sol\";\r\nimport \"./ReentrancyGuard.sol\";\r\n\r\ncontract ChickStore is Ownable, ReentrancyGuard {\r\n    using SafeMath for uint256;\r\n\r\n    IKIP7 public Chick;\r\n\r\n    constructor(IKIP7 _Chick) public {\r\n        Chick = _Chick;\r\n    }\r\n\r\n    struct Product {\r\n        uint256 id;\r\n        address item;\r\n        uint256 tokenId;\r\n        uint256 price;\r\n    }\r\n\r\n    Product[] public ProductList;\r\n\r\n    function totalProducts() public view returns (uint256) {\r\n        return ProductList.length;\r\n    }\r\n\r\n    function addProduct(\r\n        address _item,\r\n        uint256 _tokenId,\r\n        uint256 _price\r\n    ) external onlyOwner {\r\n        ProductList.push(\r\n            Product({\r\n                id: totalProducts(),\r\n                item: _item,\r\n                tokenId: _tokenId,\r\n                price: _price\r\n            })\r\n        );\r\n    }\r\n\r\n    function modifyProductPrice(uint256 _id, uint256 _price)\r\n        external\r\n        onlyOwner\r\n    {\r\n        Product storage _product = ProductList[_id];\r\n        _product.price = _price;\r\n    }\r\n\r\n    function buyProduct(uint256 _id, uint256 _quan) external nonReentrant {\r\n        Product memory _product = ProductList[_id];\r\n        KIP37Mintable Item_ = KIP37Mintable(_product.item);\r\n\r\n        Chick.transferFrom(\r\n            msg.sender,\r\n            address(this),\r\n            _quan.mul(_product.price)\r\n        );\r\n\r\n        Item_.mint(_product.tokenId, msg.sender, _quan);\r\n    }\r\n\r\n    function withdrawChick() external onlyOwner {\r\n        Chick.transfer(msg.sender, Chick.balanceOf(address(this)));\r\n    }\r\n}\r\n",
  "sourcePath": "C:/Users/kwonj/contract_klaytn/chick_test/contracts/ChickStore.sol",
  "compiler": {
    "name": "solc",
    "version": "0.5.6+commit.b259423e.Emscripten.clang"
  },
  "schemaVersion": "3.3.3",
  "updatedAt": "2022-09-04T10:01:27.285Z",
  "devdoc": {
    "methods": {
      "isOwner()": {
        "details": "Returns true if the caller is the current owner."
      },
      "owner()": {
        "details": "Returns the address of the current owner."
      },
      "renounceOwnership()": {
        "details": "Leaves the contract without owner. It will not be possible to call `onlyOwner` functions anymore. Can only be called by the current owner.     * > Note: Renouncing ownership will leave the contract without an owner, thereby removing any functionality that is only available to the owner."
      },
      "transferOwnership(address)": {
        "details": "Transfers ownership of the contract to a new account (`newOwner`). Can only be called by the current owner."
      }
    }
  },
  "userdoc": {
    "methods": {}
  }
}